{
  "address": "0x76cec9299B6Fa418dc71416FF353737AB7933A7D",
  "abi": [
    {
      "inputs": [
        {
          "internalType": "uint256",
          "name": "interval",
          "type": "uint256"
        },
        {
          "internalType": "uint256",
          "name": "truflationOracleFee",
          "type": "uint256"
        },
        {
          "internalType": "bytes32",
          "name": "truflationOracleJobId",
          "type": "bytes32"
        },
        {
          "internalType": "contract ISwapRouter",
          "name": "swapRouter",
          "type": "address"
        }
      ],
      "stateMutability": "nonpayable",
      "type": "constructor"
    },
    {
      "inputs": [
        {
          "internalType": "uint256",
          "name": "timePassed",
          "type": "uint256"
        }
      ],
      "name": "UpkeepNotNeeded",
      "type": "error"
    },
    {
      "anonymous": false,
      "inputs": [
        {
          "indexed": true,
          "internalType": "bytes32",
          "name": "id",
          "type": "bytes32"
        }
      ],
      "name": "ChainlinkCancelled",
      "type": "event"
    },
    {
      "anonymous": false,
      "inputs": [
        {
          "indexed": true,
          "internalType": "bytes32",
          "name": "id",
          "type": "bytes32"
        }
      ],
      "name": "ChainlinkFulfilled",
      "type": "event"
    },
    {
      "anonymous": false,
      "inputs": [
        {
          "indexed": true,
          "internalType": "bytes32",
          "name": "id",
          "type": "bytes32"
        }
      ],
      "name": "ChainlinkRequested",
      "type": "event"
    },
    {
      "anonymous": false,
      "inputs": [
        {
          "indexed": true,
          "internalType": "bytes32",
          "name": "requestId",
          "type": "bytes32"
        },
        {
          "indexed": false,
          "internalType": "uint256",
          "name": "inflation",
          "type": "uint256"
        }
      ],
      "name": "RequestInflation",
      "type": "event"
    },
    {
      "inputs": [],
      "name": "DAI",
      "outputs": [
        {
          "internalType": "address",
          "name": "",
          "type": "address"
        }
      ],
      "stateMutability": "view",
      "type": "function"
    },
    {
      "inputs": [],
      "name": "WETH9",
      "outputs": [
        {
          "internalType": "address",
          "name": "",
          "type": "address"
        }
      ],
      "stateMutability": "view",
      "type": "function"
    },
    {
      "inputs": [
        {
          "internalType": "bytes",
          "name": "",
          "type": "bytes"
        }
      ],
      "name": "checkUpkeep",
      "outputs": [
        {
          "internalType": "bool",
          "name": "upkeepNeeded",
          "type": "bool"
        },
        {
          "internalType": "bytes",
          "name": "",
          "type": "bytes"
        }
      ],
      "stateMutability": "view",
      "type": "function"
    },
    {
      "inputs": [],
      "name": "feeTier",
      "outputs": [
        {
          "internalType": "uint24",
          "name": "",
          "type": "uint24"
        }
      ],
      "stateMutability": "view",
      "type": "function"
    },
    {
      "inputs": [
        {
          "internalType": "address",
          "name": "staker",
          "type": "address"
        }
      ],
      "name": "getBalanceOf",
      "outputs": [
        {
          "internalType": "uint256",
          "name": "",
          "type": "uint256"
        }
      ],
      "stateMutability": "view",
      "type": "function"
    },
    {
      "inputs": [],
      "name": "getCounter",
      "outputs": [
        {
          "internalType": "uint256",
          "name": "",
          "type": "uint256"
        }
      ],
      "stateMutability": "view",
      "type": "function"
    },
    {
      "inputs": [],
      "name": "getInterval",
      "outputs": [
        {
          "internalType": "uint256",
          "name": "",
          "type": "uint256"
        }
      ],
      "stateMutability": "view",
      "type": "function"
    },
    {
      "inputs": [],
      "name": "getLastTimeStamp",
      "outputs": [
        {
          "internalType": "uint256",
          "name": "",
          "type": "uint256"
        }
      ],
      "stateMutability": "view",
      "type": "function"
    },
    {
      "inputs": [],
      "name": "getTruflationOracleFee",
      "outputs": [
        {
          "internalType": "uint256",
          "name": "",
          "type": "uint256"
        }
      ],
      "stateMutability": "view",
      "type": "function"
    },
    {
      "inputs": [],
      "name": "getTruflationOracleJobId",
      "outputs": [
        {
          "internalType": "bytes32",
          "name": "",
          "type": "bytes32"
        }
      ],
      "stateMutability": "view",
      "type": "function"
    },
    {
      "inputs": [],
      "name": "i_swapRouter",
      "outputs": [
        {
          "internalType": "contract ISwapRouter",
          "name": "",
          "type": "address"
        }
      ],
      "stateMutability": "view",
      "type": "function"
    },
    {
      "inputs": [
        {
          "internalType": "bytes",
          "name": "",
          "type": "bytes"
        }
      ],
      "name": "performUpkeep",
      "outputs": [],
      "stateMutability": "nonpayable",
      "type": "function"
    },
    {
      "inputs": [],
      "name": "requestConsumerSentimentData",
      "outputs": [
        {
          "internalType": "uint256",
          "name": "consumerSentiment",
          "type": "uint256"
        }
      ],
      "stateMutability": "pure",
      "type": "function"
    },
    {
      "inputs": [],
      "name": "requestInflationData",
      "outputs": [
        {
          "internalType": "uint256",
          "name": "yoyInflation",
          "type": "uint256"
        }
      ],
      "stateMutability": "pure",
      "type": "function"
    },
    {
      "inputs": [
        {
          "internalType": "address",
          "name": "",
          "type": "address"
        }
      ],
      "name": "s_stakingBalanceDAI",
      "outputs": [
        {
          "internalType": "uint256",
          "name": "",
          "type": "uint256"
        }
      ],
      "stateMutability": "view",
      "type": "function"
    },
    {
      "inputs": [
        {
          "internalType": "uint256",
          "name": "amount",
          "type": "uint256"
        }
      ],
      "name": "stakeDAI",
      "outputs": [],
      "stateMutability": "nonpayable",
      "type": "function"
    },
    {
      "inputs": [
        {
          "internalType": "uint256",
          "name": "amountIn",
          "type": "uint256"
        }
      ],
      "name": "swapDAIForWETH",
      "outputs": [
        {
          "internalType": "uint256",
          "name": "amountOut",
          "type": "uint256"
        }
      ],
      "stateMutability": "nonpayable",
      "type": "function"
    }
  ],
  "transactionHash": "0x3073c1d8b4db38d301f7b202aae361f93e79e4e38293a5dfcabcfcd7dd8f5f68",
  "args": [
    10,
    "100000000000000000",
    "0x3100000000000000000000000000000000000000000000000000000000000000",
    "0xE592427A0AEce92De3Edee1F18E0157C05861564"
  ],
  "numDeployments": 1,
  "solcInputHash": "916910efb19ddba90f3027d444c56a56",
  "bytecode": "0x61010060405260016004553480156200001757600080fd5b50604051620016e2380380620016e283398181016040528101906200003d91906200019e565b60016006819055508360808181525050426008819055508260a081815250508160c081815250508073ffffffffffffffffffffffffffffffffffffffff1660e08173ffffffffffffffffffffffffffffffffffffffff168152505060006007819055505050505062000210565b600080fd5b6000819050919050565b620000c481620000af565b8114620000d057600080fd5b50565b600081519050620000e481620000b9565b92915050565b6000819050919050565b620000ff81620000ea565b81146200010b57600080fd5b50565b6000815190506200011f81620000f4565b92915050565b600073ffffffffffffffffffffffffffffffffffffffff82169050919050565b6000620001528262000125565b9050919050565b6000620001668262000145565b9050919050565b620001788162000159565b81146200018457600080fd5b50565b60008151905062000198816200016d565b92915050565b60008060008060808587031215620001bb57620001ba620000aa565b5b6000620001cb87828801620000d3565b9450506020620001de87828801620000d3565b9350506040620001f1878288016200010e565b9250506060620002048782880162000187565b91505092959194509250565b60805160a05160c05160e0516114836200025f600039600081816103f0015281816104de01526106280152600061083e0152600061075d01526000818161078f01526109bc01526114836000f3fe608060405234801561001057600080fd5b506004361061010b5760003560e01c80638907f44f116100a25780639b96eece116100715780639b96eece146102ab578063c1c244e8146102db578063ccd6d412146102f9578063e0bab4c414610317578063fda17e76146103355761010b565b80638907f44f146102335780638ada066e1461025157806391ad27b41461026f578063963725941461028d5761010b565b806358fb8054116100de57806358fb8054146101aa57806364aab239146101c85780636e04ff0d146101e457806372f5d98a146102155761010b565b806304ca7c0f146101105780634585e33b146101405780634aa4a4fc1461015c5780634fcc65fe1461017a575b600080fd5b61012a60048036038101906101259190610bc5565b610353565b6040516101379190610c01565b60405180910390f35b61015a60048036038101906101559190610c81565b610580565b005b6101646105f6565b6040516101719190610d0f565b60405180910390f35b610194600480360381019061018f9190610d56565b61060e565b6040516101a19190610c01565b60405180910390f35b6101b2610626565b6040516101bf9190610de2565b60405180910390f35b6101e260048036038101906101dd9190610bc5565b61064a565b005b6101fe60048036038101906101f99190610c81565b61073e565b60405161020c929190610ea8565b60405180910390f35b61021d610753565b60405161022a9190610ef6565b60405180910390f35b61023b610759565b6040516102489190610c01565b60405180910390f35b610259610781565b6040516102669190610c01565b60405180910390f35b61027761078b565b6040516102849190610c01565b60405180910390f35b6102956107b3565b6040516102a29190610c01565b60405180910390f35b6102c560048036038101906102c09190610d56565b6107c1565b6040516102d29190610c01565b60405180910390f35b6102e361080a565b6040516102f09190610c01565b60405180910390f35b610301610814565b60405161030e9190610c01565b60405180910390f35b61031f610822565b60405161032c9190610d0f565b60405180910390f35b61033d61083a565b60405161034a9190610f2a565b60405180910390f35b600081600960003373ffffffffffffffffffffffffffffffffffffffff1673ffffffffffffffffffffffffffffffffffffffff16815260200190815260200160002054116103d6576040517f08c379a00000000000000000000000000000000000000000000000000000000081526004016103cd90610fc8565b60405180910390fd5b610415736b175474e89094c44da98b954eedeac495271d0f7f000000000000000000000000000000000000000000000000000000000000000084610862565b6000604051806101000160405280736b175474e89094c44da98b954eedeac495271d0f73ffffffffffffffffffffffffffffffffffffffff16815260200173c02aaa39b223fe8d0a0e5c4f27ead9083c756cc273ffffffffffffffffffffffffffffffffffffffff168152602001610bb862ffffff1681526020013373ffffffffffffffffffffffffffffffffffffffff16815260200142815260200184815260200160008152602001600073ffffffffffffffffffffffffffffffffffffffff1681525090507f000000000000000000000000000000000000000000000000000000000000000073ffffffffffffffffffffffffffffffffffffffff1663414bf389826040518263ffffffff1660e01b815260040161053591906110c6565b6020604051808303816000875af1158015610554573d6000803e3d6000fd5b505050506040513d601f19601f8201168201806040525081019061057891906110f7565b915050919050565b6105886109b7565b6105d6576008544261059a9190611153565b6040517faa2a11b30000000000000000000000000000000000000000000000000000000081526004016105cd9190610c01565b60405180910390fd5b4260088190555060016007546105ec9190611187565b6007819055505050565b73c02aaa39b223fe8d0a0e5c4f27ead9083c756cc281565b60096020528060005260406000206000915090505481565b7f000000000000000000000000000000000000000000000000000000000000000081565b6000811161068d576040517f08c379a000000000000000000000000000000000000000000000000000000000815260040161068490611207565b60405180910390fd5b6106ad736b175474e89094c44da98b954eedeac495271d0f333084610a2d565b80600960003373ffffffffffffffffffffffffffffffffffffffff1673ffffffffffffffffffffffffffffffffffffffff168152602001908152602001600020546106f89190611187565b600960003373ffffffffffffffffffffffffffffffffffffffff1673ffffffffffffffffffffffffffffffffffffffff1681526020019081526020016000208190555050565b6000606061074a6109b7565b91509250929050565b610bb881565b60007f0000000000000000000000000000000000000000000000000000000000000000905090565b6000600754905090565b60007f0000000000000000000000000000000000000000000000000000000000000000905090565b600080600190508091505090565b6000600960008373ffffffffffffffffffffffffffffffffffffffff1673ffffffffffffffffffffffffffffffffffffffff168152602001908152602001600020549050919050565b6000600854905090565b600080600190508091505090565b736b175474e89094c44da98b954eedeac495271d0f81565b60007f0000000000000000000000000000000000000000000000000000000000000000905090565b6000808473ffffffffffffffffffffffffffffffffffffffff1663095ea7b360e01b8585604051602401610897929190611227565b604051602081830303815290604052907bffffffffffffffffffffffffffffffffffffffffffffffffffffffff19166020820180517bffffffffffffffffffffffffffffffffffffffffffffffffffffffff8381831617835250505050604051610901919061128c565b6000604051808303816000865af19150503d806000811461093e576040519150601f19603f3d011682016040523d82523d6000602084013e610943565b606091505b5091509150818015610971575060008151148061097057508080602001905181019061096f91906112cf565b5b5b6109b0576040517f08c379a00000000000000000000000000000000000000000000000000000000081526004016109a790611348565b60405180910390fd5b5050505050565b6000807f0000000000000000000000000000000000000000000000000000000000000000600854426109e99190611153565b1190508015610a245760006109fc6107b3565b90506000610a08610814565b905060018183610a189190611368565b10159350505050610a2a565b60009150505b90565b6000808573ffffffffffffffffffffffffffffffffffffffff166323b872dd60e01b868686604051602401610a64939291906113aa565b604051602081830303815290604052907bffffffffffffffffffffffffffffffffffffffffffffffffffffffff19166020820180517bffffffffffffffffffffffffffffffffffffffffffffffffffffffff8381831617835250505050604051610ace919061128c565b6000604051808303816000865af19150503d8060008114610b0b576040519150601f19603f3d011682016040523d82523d6000602084013e610b10565b606091505b5091509150818015610b3e5750600081511480610b3d575080806020019051810190610b3c91906112cf565b5b5b610b7d576040517f08c379a0000000000000000000000000000000000000000000000000000000008152600401610b749061142d565b60405180910390fd5b505050505050565b600080fd5b600080fd5b6000819050919050565b610ba281610b8f565b8114610bad57600080fd5b50565b600081359050610bbf81610b99565b92915050565b600060208284031215610bdb57610bda610b85565b5b6000610be984828501610bb0565b91505092915050565b610bfb81610b8f565b82525050565b6000602082019050610c166000830184610bf2565b92915050565b600080fd5b600080fd5b600080fd5b60008083601f840112610c4157610c40610c1c565b5b8235905067ffffffffffffffff811115610c5e57610c5d610c21565b5b602083019150836001820283011115610c7a57610c79610c26565b5b9250929050565b60008060208385031215610c9857610c97610b85565b5b600083013567ffffffffffffffff811115610cb657610cb5610b8a565b5b610cc285828601610c2b565b92509250509250929050565b600073ffffffffffffffffffffffffffffffffffffffff82169050919050565b6000610cf982610cce565b9050919050565b610d0981610cee565b82525050565b6000602082019050610d246000830184610d00565b92915050565b610d3381610cee565b8114610d3e57600080fd5b50565b600081359050610d5081610d2a565b92915050565b600060208284031215610d6c57610d6b610b85565b5b6000610d7a84828501610d41565b91505092915050565b6000819050919050565b6000610da8610da3610d9e84610cce565b610d83565b610cce565b9050919050565b6000610dba82610d8d565b9050919050565b6000610dcc82610daf565b9050919050565b610ddc81610dc1565b82525050565b6000602082019050610df76000830184610dd3565b92915050565b60008115159050919050565b610e1281610dfd565b82525050565b600081519050919050565b600082825260208201905092915050565b60005b83811015610e52578082015181840152602081019050610e37565b60008484015250505050565b6000601f19601f8301169050919050565b6000610e7a82610e18565b610e848185610e23565b9350610e94818560208601610e34565b610e9d81610e5e565b840191505092915050565b6000604082019050610ebd6000830185610e09565b8181036020830152610ecf8184610e6f565b90509392505050565b600062ffffff82169050919050565b610ef081610ed8565b82525050565b6000602082019050610f0b6000830184610ee7565b92915050565b6000819050919050565b610f2481610f11565b82525050565b6000602082019050610f3f6000830184610f1b565b92915050565b600082825260208201905092915050565b7f5468652073656e64657220646f6573206e6f742068617665207374616b65642060008201527f656e6f7567682044414900000000000000000000000000000000000000000000602082015250565b6000610fb2602a83610f45565b9150610fbd82610f56565b604082019050919050565b60006020820190508181036000830152610fe181610fa5565b9050919050565b610ff181610cee565b82525050565b61100081610ed8565b82525050565b61100f81610b8f565b82525050565b61101e81610cce565b82525050565b6101008201600082015161103b6000850182610fe8565b50602082015161104e6020850182610fe8565b5060408201516110616040850182610ff7565b5060608201516110746060850182610fe8565b5060808201516110876080850182611006565b5060a082015161109a60a0850182611006565b5060c08201516110ad60c0850182611006565b5060e08201516110c060e0850182611015565b50505050565b6000610100820190506110dc6000830184611024565b92915050565b6000815190506110f181610b99565b92915050565b60006020828403121561110d5761110c610b85565b5b600061111b848285016110e2565b91505092915050565b7f4e487b7100000000000000000000000000000000000000000000000000000000600052601160045260246000fd5b600061115e82610b8f565b915061116983610b8f565b925082820390508181111561118157611180611124565b5b92915050565b600061119282610b8f565b915061119d83610b8f565b92508282019050808211156111b5576111b4611124565b5b92915050565b7f616d6f756e742073686f756c64206265203e2030000000000000000000000000600082015250565b60006111f1601483610f45565b91506111fc826111bb565b602082019050919050565b60006020820190508181036000830152611220816111e4565b9050919050565b600060408201905061123c6000830185610d00565b6112496020830184610bf2565b9392505050565b600081905092915050565b600061126682610e18565b6112708185611250565b9350611280818560208601610e34565b80840191505092915050565b6000611298828461125b565b915081905092915050565b6112ac81610dfd565b81146112b757600080fd5b50565b6000815190506112c9816112a3565b92915050565b6000602082840312156112e5576112e4610b85565b5b60006112f3848285016112ba565b91505092915050565b7f5341000000000000000000000000000000000000000000000000000000000000600082015250565b6000611332600283610f45565b915061133d826112fc565b602082019050919050565b6000602082019050818103600083015261136181611325565b9050919050565b600061137382610b8f565b915061137e83610b8f565b925082820261138c81610b8f565b915082820484148315176113a3576113a2611124565b5b5092915050565b60006060820190506113bf6000830186610d00565b6113cc6020830185610d00565b6113d96040830184610bf2565b949350505050565b7f5354460000000000000000000000000000000000000000000000000000000000600082015250565b6000611417600383610f45565b9150611422826113e1565b602082019050919050565b600060208201905081810360008301526114468161140a565b905091905056fea2646970667358221220ebb1af6dfedc80a9b6616a42a0e2d3e37a5073489ddf52ce2accdf07aa7ff98664736f6c63430008110033",
  "devdoc": {
    "kind": "dev",
    "methods": {},
    "version": 1
  },
  "userdoc": {
    "kind": "user",
    "methods": {},
    "version": 1
  },
  "storageLayout": {
    "storage": [
      {
        "astId": 358,
        "contract": "contracts/TradingBot.sol:TradingBot",
        "label": "s_ens",
        "offset": 0,
        "slot": "0",
        "type": "t_contract(ENSInterface)1032"
      },
      {
        "astId": 360,
        "contract": "contracts/TradingBot.sol:TradingBot",
        "label": "s_ensNode",
        "offset": 0,
        "slot": "1",
        "type": "t_bytes32"
      },
      {
        "astId": 363,
        "contract": "contracts/TradingBot.sol:TradingBot",
        "label": "s_link",
        "offset": 0,
        "slot": "2",
        "type": "t_contract(LinkTokenInterface)1127"
      },
      {
        "astId": 366,
        "contract": "contracts/TradingBot.sol:TradingBot",
        "label": "s_oracle",
        "offset": 0,
        "slot": "3",
        "type": "t_contract(OperatorInterface)1207"
      },
      {
        "astId": 369,
        "contract": "contracts/TradingBot.sol:TradingBot",
        "label": "s_requestCount",
        "offset": 0,
        "slot": "4",
        "type": "t_uint256"
      },
      {
        "astId": 373,
        "contract": "contracts/TradingBot.sol:TradingBot",
        "label": "s_pendingRequests",
        "offset": 0,
        "slot": "5",
        "type": "t_mapping(t_bytes32,t_address)"
      },
      {
        "astId": 2244,
        "contract": "contracts/TradingBot.sol:TradingBot",
        "label": "_status",
        "offset": 0,
        "slot": "6",
        "type": "t_uint256"
      },
      {
        "astId": 2665,
        "contract": "contracts/TradingBot.sol:TradingBot",
        "label": "s_counter",
        "offset": 0,
        "slot": "7",
        "type": "t_uint256"
      },
      {
        "astId": 2669,
        "contract": "contracts/TradingBot.sol:TradingBot",
        "label": "s_lastTimeStamp",
        "offset": 0,
        "slot": "8",
        "type": "t_uint256"
      },
      {
        "astId": 2680,
        "contract": "contracts/TradingBot.sol:TradingBot",
        "label": "s_stakingBalanceDAI",
        "offset": 0,
        "slot": "9",
        "type": "t_mapping(t_address,t_uint256)"
      }
    ],
    "types": {
      "t_address": {
        "encoding": "inplace",
        "label": "address",
        "numberOfBytes": "20"
      },
      "t_bytes32": {
        "encoding": "inplace",
        "label": "bytes32",
        "numberOfBytes": "32"
      },
      "t_contract(ENSInterface)1032": {
        "encoding": "inplace",
        "label": "contract ENSInterface",
        "numberOfBytes": "20"
      },
      "t_contract(LinkTokenInterface)1127": {
        "encoding": "inplace",
        "label": "contract LinkTokenInterface",
        "numberOfBytes": "20"
      },
      "t_contract(OperatorInterface)1207": {
        "encoding": "inplace",
        "label": "contract OperatorInterface",
        "numberOfBytes": "20"
      },
      "t_mapping(t_address,t_uint256)": {
        "encoding": "mapping",
        "key": "t_address",
        "label": "mapping(address => uint256)",
        "numberOfBytes": "32",
        "value": "t_uint256"
      },
      "t_mapping(t_bytes32,t_address)": {
        "encoding": "mapping",
        "key": "t_bytes32",
        "label": "mapping(bytes32 => address)",
        "numberOfBytes": "32",
        "value": "t_address"
      },
      "t_uint256": {
        "encoding": "inplace",
        "label": "uint256",
        "numberOfBytes": "32"
      }
    }
  }
}