{
  "address": "0x5585B89c9298E9de3f502997F8e988127a017512",
  "abi": [
    {
      "inputs": [
        {
          "internalType": "contract LinkTokenInterface",
          "name": "_link",
          "type": "address"
        },
        {
          "internalType": "address",
          "name": "_registrar",
          "type": "address"
        },
        {
          "internalType": "contract AutomationRegistryInterface",
          "name": "_registry",
          "type": "address"
        },
        {
          "internalType": "contract ISwapRouter",
          "name": "_swapRouter",
          "type": "address"
        },
        {
          "internalType": "address",
          "name": "_stakedToken",
          "type": "address"
        },
        {
          "internalType": "address",
          "name": "_tradedToken",
          "type": "address"
        },
        {
          "internalType": "address",
          "name": "_chainlinkOracle",
          "type": "address"
        },
        {
          "internalType": "bytes32",
          "name": "_getPriceJobId",
          "type": "bytes32"
        },
        {
          "internalType": "uint256",
          "name": "_getPriceFee",
          "type": "uint256"
        },
        {
          "internalType": "address",
          "name": "_truflationOracle",
          "type": "address"
        }
      ],
      "stateMutability": "nonpayable",
      "type": "constructor"
    },
    {
      "inputs": [],
      "name": "AutoApproveDisabled",
      "type": "error"
    },
    {
      "inputs": [
        {
          "internalType": "bytes32",
          "name": "requestId",
          "type": "bytes32"
        }
      ],
      "name": "NoCounterIDAssociated",
      "type": "error"
    },
    {
      "inputs": [
        {
          "internalType": "uint256",
          "name": "currentTimeStamp",
          "type": "uint256"
        },
        {
          "internalType": "uint256",
          "name": "lastTimeStamp",
          "type": "uint256"
        }
      ],
      "name": "UpkeepNotNeeded",
      "type": "error"
    },
    {
      "anonymous": false,
      "inputs": [
        {
          "indexed": true,
          "internalType": "bytes32",
          "name": "id",
          "type": "bytes32"
        }
      ],
      "name": "ChainlinkCancelled",
      "type": "event"
    },
    {
      "anonymous": false,
      "inputs": [
        {
          "indexed": true,
          "internalType": "bytes32",
          "name": "id",
          "type": "bytes32"
        }
      ],
      "name": "ChainlinkFulfilled",
      "type": "event"
    },
    {
      "anonymous": false,
      "inputs": [
        {
          "indexed": true,
          "internalType": "bytes32",
          "name": "id",
          "type": "bytes32"
        }
      ],
      "name": "ChainlinkRequested",
      "type": "event"
    },
    {
      "anonymous": false,
      "inputs": [
        {
          "indexed": false,
          "internalType": "string",
          "name": "url",
          "type": "string"
        }
      ],
      "name": "ConcatenatedURL",
      "type": "event"
    },
    {
      "anonymous": false,
      "inputs": [
        {
          "indexed": false,
          "internalType": "bytes32",
          "name": "requestId",
          "type": "bytes32"
        },
        {
          "indexed": false,
          "internalType": "uint256",
          "name": "price",
          "type": "uint256"
        }
      ],
      "name": "FullfillPrice",
      "type": "event"
    },
    {
      "anonymous": false,
      "inputs": [
        {
          "indexed": false,
          "internalType": "address",
          "name": "sender",
          "type": "address"
        },
        {
          "indexed": false,
          "internalType": "uint256",
          "name": "amountIn",
          "type": "uint256"
        },
        {
          "indexed": false,
          "internalType": "uint256",
          "name": "amountOutMinimum",
          "type": "uint256"
        }
      ],
      "name": "SwapTokensForTokens",
      "type": "event"
    },
    {
      "inputs": [
        {
          "internalType": "uint256",
          "name": "",
          "type": "uint256"
        }
      ],
      "name": "botIdToBotObj",
      "outputs": [
        {
          "internalType": "address",
          "name": "owner",
          "type": "address"
        },
        {
          "internalType": "uint256",
          "name": "orderInterval",
          "type": "uint256"
        },
        {
          "internalType": "uint256",
          "name": "orderSize",
          "type": "uint256"
        },
        {
          "internalType": "uint256",
          "name": "lastTimeStamp",
          "type": "uint256"
        },
        {
          "internalType": "uint256",
          "name": "counter",
          "type": "uint256"
        }
      ],
      "stateMutability": "view",
      "type": "function"
    },
    {
      "inputs": [
        {
          "internalType": "uint256",
          "name": "",
          "type": "uint256"
        }
      ],
      "name": "botIdToUpkeepId",
      "outputs": [
        {
          "internalType": "uint256",
          "name": "",
          "type": "uint256"
        }
      ],
      "stateMutability": "view",
      "type": "function"
    },
    {
      "inputs": [],
      "name": "cacheInterval",
      "outputs": [
        {
          "internalType": "uint256",
          "name": "",
          "type": "uint256"
        }
      ],
      "stateMutability": "view",
      "type": "function"
    },
    {
      "inputs": [
        {
          "internalType": "bytes",
          "name": "checkData",
          "type": "bytes"
        }
      ],
      "name": "checkUpkeep",
      "outputs": [
        {
          "internalType": "bool",
          "name": "upkeepNeeded",
          "type": "bool"
        },
        {
          "internalType": "bytes",
          "name": "performData",
          "type": "bytes"
        }
      ],
      "stateMutability": "view",
      "type": "function"
    },
    {
      "inputs": [
        {
          "internalType": "address",
          "name": "owner",
          "type": "address"
        },
        {
          "internalType": "uint256",
          "name": "orderInterval",
          "type": "uint256"
        },
        {
          "internalType": "uint256",
          "name": "orderSize",
          "type": "uint256"
        }
      ],
      "name": "createNewBotInstance",
      "outputs": [
        {
          "internalType": "uint256",
          "name": "",
          "type": "uint256"
        }
      ],
      "stateMutability": "nonpayable",
      "type": "function"
    },
    {
      "inputs": [],
      "name": "feeTier",
      "outputs": [
        {
          "internalType": "uint24",
          "name": "",
          "type": "uint24"
        }
      ],
      "stateMutability": "view",
      "type": "function"
    },
    {
      "inputs": [
        {
          "internalType": "bytes32",
          "name": "_requestId",
          "type": "bytes32"
        },
        {
          "internalType": "uint256",
          "name": "_price",
          "type": "uint256"
        }
      ],
      "name": "fulfillPrice",
      "outputs": [],
      "stateMutability": "nonpayable",
      "type": "function"
    },
    {
      "inputs": [
        {
          "internalType": "uint256",
          "name": "fundingAmount",
          "type": "uint256"
        }
      ],
      "name": "fund",
      "outputs": [],
      "stateMutability": "nonpayable",
      "type": "function"
    },
    {
      "inputs": [
        {
          "internalType": "address",
          "name": "",
          "type": "address"
        }
      ],
      "name": "fundingBalance",
      "outputs": [
        {
          "internalType": "uint256",
          "name": "",
          "type": "uint256"
        }
      ],
      "stateMutability": "view",
      "type": "function"
    },
    {
      "inputs": [],
      "name": "i_getPriceFee",
      "outputs": [
        {
          "internalType": "uint256",
          "name": "",
          "type": "uint256"
        }
      ],
      "stateMutability": "view",
      "type": "function"
    },
    {
      "inputs": [],
      "name": "i_getPriceJobId",
      "outputs": [
        {
          "internalType": "bytes32",
          "name": "",
          "type": "bytes32"
        }
      ],
      "stateMutability": "view",
      "type": "function"
    },
    {
      "inputs": [],
      "name": "i_link",
      "outputs": [
        {
          "internalType": "contract LinkTokenInterface",
          "name": "",
          "type": "address"
        }
      ],
      "stateMutability": "view",
      "type": "function"
    },
    {
      "inputs": [],
      "name": "i_registrar",
      "outputs": [
        {
          "internalType": "address",
          "name": "",
          "type": "address"
        }
      ],
      "stateMutability": "view",
      "type": "function"
    },
    {
      "inputs": [],
      "name": "i_registry",
      "outputs": [
        {
          "internalType": "contract AutomationRegistryInterface",
          "name": "",
          "type": "address"
        }
      ],
      "stateMutability": "view",
      "type": "function"
    },
    {
      "inputs": [],
      "name": "i_stakedToken",
      "outputs": [
        {
          "internalType": "address",
          "name": "",
          "type": "address"
        }
      ],
      "stateMutability": "view",
      "type": "function"
    },
    {
      "inputs": [],
      "name": "i_stakedTokenSymbol",
      "outputs": [
        {
          "internalType": "bytes32",
          "name": "",
          "type": "bytes32"
        }
      ],
      "stateMutability": "view",
      "type": "function"
    },
    {
      "inputs": [],
      "name": "i_swapRouter",
      "outputs": [
        {
          "internalType": "contract ISwapRouter",
          "name": "",
          "type": "address"
        }
      ],
      "stateMutability": "view",
      "type": "function"
    },
    {
      "inputs": [],
      "name": "i_tradedToken",
      "outputs": [
        {
          "internalType": "address",
          "name": "",
          "type": "address"
        }
      ],
      "stateMutability": "view",
      "type": "function"
    },
    {
      "inputs": [],
      "name": "i_tradedTokenSymbol",
      "outputs": [
        {
          "internalType": "bytes32",
          "name": "",
          "type": "bytes32"
        }
      ],
      "stateMutability": "view",
      "type": "function"
    },
    {
      "inputs": [],
      "name": "i_truflationOracle",
      "outputs": [
        {
          "internalType": "address",
          "name": "",
          "type": "address"
        }
      ],
      "stateMutability": "view",
      "type": "function"
    },
    {
      "inputs": [
        {
          "internalType": "bytes",
          "name": "performData",
          "type": "bytes"
        }
      ],
      "name": "performUpkeep",
      "outputs": [],
      "stateMutability": "nonpayable",
      "type": "function"
    },
    {
      "inputs": [
        {
          "internalType": "string",
          "name": "name",
          "type": "string"
        },
        {
          "internalType": "uint32",
          "name": "gasLimit",
          "type": "uint32"
        },
        {
          "internalType": "uint96",
          "name": "fundingAmount",
          "type": "uint96"
        },
        {
          "internalType": "uint256",
          "name": "orderInterval",
          "type": "uint256"
        },
        {
          "internalType": "uint256",
          "name": "orderSize",
          "type": "uint256"
        }
      ],
      "name": "registerNewAutomation",
      "outputs": [],
      "stateMutability": "nonpayable",
      "type": "function"
    },
    {
      "inputs": [
        {
          "internalType": "bytes32",
          "name": "",
          "type": "bytes32"
        }
      ],
      "name": "requestIdToBotId",
      "outputs": [
        {
          "internalType": "uint256",
          "name": "",
          "type": "uint256"
        }
      ],
      "stateMutability": "view",
      "type": "function"
    },
    {
      "inputs": [
        {
          "internalType": "uint256",
          "name": "botId",
          "type": "uint256"
        }
      ],
      "name": "requestPriceAndSwapToken",
      "outputs": [
        {
          "internalType": "bytes32",
          "name": "requestId",
          "type": "bytes32"
        }
      ],
      "stateMutability": "nonpayable",
      "type": "function"
    },
    {
      "inputs": [
        {
          "internalType": "uint256",
          "name": "stakingAmount",
          "type": "uint256"
        }
      ],
      "name": "stake",
      "outputs": [],
      "stateMutability": "nonpayable",
      "type": "function"
    },
    {
      "inputs": [
        {
          "internalType": "address",
          "name": "",
          "type": "address"
        }
      ],
      "name": "stakingBalance",
      "outputs": [
        {
          "internalType": "uint256",
          "name": "",
          "type": "uint256"
        }
      ],
      "stateMutability": "view",
      "type": "function"
    },
    {
      "inputs": [],
      "name": "swapSlippage",
      "outputs": [
        {
          "internalType": "uint8",
          "name": "",
          "type": "uint8"
        }
      ],
      "stateMutability": "view",
      "type": "function"
    },
    {
      "inputs": [
        {
          "internalType": "address",
          "name": "receiver",
          "type": "address"
        },
        {
          "internalType": "uint256",
          "name": "amountIn",
          "type": "uint256"
        },
        {
          "internalType": "uint256",
          "name": "amountOutMinimum",
          "type": "uint256"
        }
      ],
      "name": "swapTokensForTokens",
      "outputs": [],
      "stateMutability": "nonpayable",
      "type": "function"
    },
    {
      "inputs": [
        {
          "internalType": "address",
          "name": "",
          "type": "address"
        }
      ],
      "name": "tradingBalance",
      "outputs": [
        {
          "internalType": "uint256",
          "name": "",
          "type": "uint256"
        }
      ],
      "stateMutability": "view",
      "type": "function"
    },
    {
      "inputs": [],
      "name": "unstake",
      "outputs": [],
      "stateMutability": "nonpayable",
      "type": "function"
    },
    {
      "inputs": [],
      "name": "withdrawFunds",
      "outputs": [],
      "stateMutability": "nonpayable",
      "type": "function"
    }
  ],
  "transactionHash": "0x40e7bbc63089eceb63482f845ee4d210891b71e544c7695db8b934c2d26c5fc4",
  "args": [
    "0x326C977E6efc84E512bB9C30f76E30c160eD06FB",
    "0x9806cf6fBc89aBF286e8140C42174B94836e36F2",
    "0x02777053d6764996e594c3E88AF1D58D5363a2e6",
    "0xE592427A0AEce92De3Edee1F18E0157C05861564",
    "0xB4FBF271143F4FBf7B91A5ded31805e42b2208d6",
    "0x1f9840a85d5aF5bf1D1762F925BDADdC4201F984",
    "0xD189e75a64989E4d2cDBAefcDDB4BD931e299121",
    "0x3839613362646238626464623433303861336633336233666432313564613035",
    "100000000000000000",
    "0x0F7C4A8D7e911E6A6d0b3aAAB6a833601ccE65cC"
  ],
  "numDeployments": 3,
  "solcInputHash": "73552d98479fca28dcf7d74a69763ebc",
  "bytecode": "0x6101c06040526001600555633659d66660e01b600b60006101000a81548163ffffffff021916908360e01c02179055503480156200003c57600080fd5b5060405162005c5338038062005c538339818101604052810190620000629190620005b8565b60016000819055508973ffffffffffffffffffffffffffffffffffffffff1660808173ffffffffffffffffffffffffffffffffffffffff16815250508873ffffffffffffffffffffffffffffffffffffffff1660a08173ffffffffffffffffffffffffffffffffffffffff16815250508773ffffffffffffffffffffffffffffffffffffffff1660c08173ffffffffffffffffffffffffffffffffffffffff16815250508673ffffffffffffffffffffffffffffffffffffffff1660e08173ffffffffffffffffffffffffffffffffffffffff16815250508573ffffffffffffffffffffffffffffffffffffffff166101008173ffffffffffffffffffffffffffffffffffffffff16815250508473ffffffffffffffffffffffffffffffffffffffff166101208173ffffffffffffffffffffffffffffffffffffffff16815250506200022b8673ffffffffffffffffffffffffffffffffffffffff166395d89b416040518163ffffffff1660e01b8152600401600060405180830381865afa158015620001f4573d6000803e3d6000fd5b505050506040513d6000823e3d601f19601f820116820180604052508101906200021f91906200082d565b6200034760201b60201c565b6101408181525050620002ba8573ffffffffffffffffffffffffffffffffffffffff166395d89b416040518163ffffffff1660e01b8152600401600060405180830381865afa15801562000283573d6000803e3d6000fd5b505050506040513d6000823e3d601f19601f82011682018060405250810190620002ae91906200082d565b6200034760201b60201c565b6101608181525050620002d38a6200037260201b60201c565b620002e484620003b660201b60201c565b826101808181525050816101a0818152505080600f60006101000a81548173ffffffffffffffffffffffffffffffffffffffff021916908373ffffffffffffffffffffffffffffffffffffffff160217905550505050505050505050506200087e565b600080829050600081510362000364576000801b9150506200036d565b60208301519150505b919050565b80600360006101000a81548173ffffffffffffffffffffffffffffffffffffffff021916908373ffffffffffffffffffffffffffffffffffffffff16021790555050565b80600460006101000a81548173ffffffffffffffffffffffffffffffffffffffff021916908373ffffffffffffffffffffffffffffffffffffffff16021790555050565b6000604051905090565b600080fd5b600080fd5b600073ffffffffffffffffffffffffffffffffffffffff82169050919050565b60006200043b826200040e565b9050919050565b60006200044f826200042e565b9050919050565b620004618162000442565b81146200046d57600080fd5b50565b600081519050620004818162000456565b92915050565b62000492816200042e565b81146200049e57600080fd5b50565b600081519050620004b28162000487565b92915050565b6000620004c5826200042e565b9050919050565b620004d781620004b8565b8114620004e357600080fd5b50565b600081519050620004f781620004cc565b92915050565b60006200050a826200042e565b9050919050565b6200051c81620004fd565b81146200052857600080fd5b50565b6000815190506200053c8162000511565b92915050565b6000819050919050565b620005578162000542565b81146200056357600080fd5b50565b60008151905062000577816200054c565b92915050565b6000819050919050565b62000592816200057d565b81146200059e57600080fd5b50565b600081519050620005b28162000587565b92915050565b6000806000806000806000806000806101408b8d031215620005df57620005de62000404565b5b6000620005ef8d828e0162000470565b9a50506020620006028d828e01620004a1565b9950506040620006158d828e01620004e6565b9850506060620006288d828e016200052b565b97505060806200063b8d828e01620004a1565b96505060a06200064e8d828e01620004a1565b95505060c0620006618d828e01620004a1565b94505060e0620006748d828e0162000566565b935050610100620006888d828e01620005a1565b9250506101206200069c8d828e01620004a1565b9150509295989b9194979a5092959850565b600080fd5b600080fd5b6000601f19601f8301169050919050565b7f4e487b7100000000000000000000000000000000000000000000000000000000600052604160045260246000fd5b6200070382620006b8565b810181811067ffffffffffffffff82111715620007255762000724620006c9565b5b80604052505050565b60006200073a620003fa565b9050620007488282620006f8565b919050565b600067ffffffffffffffff8211156200076b576200076a620006c9565b5b6200077682620006b8565b9050602081019050919050565b60005b83811015620007a357808201518184015260208101905062000786565b60008484015250505050565b6000620007c6620007c0846200074d565b6200072e565b905082815260208101848484011115620007e557620007e4620006b3565b5b620007f284828562000783565b509392505050565b600082601f830112620008125762000811620006ae565b5b815162000824848260208601620007af565b91505092915050565b60006020828403121562000846576200084562000404565b5b600082015167ffffffffffffffff81111562000867576200086662000409565b5b6200087584828501620007fa565b91505092915050565b60805160a05160c05160e05161010051610120516101405161016051610180516101a0516152d46200097f60003960008181610a6e015261153c0152600081816113df01526115840152600081816113b20152611c240152600081816113850152611c48015260008181610a260152611e3c0152600081816109cf01528181610a0201528181611ae401528181611daa0152611e00015260008181610de201528181611dcb0152611ed201526000818161088f01528181610ff9015281816111f901526112cb015260008181610a4a015261114401526000818161074801528181610bd401528181611108015281816115a80152611cb201526152d46000f3fe608060405234801561001057600080fd5b50600436106101e55760003560e01c80637080bf471161010f578063a694fc3a116100a2578063ac8fda1011610071578063ac8fda101461058b578063b48c423b146105a9578063ca1d209d146105c7578063f3b4a67f146105e3576101e5565b8063a694fc3a146104db578063a776fb94146104f7578063aa0ff6801461052b578063ab4578751461055b576101e5565b80637d253aff116100de5780637d253aff146104415780638cdec8221461045f5780638d2a648d1461048f57806390c66660146104ab576101e5565b80637080bf47146103b957806372f5d98a146103d55780637556dfd3146103f357806379851a3414610423576101e5565b806339b394061161018757806345bc78ab1161015657806345bc78ab1461031c57806358fb80541461034c5780635a2b81f51461036a5780636e04ff0d14610388576101e5565b806339b39406146102a6578063442b1278146102c457806345150973146102e25780634585e33b14610300576101e5565b80632a46046a116101c35780632a46046a146102305780632a663606146102605780632def66201461027e5780632e276ffd14610288576101e5565b8063081f4c31146101ea5780631aedeabe1461020857806324600fc314610226575b600080fd5b6101f26105ff565b6040516101ff9190613278565b60405180910390f35b610210610625565b60405161021d91906132af565b60405180910390f35b61022e61062a565b005b61024a60048036038101906102459190613340565b610779565b60405161025791906133a2565b60405180910390f35b61026861088d565b604051610275919061341c565b60405180910390f35b6102866108b1565b005b610290610a00565b60405161029d9190613278565b60405180910390f35b6102ae610a24565b6040516102bb9190613278565b60405180910390f35b6102cc610a48565b6040516102d99190613278565b60405180910390f35b6102ea610a6c565b6040516102f791906133a2565b60405180910390f35b61031a6004803603810190610315919061349c565b610a90565b005b610336600480360381019061033191906134e9565b610dc8565b60405161034391906133a2565b60405180910390f35b610354610de0565b6040516103619190613537565b60405180910390f35b610372610e04565b60405161037f91906133a2565b60405180910390f35b6103a2600480360381019061039d919061349c565b610e0b565b6040516103b09291906135fd565b60405180910390f35b6103d360048036038101906103ce91906137dd565b610e7c565b005b6103dd611377565b6040516103ea9190613892565b60405180910390f35b61040d600480360381019061040891906138ad565b61137d565b60405161041a91906138f3565b60405180910390f35b61042b611582565b60405161043891906138f3565b60405180910390f35b6104496115a6565b604051610456919061392f565b60405180910390f35b61047960048036038101906104749190613976565b6115ca565b60405161048691906133a2565b60405180910390f35b6104a960048036038101906104a491906139a3565b6115e2565b005b6104c560048036038101906104c091906138ad565b611a84565b6040516104d291906133a2565b60405180910390f35b6104f560048036038101906104f091906138ad565b611a9c565b005b610511600480360381019061050c91906138ad565b611b9c565b6040516105229594939291906139e3565b60405180910390f35b610545600480360381019061054091906134e9565b611bf2565b60405161055291906133a2565b60405180910390f35b610575600480360381019061057091906134e9565b611c0a565b60405161058291906133a2565b60405180910390f35b610593611c22565b6040516105a091906138f3565b60405180910390f35b6105b1611c46565b6040516105be91906138f3565b60405180910390f35b6105e160048036038101906105dc91906138ad565b611c6a565b005b6105fd60048036038101906105f89190613340565b611d6a565b005b600f60009054906101000a900473ffffffffffffffffffffffffffffffffffffffff1681565b600a81565b60026000540361066f576040517f08c379a000000000000000000000000000000000000000000000000000000000815260040161066690613a93565b60405180910390fd5b60026000819055506000600e60003373ffffffffffffffffffffffffffffffffffffffff1673ffffffffffffffffffffffffffffffffffffffff168152602001908152602001600020549050600081116106fe576040517f08c379a00000000000000000000000000000000000000000000000000000000081526004016106f590613b25565b60405180910390fd5b6000600e60003373ffffffffffffffffffffffffffffffffffffffff1673ffffffffffffffffffffffffffffffffffffffff1681526020019081526020016000208190555061076e7f00000000000000000000000000000000000000000000000000000000000000003383612091565b506001600081905550565b60008061078660076121e6565b905061079260076121f4565b61079a61316b565b85816000019073ffffffffffffffffffffffffffffffffffffffff16908173ffffffffffffffffffffffffffffffffffffffff16815250508481602001818152505083816040018181525050428160600181815250506000816080018181525050806008600084815260200190815260200160002060008201518160000160006101000a81548173ffffffffffffffffffffffffffffffffffffffff021916908373ffffffffffffffffffffffffffffffffffffffff1602179055506020820151816001015560408201518160020155606082015181600301556080820151816004015590505081925050509392505050565b7f000000000000000000000000000000000000000000000000000000000000000081565b6002600054036108f6576040517f08c379a00000000000000000000000000000000000000000000000000000000081526004016108ed90613a93565b60405180910390fd5b60026000819055506000600c60003373ffffffffffffffffffffffffffffffffffffffff1673ffffffffffffffffffffffffffffffffffffffff16815260200190815260200160002054905060008111610985576040517f08c379a000000000000000000000000000000000000000000000000000000000815260040161097c90613bb7565b60405180910390fd5b6000600c60003373ffffffffffffffffffffffffffffffffffffffff1673ffffffffffffffffffffffffffffffffffffffff168152602001908152602001600020819055506109f57f00000000000000000000000000000000000000000000000000000000000000003383612091565b506001600081905550565b7f000000000000000000000000000000000000000000000000000000000000000081565b7f000000000000000000000000000000000000000000000000000000000000000081565b7f000000000000000000000000000000000000000000000000000000000000000081565b7f000000000000000000000000000000000000000000000000000000000000000081565b60008282810190610aa191906138ad565b90506000600860008381526020019081526020016000209050610ac38261220a565b610b0a574281600301546040517fa7586210000000000000000000000000000000000000000000000000000000008152600401610b01929190613bd7565b60405180910390fd5b42816003018190555060018160040154610b249190613c2f565b816004018190555062015180600f60009054906101000a900473ffffffffffffffffffffffffffffffffffffffff1673ffffffffffffffffffffffffffffffffffffffff16633f3b3b276040518163ffffffff1660e01b8152600401602060405180830381865afa158015610b9d573d6000803e3d6000fd5b505050506040513d601f19601f82011682018060405250810190610bc19190613c78565b42610bcc9190613ca5565b1115610db8577f000000000000000000000000000000000000000000000000000000000000000073ffffffffffffffffffffffffffffffffffffffff1663095ea7b3600f60009054906101000a900473ffffffffffffffffffffffffffffffffffffffff16600f60009054906101000a900473ffffffffffffffffffffffffffffffffffffffff1673ffffffffffffffffffffffffffffffffffffffff1663ddca3f436040518163ffffffff1660e01b8152600401602060405180830381865afa158015610c9e573d6000803e3d6000fd5b505050506040513d601f19601f82011682018060405250810190610cc29190613c78565b6040518363ffffffff1660e01b8152600401610cdf929190613cd9565b6020604051808303816000875af1158015610cfe573d6000803e3d6000fd5b505050506040513d601f19601f82011682018060405250810190610d229190613d2e565b50600f60009054906101000a900473ffffffffffffffffffffffffffffffffffffffff1673ffffffffffffffffffffffffffffffffffffffff16639e1c5f1e6040518163ffffffff1660e01b81526004016020604051808303816000875af1158015610d92573d6000803e3d6000fd5b505050506040513d601f19601f82011682018060405250810190610db69190613d70565b505b610dc18261137d565b5050505050565b600c6020528060005260406000206000915090505481565b7f000000000000000000000000000000000000000000000000000000000000000081565b6201518081565b6000606060008484810190610e2091906138ad565b9050610e2b8161220a565b925084848080601f016020809104026020016040519081016040528093929190818152602001838380828437600081840152601f19601f820116905080830192505050505050509150509250929050565b674563918244f40000836bffffffffffffffffffffffff161015610ed5576040517f08c379a0000000000000000000000000000000000000000000000000000000008152600401610ecc90613de9565b60405180910390fd5b603c821015610f19576040517f08c379a0000000000000000000000000000000000000000000000000000000008152600401610f1090613e7b565b60405180910390fd5b655af3107a4000811015610f62576040517f08c379a0000000000000000000000000000000000000000000000000000000008152600401610f5990613f0d565b60405180910390fd5b826bffffffffffffffffffffffff16600e60003373ffffffffffffffffffffffffffffffffffffffff1673ffffffffffffffffffffffffffffffffffffffff168152602001908152602001600020541015610ff2576040517f08c379a0000000000000000000000000000000000000000000000000000000008152600401610fe990613f9f565b60405180910390fd5b60008060007f000000000000000000000000000000000000000000000000000000000000000073ffffffffffffffffffffffffffffffffffffffff16631865c57d6040518163ffffffff1660e01b8152600401600060405180830381865afa158015611062573d6000803e3d6000fd5b505050506040513d6000823e3d601f19601f8201168201806040525081019061108b91906142c6565b9250925092506000836000015163ffffffff16905060006110ad338888610779565b90506000816040516020016110c29190614358565b604051602081830303815290604052905060008b308c33858e6000306040516020016110f598979695949392919061445c565b60405160208183030381529060405290507f000000000000000000000000000000000000000000000000000000000000000073ffffffffffffffffffffffffffffffffffffffff16634000aea07f00000000000000000000000000000000000000000000000000000000000000008c600b60009054906101000a900460e01b85604051602001611186929190614585565b6040516020818303038152906040526040518463ffffffff1660e01b81526004016111b3939291906145de565b6020604051808303816000875af11580156111d2573d6000803e3d6000fd5b505050506040513d601f19601f820116820180604052508101906111f69190613d2e565b507f000000000000000000000000000000000000000000000000000000000000000073ffffffffffffffffffffffffffffffffffffffff16631865c57d6040518163ffffffff1660e01b8152600401600060405180830381865afa158015611262573d6000803e3d6000fd5b505050506040513d6000823e3d601f19601f8201168201806040525081019061128b91906142c6565b8097508198508299505050506000876000015163ffffffff1690506001856112b39190613c2f565b81036113365760006001436112c89190613ca5565b407f0000000000000000000000000000000000000000000000000000000000000000876040516020016112fd939291906146bb565b6040516020818303038152906040528051906020012060001c905080600960008781526020019081526020016000208190555050611368565b6040517f6874c3d400000000000000000000000000000000000000000000000000000000815260040160405180910390fd5b50505050505050505050505050565b610bb881565b6000806113a97f0000000000000000000000000000000000000000000000000000000000000000612324565b905060006113d67f0000000000000000000000000000000000000000000000000000000000000000612324565b9050600061140c7f000000000000000000000000000000000000000000000000000000000000000030638d2a648d60e01b6124bf565b90506114796040518060400160405280600381526020017f6765740000000000000000000000000000000000000000000000000000000000815250848460405160200161145a92919061483e565b604051602081830303815290604052836124f09092919063ffffffff16565b6114e46040518060400160405280600481526020017f706174680000000000000000000000000000000000000000000000000000000081525084846040516020016114c5929190614967565b604051602081830303815290604052836124f09092919063ffffffff16565b6115366040518060400160405280600581526020017f74696d6573000000000000000000000000000000000000000000000000000000815250670de0b6b3a7640000836125239092919063ffffffff16565b611560817f0000000000000000000000000000000000000000000000000000000000000000612556565b935084600a600086815260200190815260200160002081905550505050919050565b7f000000000000000000000000000000000000000000000000000000000000000081565b7f000000000000000000000000000000000000000000000000000000000000000081565b600a6020528060005260406000206000915090505481565b816006600082815260200190815260200160002060009054906101000a900473ffffffffffffffffffffffffffffffffffffffff1673ffffffffffffffffffffffffffffffffffffffff163373ffffffffffffffffffffffffffffffffffffffff1614611684576040517f08c379a000000000000000000000000000000000000000000000000000000000815260040161167b90614a1e565b60405180910390fd5b6006600082815260200190815260200160002060006101000a81549073ffffffffffffffffffffffffffffffffffffffff0219169055807f7cc135e0cebb02c3480ae5d74d377283180a2601f8f644edf7987b009316c63a60405160405180910390a27fb96e12cc3e842b19473cb569fb361ed37ce916cd6870f81d591b73828908964c8383604051611718929190614a3e565b60405180910390a16000600a60008581526020019081526020016000205490506000600860008381526020019081526020016000206040518060a00160405290816000820160009054906101000a900473ffffffffffffffffffffffffffffffffffffffff1673ffffffffffffffffffffffffffffffffffffffff1673ffffffffffffffffffffffffffffffffffffffff1681526020016001820154815260200160028201548152602001600382015481526020016004820154815250509050600081604001510361182157846040517f5d544bc200000000000000000000000000000000000000000000000000000000815260040161181891906138f3565b60405180910390fd5b6000670de0b6b3a764000082604001518661183c9190614a67565b6118469190614ad8565b905060006064600a60ff168361185c9190614a67565b6118669190614ad8565b826118719190613ca5565b90506000600f60009054906101000a900473ffffffffffffffffffffffffffffffffffffffff1673ffffffffffffffffffffffffffffffffffffffff1663be0522e06040518163ffffffff1660e01b8152600401602060405180830381865afa1580156118e2573d6000803e3d6000fd5b505050506040513d601f19601f820116820180604052508101906119069190614b3f565b90506000808213801561192157506802b5e3af16b188000082125b156119605768056bc75e2d631000008286604001516119409190614a67565b61194a9190614ad8565b85604001516119599190613c2f565b90506119d7565b60008212801561198f57507ffffffffffffffffffffffffffffffffffffffffffffffffd4a1c50e94e78000082135b156119ce5768056bc75e2d631000008286604001516119ae9190614a67565b6119b89190614ad8565b85604001516119c79190613ca5565b90506119d6565b846040015190505b5b80600c6000876000015173ffffffffffffffffffffffffffffffffffffffff1673ffffffffffffffffffffffffffffffffffffffff168152602001908152602001600020541015611a6957600c6000866000015173ffffffffffffffffffffffffffffffffffffffff1673ffffffffffffffffffffffffffffffffffffffff1681526020019081526020016000205490505b611a798560000151826000611d6a565b505050505050505050565b60096020528060005260406000206000915090505481565b60008111611adf576040517f08c379a0000000000000000000000000000000000000000000000000000000008152600401611ad690614bb8565b60405180910390fd5b611b0b7f000000000000000000000000000000000000000000000000000000000000000033308461258d565b80600c60003373ffffffffffffffffffffffffffffffffffffffff1673ffffffffffffffffffffffffffffffffffffffff16815260200190815260200160002054611b569190613c2f565b600c60003373ffffffffffffffffffffffffffffffffffffffff1673ffffffffffffffffffffffffffffffffffffffff1681526020019081526020016000208190555050565b60086020528060005260406000206000915090508060000160009054906101000a900473ffffffffffffffffffffffffffffffffffffffff16908060010154908060020154908060030154908060040154905085565b600e6020528060005260406000206000915090505481565b600d6020528060005260406000206000915090505481565b7f000000000000000000000000000000000000000000000000000000000000000081565b7f000000000000000000000000000000000000000000000000000000000000000081565b60008111611cad576040517f08c379a0000000000000000000000000000000000000000000000000000000008152600401611ca490614bb8565b60405180910390fd5b611cd97f000000000000000000000000000000000000000000000000000000000000000033308461258d565b80600e60003373ffffffffffffffffffffffffffffffffffffffff1673ffffffffffffffffffffffffffffffffffffffff16815260200190815260200160002054611d249190613c2f565b600e60003373ffffffffffffffffffffffffffffffffffffffff1673ffffffffffffffffffffffffffffffffffffffff1681526020019081526020016000208190555050565b7ff4ec58065cfc6a2c8ef3beb140ad8d5a657958bf8a1ddd9ba948db8c8a1f21aa838383604051611d9d93929190614bd8565b60405180910390a1611df07f00000000000000000000000000000000000000000000000000000000000000007f0000000000000000000000000000000000000000000000000000000000000000846126e5565b60006040518061010001604052807f000000000000000000000000000000000000000000000000000000000000000073ffffffffffffffffffffffffffffffffffffffff1681526020017f000000000000000000000000000000000000000000000000000000000000000073ffffffffffffffffffffffffffffffffffffffff168152602001610bb862ffffff1681526020018573ffffffffffffffffffffffffffffffffffffffff168152602001428152602001848152602001838152602001600073ffffffffffffffffffffffffffffffffffffffff16815250905060007f000000000000000000000000000000000000000000000000000000000000000073ffffffffffffffffffffffffffffffffffffffff1663414bf389836040518263ffffffff1660e01b8152600401611f299190614ced565b6020604051808303816000875af1158015611f48573d6000803e3d6000fd5b505050506040513d601f19601f82011682018060405250810190611f6c9190613c78565b905083600c60008773ffffffffffffffffffffffffffffffffffffffff1673ffffffffffffffffffffffffffffffffffffffff16815260200190815260200160002054611fb99190613ca5565b600c60008773ffffffffffffffffffffffffffffffffffffffff1673ffffffffffffffffffffffffffffffffffffffff1681526020019081526020016000208190555080600d60008773ffffffffffffffffffffffffffffffffffffffff1673ffffffffffffffffffffffffffffffffffffffff168152602001908152602001600020546120479190613c2f565b600d60008773ffffffffffffffffffffffffffffffffffffffff1673ffffffffffffffffffffffffffffffffffffffff168152602001908152602001600020819055505050505050565b6000808473ffffffffffffffffffffffffffffffffffffffff1663a9059cbb60e01b85856040516024016120c6929190613cd9565b604051602081830303815290604052907bffffffffffffffffffffffffffffffffffffffffffffffffffffffff19166020820180517bffffffffffffffffffffffffffffffffffffffffffffffffffffffff83818316178352505050506040516121309190614d09565b6000604051808303816000865af19150503d806000811461216d576040519150601f19603f3d011682016040523d82523d6000602084013e612172565b606091505b50915091508180156121a0575060008151148061219f57508080602001905181019061219e9190613d2e565b5b5b6121df576040517f08c379a00000000000000000000000000000000000000000000000000000000081526004016121d690614d6c565b60405180910390fd5b5050505050565b600081600001549050919050565b6001816000016000828254019250508190555050565b600080600860008481526020019081526020016000206040518060a00160405290816000820160009054906101000a900473ffffffffffffffffffffffffffffffffffffffff1673ffffffffffffffffffffffffffffffffffffffff1673ffffffffffffffffffffffffffffffffffffffff1681526020016001820154815260200160028201548152602001600382015481526020016004820154815250509050600081602001518260600151426122c29190613ca5565b119050600080600c6000856000015173ffffffffffffffffffffffffffffffffffffffff1673ffffffffffffffffffffffffffffffffffffffff1681526020019081526020016000205414905081801561231a575080155b9350505050919050565b606060005b60208160ff1610801561237b5750600060f81b838260ff166020811061235257612351614d8c565b5b1a60f81b7effffffffffffffffffffffffffffffffffffffffffffffffffffffffffffff191614155b1561239357808061238b90614dbb565b915050612329565b60008160ff1667ffffffffffffffff8111156123b2576123b1613632565b5b6040519080825280601f01601f1916602001820160405280156123e45781602001600182028036833780820191505090505b509050600091505b60208260ff1610801561243e5750600060f81b848360ff166020811061241557612414614d8c565b5b1a60f81b7effffffffffffffffffffffffffffffffffffffffffffffffffffffffffffff191614155b156124b557838260ff166020811061245957612458614d8c565b5b1a60f81b818360ff168151811061247357612472614d8c565b5b60200101907effffffffffffffffffffffffffffffffffffffffffffffffffffffffffffff1916908160001a90535081806124ad90614dbb565b9250506123ec565b8092505050919050565b6124c76131b0565b6124cf6131b0565b6124e68585858461283a909392919063ffffffff16565b9150509392505050565b6125078284608001516128ea90919063ffffffff16565b61251e8184608001516128ea90919063ffffffff16565b505050565b61253a8284608001516128ea90919063ffffffff16565b61255181846080015161290f90919063ffffffff16565b505050565b6000612585600460009054906101000a900473ffffffffffffffffffffffffffffffffffffffff1684846129bc565b905092915050565b6000808573ffffffffffffffffffffffffffffffffffffffff166323b872dd60e01b8686866040516024016125c493929190614de4565b604051602081830303815290604052907bffffffffffffffffffffffffffffffffffffffffffffffffffffffff19166020820180517bffffffffffffffffffffffffffffffffffffffffffffffffffffffff838183161783525050505060405161262e9190614d09565b6000604051808303816000865af19150503d806000811461266b576040519150601f19603f3d011682016040523d82523d6000602084013e612670565b606091505b509150915081801561269e575060008151148061269d57508080602001905181019061269c9190613d2e565b5b5b6126dd576040517f08c379a00000000000000000000000000000000000000000000000000000000081526004016126d490614e67565b60405180910390fd5b505050505050565b6000808473ffffffffffffffffffffffffffffffffffffffff1663095ea7b360e01b858560405160240161271a929190613cd9565b604051602081830303815290604052907bffffffffffffffffffffffffffffffffffffffffffffffffffffffff19166020820180517bffffffffffffffffffffffffffffffffffffffffffffffffffffffff83818316178352505050506040516127849190614d09565b6000604051808303816000865af19150503d80600081146127c1576040519150601f19603f3d011682016040523d82523d6000602084013e6127c6565b606091505b50915091508180156127f457506000815114806127f35750808060200190518101906127f29190613d2e565b5b5b612833576040517f08c379a000000000000000000000000000000000000000000000000000000000815260040161282a90614ed3565b60405180910390fd5b5050505050565b6128426131b0565b6128528560800151610100612a88565b508385600001818152505082856020019073ffffffffffffffffffffffffffffffffffffffff16908173ffffffffffffffffffffffffffffffffffffffff16815250508185604001907bffffffffffffffffffffffffffffffffffffffffffffffffffffffff191690817bffffffffffffffffffffffffffffffffffffffffffffffffffffffff191681525050849050949350505050565b6128f78260038351612af2565b61290a8183612c7790919063ffffffff16565b505050565b7fffffffffffffffffffffffffffffffffffffffffffffffff0000000000000000811215612946576129418282612c99565b6129b8565b67ffffffffffffffff811315612965576129608282612d10565b6129b7565b6000811261297e5761297982600083612af2565b6129b6565b6129b5826001837fffffffffffffffffffffffffffffffffffffffffffffffffffffffffffffffff6129b09190614ef3565b612af2565b5b5b5b5050565b60008060055490506001816129d19190613c2f565b6005819055506000634042994660e01b60008087600001513089604001518760018c6080015160000151604051602401612a12989796959493929190614f45565b604051602081830303815290604052907bffffffffffffffffffffffffffffffffffffffffffffffffffffffff19166020820180517bffffffffffffffffffffffffffffffffffffffffffffffffffffffff83818316178352505050509050612a7d86838684612d5c565b925050509392505050565b612a9061321d565b6000602083612a9f9190614fca565b14612acb57602082612ab19190614fca565b6020612abd9190613ca5565b82612ac89190613c2f565b91505b81836020018181525050604051808452600081528281016020016040525082905092915050565b60178167ffffffffffffffff1611612b2957612b238160058460ff16901b60ff161784612ef190919063ffffffff16565b50612c72565b60ff8167ffffffffffffffff1611612b7f57612b58601860058460ff16901b1784612ef190919063ffffffff16565b50612b798167ffffffffffffffff16600185612f119092919063ffffffff16565b50612c71565b61ffff8167ffffffffffffffff1611612bd657612baf601960058460ff16901b1784612ef190919063ffffffff16565b50612bd08167ffffffffffffffff16600285612f119092919063ffffffff16565b50612c70565b63ffffffff8167ffffffffffffffff1611612c2f57612c08601a60058460ff16901b1784612ef190919063ffffffff16565b50612c298167ffffffffffffffff16600485612f119092919063ffffffff16565b50612c6f565b612c4c601b60058460ff16901b1784612ef190919063ffffffff16565b50612c6d8167ffffffffffffffff16600885612f119092919063ffffffff16565b505b5b5b5b505050565b612c7f61321d565b612c9183846000015151848551612f33565b905092915050565b612cb760036005600660ff16901b1783612ef190919063ffffffff16565b50612d0c82827fffffffffffffffffffffffffffffffffffffffffffffffffffffffffffffffff612ce89190614ef3565b604051602001612cf891906133a2565b604051602081830303815290604052613022565b5050565b612d2e60026005600660ff16901b1783612ef190919063ffffffff16565b50612d588282604051602001612d4491906133a2565b604051602081830303815290604052613022565b5050565b60003084604051602001612d71929190615024565b604051602081830303815290604052805190602001209050846006600083815260200190815260200160002060006101000a81548173ffffffffffffffffffffffffffffffffffffffff021916908373ffffffffffffffffffffffffffffffffffffffff160217905550807fb5e6e01e79f91267dc17b4e6314d5d4d03593d2ceee0fbb452b750bd70ea5af960405160405180910390a2600360009054906101000a900473ffffffffffffffffffffffffffffffffffffffff1673ffffffffffffffffffffffffffffffffffffffff16634000aea08685856040518463ffffffff1660e01b8152600401612e6793929190615050565b6020604051808303816000875af1158015612e86573d6000803e3d6000fd5b505050506040513d601f19601f82011682018060405250810190612eaa9190613d2e565b612ee9576040517f08c379a0000000000000000000000000000000000000000000000000000000008152600401612ee090615100565b60405180910390fd5b949350505050565b612ef961321d565b612f098384600001515184613047565b905092915050565b612f1961321d565b612f2a84856000015151858561309d565b90509392505050565b612f3b61321d565b8251821115612f4957600080fd5b84602001518285612f5a9190613c2f565b1115612f8f57612f8e856002612f7f88602001518887612f7a9190613c2f565b61312b565b612f899190614a67565b613147565b5b600080865180518760208301019350808887011115612fae5787860182525b60208701925050505b60208410612ff55780518252602082612fd09190613c2f565b9150602081612fdf9190613c2f565b9050602084612fee9190613ca5565b9350612fb7565b60006001856020036101000a03905080198251168184511681811785525050508692505050949350505050565b61302f8260028351612af2565b6130428183612c7790919063ffffffff16565b505050565b61304f61321d565b8360200151831061307557613074846002866020015161306f9190614a67565b613147565b5b83518051602085830101848153818603613090576001820183525b5050508390509392505050565b6130a561321d565b846020015184836130b69190613c2f565b11156130de576130dd85600286856130ce9190613c2f565b6130d89190614a67565b613147565b5b60006001836101006130f09190615253565b6130fa9190613ca5565b9050855183868201018583198251161781528151858801111561311d5784870182525b505085915050949350505050565b60008183111561313d57829050613141565b8190505b92915050565b60008260000151905061315a8383612a88565b506131658382612c77565b50505050565b6040518060a00160405280600073ffffffffffffffffffffffffffffffffffffffff168152602001600081526020016000815260200160008152602001600081525090565b6040518060a0016040528060008019168152602001600073ffffffffffffffffffffffffffffffffffffffff16815260200160007bffffffffffffffffffffffffffffffffffffffffffffffffffffffff191681526020016000815260200161321761321d565b81525090565b604051806040016040528060608152602001600081525090565b600073ffffffffffffffffffffffffffffffffffffffff82169050919050565b600061326282613237565b9050919050565b61327281613257565b82525050565b600060208201905061328d6000830184613269565b92915050565b600060ff82169050919050565b6132a981613293565b82525050565b60006020820190506132c460008301846132a0565b92915050565b6000604051905090565b600080fd5b600080fd5b6132e781613257565b81146132f257600080fd5b50565b600081359050613304816132de565b92915050565b6000819050919050565b61331d8161330a565b811461332857600080fd5b50565b60008135905061333a81613314565b92915050565b600080600060608486031215613359576133586132d4565b5b6000613367868287016132f5565b93505060206133788682870161332b565b92505060406133898682870161332b565b9150509250925092565b61339c8161330a565b82525050565b60006020820190506133b76000830184613393565b92915050565b6000819050919050565b60006133e26133dd6133d884613237565b6133bd565b613237565b9050919050565b60006133f4826133c7565b9050919050565b6000613406826133e9565b9050919050565b613416816133fb565b82525050565b6000602082019050613431600083018461340d565b92915050565b600080fd5b600080fd5b600080fd5b60008083601f84011261345c5761345b613437565b5b8235905067ffffffffffffffff8111156134795761347861343c565b5b60208301915083600182028301111561349557613494613441565b5b9250929050565b600080602083850312156134b3576134b26132d4565b5b600083013567ffffffffffffffff8111156134d1576134d06132d9565b5b6134dd85828601613446565b92509250509250929050565b6000602082840312156134ff576134fe6132d4565b5b600061350d848285016132f5565b91505092915050565b6000613521826133e9565b9050919050565b61353181613516565b82525050565b600060208201905061354c6000830184613528565b92915050565b60008115159050919050565b61356781613552565b82525050565b600081519050919050565b600082825260208201905092915050565b60005b838110156135a757808201518184015260208101905061358c565b60008484015250505050565b6000601f19601f8301169050919050565b60006135cf8261356d565b6135d98185613578565b93506135e9818560208601613589565b6135f2816135b3565b840191505092915050565b6000604082019050613612600083018561355e565b818103602083015261362481846135c4565b90509392505050565b600080fd5b7f4e487b7100000000000000000000000000000000000000000000000000000000600052604160045260246000fd5b61366a826135b3565b810181811067ffffffffffffffff8211171561368957613688613632565b5b80604052505050565b600061369c6132ca565b90506136a88282613661565b919050565b600067ffffffffffffffff8211156136c8576136c7613632565b5b6136d1826135b3565b9050602081019050919050565b82818337600083830152505050565b60006137006136fb846136ad565b613692565b90508281526020810184848401111561371c5761371b61362d565b5b6137278482856136de565b509392505050565b600082601f83011261374457613743613437565b5b81356137548482602086016136ed565b91505092915050565b600063ffffffff82169050919050565b6137768161375d565b811461378157600080fd5b50565b6000813590506137938161376d565b92915050565b60006bffffffffffffffffffffffff82169050919050565b6137ba81613799565b81146137c557600080fd5b50565b6000813590506137d7816137b1565b92915050565b600080600080600060a086880312156137f9576137f86132d4565b5b600086013567ffffffffffffffff811115613817576138166132d9565b5b6138238882890161372f565b955050602061383488828901613784565b9450506040613845888289016137c8565b93505060606138568882890161332b565b92505060806138678882890161332b565b9150509295509295909350565b600062ffffff82169050919050565b61388c81613874565b82525050565b60006020820190506138a76000830184613883565b92915050565b6000602082840312156138c3576138c26132d4565b5b60006138d18482850161332b565b91505092915050565b6000819050919050565b6138ed816138da565b82525050565b600060208201905061390860008301846138e4565b92915050565b6000613919826133e9565b9050919050565b6139298161390e565b82525050565b60006020820190506139446000830184613920565b92915050565b613953816138da565b811461395e57600080fd5b50565b6000813590506139708161394a565b92915050565b60006020828403121561398c5761398b6132d4565b5b600061399a84828501613961565b91505092915050565b600080604083850312156139ba576139b96132d4565b5b60006139c885828601613961565b92505060206139d98582860161332b565b9150509250929050565b600060a0820190506139f86000830188613269565b613a056020830187613393565b613a126040830186613393565b613a1f6060830185613393565b613a2c6080830184613393565b9695505050505050565b600082825260208201905092915050565b7f5265656e7472616e637947756172643a207265656e7472616e742063616c6c00600082015250565b6000613a7d601f83613a36565b9150613a8882613a47565b602082019050919050565b60006020820190508181036000830152613aac81613a70565b9050919050565b7f596f75722066756e64696e672062616c616e636520697320302c20796f75206860008201527f617665206e6f7468696e6720746f207769746864726177000000000000000000602082015250565b6000613b0f603783613a36565b9150613b1a82613ab3565b604082019050919050565b60006020820190508181036000830152613b3e81613b02565b9050919050565b7f596f7572207374616b652062616c616e636520697320302c20796f752068617660008201527f65206e6f7468696e6720746f2077697468647261770000000000000000000000602082015250565b6000613ba1603583613a36565b9150613bac82613b45565b604082019050919050565b60006020820190508181036000830152613bd081613b94565b9050919050565b6000604082019050613bec6000830185613393565b613bf96020830184613393565b9392505050565b7f4e487b7100000000000000000000000000000000000000000000000000000000600052601160045260246000fd5b6000613c3a8261330a565b9150613c458361330a565b9250828201905080821115613c5d57613c5c613c00565b5b92915050565b600081519050613c7281613314565b92915050565b600060208284031215613c8e57613c8d6132d4565b5b6000613c9c84828501613c63565b91505092915050565b6000613cb08261330a565b9150613cbb8361330a565b9250828203905081811115613cd357613cd2613c00565b5b92915050565b6000604082019050613cee6000830185613269565b613cfb6020830184613393565b9392505050565b613d0b81613552565b8114613d1657600080fd5b50565b600081519050613d2881613d02565b92915050565b600060208284031215613d4457613d436132d4565b5b6000613d5284828501613d19565b91505092915050565b600081519050613d6a8161394a565b92915050565b600060208284031215613d8657613d856132d4565b5b6000613d9484828501613d5b565b91505092915050565b7f6d696e696d756d2066756e64696e67416d6f756e742069732035204c494e4b00600082015250565b6000613dd3601f83613a36565b9150613dde82613d9d565b602082019050919050565b60006020820190508181036000830152613e0281613dc6565b9050919050565b7f6d696e696d756d206f72646572496e74657276616c206973203630207365636f60008201527f6e64730000000000000000000000000000000000000000000000000000000000602082015250565b6000613e65602383613a36565b9150613e7082613e09565b604082019050919050565b60006020820190508181036000830152613e9481613e58565b9050919050565b7f6d696e696d756d206f7264657253697a6520697320302c30303031207374616b60008201527f6564546f6b656e00000000000000000000000000000000000000000000000000602082015250565b6000613ef7602783613a36565b9150613f0282613e9b565b604082019050919050565b60006020820190508181036000830152613f2681613eea565b9050919050565b7f796f75722066756e64696e672062616c616e6365206973203c206f6620796f7560008201527f722066756e64696e67416d6f756e740000000000000000000000000000000000602082015250565b6000613f89602f83613a36565b9150613f9482613f2d565b604082019050919050565b60006020820190508181036000830152613fb881613f7c565b9050919050565b600080fd5b600081519050613fd38161376d565b92915050565b600081519050613fe8816137b1565b92915050565b60006080828403121561400457614003613fbf565b5b61400e6080613692565b9050600061401e84828501613fc4565b600083015250602061403284828501613fd9565b602083015250604061404684828501613c63565b604083015250606061405a84828501613c63565b60608301525092915050565b61406f81613874565b811461407a57600080fd5b50565b60008151905061408c81614066565b92915050565b600061ffff82169050919050565b6140a981614092565b81146140b457600080fd5b50565b6000815190506140c6816140a0565b92915050565b6000815190506140db816132de565b92915050565b600061018082840312156140f8576140f7613fbf565b5b614103610180613692565b9050600061411384828501613fc4565b600083015250602061412784828501613fc4565b602083015250604061413b8482850161407d565b604083015250606061414f84828501613fc4565b60608301525060806141638482850161407d565b60808301525060a0614177848285016140b7565b60a08301525060c061418b84828501613fd9565b60c08301525060e061419f84828501613fc4565b60e0830152506101006141b484828501613c63565b610100830152506101206141ca84828501613c63565b610120830152506101406141e0848285016140cc565b610140830152506101606141f6848285016140cc565b6101608301525092915050565b600067ffffffffffffffff82111561421e5761421d613632565b5b602082029050602081019050919050565b600061424261423d84614203565b613692565b9050808382526020820190506020840283018581111561426557614264613441565b5b835b8181101561428e578061427a88826140cc565b845260208401935050602081019050614267565b5050509392505050565b600082601f8301126142ad576142ac613437565b5b81516142bd84826020860161422f565b91505092915050565b600080600061022084860312156142e0576142df6132d4565b5b60006142ee86828701613fee565b93505060806142ff868287016140e1565b92505061020084015167ffffffffffffffff811115614321576143206132d9565b5b61432d86828701614298565b9150509250925092565b6000819050919050565b61435261434d8261330a565b614337565b82525050565b60006143648284614341565b60208201915081905092915050565b600081519050919050565b600061438982614373565b6143938185613a36565b93506143a3818560208601613589565b6143ac816135b3565b840191505092915050565b7f3078000000000000000000000000000000000000000000000000000000000000600082015250565b60006143ed600283613a36565b91506143f8826143b7565b602082019050919050565b61440c8161375d565b82525050565b61441b81613799565b82525050565b6000819050919050565b600061444661444161443c84614421565b6133bd565b613293565b9050919050565b6144568161442b565b82525050565b6000610120820190508181036000830152614477818b61437e565b9050818103602083015261448a816143e0565b9050614499604083018a613269565b6144a66060830189614403565b6144b36080830188613269565b81810360a08301526144c581876135c4565b90506144d460c0830186614412565b6144e160e083018561444d565b6144ef610100830184613269565b9998505050505050505050565b60007fffffffff0000000000000000000000000000000000000000000000000000000082169050919050565b6000819050919050565b61454361453e826144fc565b614528565b82525050565b600081905092915050565b600061455f8261356d565b6145698185614549565b9350614579818560208601613589565b80840191505092915050565b60006145918285614532565b6004820191506145a18284614554565b91508190509392505050565b60006145c86145c36145be84613799565b6133bd565b61330a565b9050919050565b6145d8816145ad565b82525050565b60006060820190506145f36000830186613269565b61460060208301856145cf565b818103604083015261461281846135c4565b9050949350505050565b6000819050919050565b614637614632826138da565b61461c565b82525050565b60008160601b9050919050565b60006146558261463d565b9050919050565b60006146678261464a565b9050919050565b61467f61467a82613257565b61465c565b82525050565b60008160e01b9050919050565b600061469d82614685565b9050919050565b6146b56146b08261375d565b614692565b82525050565b60006146c78286614626565b6020820191506146d7828561466e565b6014820191506146e782846146a4565b600482019150819050949350505050565b600081905092915050565b7f68747470733a2f2f6d696e2d6170692e63727970746f636f6d706172652e636f60008201527f6d2f646174612f70726963656d756c746966756c6c3f6673796d733d00000000602082015250565b600061475f603c836146f8565b915061476a82614703565b603c82019050919050565b600061478082614373565b61478a81856146f8565b935061479a818560208601613589565b80840191505092915050565b7f267473796d733d00000000000000000000000000000000000000000000000000600082015250565b60006147dc6007836146f8565b91506147e7826147a6565b600782019050919050565b7f266578747261506172616d733d57616c6c2d4554480000000000000000000000600082015250565b60006148286015836146f8565b9150614833826147f2565b601582019050919050565b600061484982614752565b91506148558285614775565b9150614860826147cf565b915061486c8284614775565b91506148778261481b565b91508190509392505050565b7f5241572c00000000000000000000000000000000000000000000000000000000600082015250565b60006148b96004836146f8565b91506148c482614883565b600482019050919050565b7f2c00000000000000000000000000000000000000000000000000000000000000600082015250565b60006149056001836146f8565b9150614910826148cf565b600182019050919050565b7f2c50524943450000000000000000000000000000000000000000000000000000600082015250565b60006149516006836146f8565b915061495c8261491b565b600682019050919050565b6000614972826148ac565b915061497e8285614775565b9150614989826148f8565b91506149958284614775565b91506149a082614944565b91508190509392505050565b7f536f75726365206d75737420626520746865206f7261636c65206f662074686560008201527f2072657175657374000000000000000000000000000000000000000000000000602082015250565b6000614a08602883613a36565b9150614a13826149ac565b604082019050919050565b60006020820190508181036000830152614a37816149fb565b9050919050565b6000604082019050614a5360008301856138e4565b614a606020830184613393565b9392505050565b6000614a728261330a565b9150614a7d8361330a565b9250828202614a8b8161330a565b91508282048414831517614aa257614aa1613c00565b5b5092915050565b7f4e487b7100000000000000000000000000000000000000000000000000000000600052601260045260246000fd5b6000614ae38261330a565b9150614aee8361330a565b925082614afe57614afd614aa9565b5b828204905092915050565b6000819050919050565b614b1c81614b09565b8114614b2757600080fd5b50565b600081519050614b3981614b13565b92915050565b600060208284031215614b5557614b546132d4565b5b6000614b6384828501614b2a565b91505092915050565b7f616d6f756e742073686f756c64206265203e2030000000000000000000000000600082015250565b6000614ba2601483613a36565b9150614bad82614b6c565b602082019050919050565b60006020820190508181036000830152614bd181614b95565b9050919050565b6000606082019050614bed6000830186613269565b614bfa6020830185613393565b614c076040830184613393565b949350505050565b614c1881613257565b82525050565b614c2781613874565b82525050565b614c368161330a565b82525050565b614c4581613237565b82525050565b61010082016000820151614c626000850182614c0f565b506020820151614c756020850182614c0f565b506040820151614c886040850182614c1e565b506060820151614c9b6060850182614c0f565b506080820151614cae6080850182614c2d565b5060a0820151614cc160a0850182614c2d565b5060c0820151614cd460c0850182614c2d565b5060e0820151614ce760e0850182614c3c565b50505050565b600061010082019050614d036000830184614c4b565b92915050565b6000614d158284614554565b915081905092915050565b7f5354000000000000000000000000000000000000000000000000000000000000600082015250565b6000614d56600283613a36565b9150614d6182614d20565b602082019050919050565b60006020820190508181036000830152614d8581614d49565b9050919050565b7f4e487b7100000000000000000000000000000000000000000000000000000000600052603260045260246000fd5b6000614dc682613293565b915060ff8203614dd957614dd8613c00565b5b600182019050919050565b6000606082019050614df96000830186613269565b614e066020830185613269565b614e136040830184613393565b949350505050565b7f5354460000000000000000000000000000000000000000000000000000000000600082015250565b6000614e51600383613a36565b9150614e5c82614e1b565b602082019050919050565b60006020820190508181036000830152614e8081614e44565b9050919050565b7f5341000000000000000000000000000000000000000000000000000000000000600082015250565b6000614ebd600283613a36565b9150614ec882614e87565b602082019050919050565b60006020820190508181036000830152614eec81614eb0565b9050919050565b6000614efe82614b09565b9150614f0983614b09565b9250828203905081811260008412168282136000851215161715614f3057614f2f613c00565b5b92915050565b614f3f816144fc565b82525050565b600061010082019050614f5b600083018b613269565b614f68602083018a613393565b614f7560408301896138e4565b614f826060830188613269565b614f8f6080830187614f36565b614f9c60a0830186613393565b614fa960c0830185613393565b81810360e0830152614fbb81846135c4565b90509998505050505050505050565b6000614fd58261330a565b9150614fe08361330a565b925082614ff057614fef614aa9565b5b828206905092915050565b6000615006826133e9565b9050919050565b61501e61501982614ffb565b61465c565b82525050565b6000615030828561500d565b6014820191506150408284614341565b6020820191508190509392505050565b60006060820190506150656000830186613269565b6150726020830185613393565b818103604083015261508481846135c4565b9050949350505050565b7f756e61626c6520746f207472616e73666572416e6443616c6c20746f206f726160008201527f636c650000000000000000000000000000000000000000000000000000000000602082015250565b60006150ea602383613a36565b91506150f58261508e565b604082019050919050565b60006020820190508181036000830152615119816150dd565b9050919050565b60008160011c9050919050565b6000808291508390505b60018511156151775780860481111561515357615152613c00565b5b60018516156151625780820291505b808102905061517085615120565b9450615137565b94509492505050565b600082615190576001905061524c565b8161519e576000905061524c565b81600181146151b457600281146151be576151ed565b600191505061524c565b60ff8411156151d0576151cf613c00565b5b8360020a9150848211156151e7576151e6613c00565b5b5061524c565b5060208310610133831016604e8410600b84101617156152225782820a90508381111561521d5761521c613c00565b5b61524c565b61522f848484600161512d565b9250905081840481111561524657615245613c00565b5b81810290505b9392505050565b600061525e8261330a565b91506152698361330a565b92506152967fffffffffffffffffffffffffffffffffffffffffffffffffffffffffffffffff8484615180565b90509291505056fea2646970667358221220eecf2cfb74762bd5c3cdc7ecb3c38eb48894c1a21309afae11d4339797b4b97864736f6c63430008110033",
  "devdoc": {
    "kind": "dev",
    "methods": {},
    "version": 1
  },
  "userdoc": {
    "kind": "user",
    "methods": {},
    "version": 1
  },
  "storageLayout": {
    "storage": [
      {
        "astId": 2557,
        "contract": "contracts/TradingBotV3.sol:TradingBotV3",
        "label": "_status",
        "offset": 0,
        "slot": "0",
        "type": "t_uint256"
      },
      {
        "astId": 319,
        "contract": "contracts/TradingBotV3.sol:TradingBotV3",
        "label": "s_ens",
        "offset": 0,
        "slot": "1",
        "type": "t_contract(ENSInterface)1329"
      },
      {
        "astId": 321,
        "contract": "contracts/TradingBotV3.sol:TradingBotV3",
        "label": "s_ensNode",
        "offset": 0,
        "slot": "2",
        "type": "t_bytes32"
      },
      {
        "astId": 324,
        "contract": "contracts/TradingBotV3.sol:TradingBotV3",
        "label": "s_link",
        "offset": 0,
        "slot": "3",
        "type": "t_contract(LinkTokenInterface)1424"
      },
      {
        "astId": 327,
        "contract": "contracts/TradingBotV3.sol:TradingBotV3",
        "label": "s_oracle",
        "offset": 0,
        "slot": "4",
        "type": "t_contract(OperatorInterface)1504"
      },
      {
        "astId": 330,
        "contract": "contracts/TradingBotV3.sol:TradingBotV3",
        "label": "s_requestCount",
        "offset": 0,
        "slot": "5",
        "type": "t_uint256"
      },
      {
        "astId": 334,
        "contract": "contracts/TradingBotV3.sol:TradingBotV3",
        "label": "s_pendingRequests",
        "offset": 0,
        "slot": "6",
        "type": "t_mapping(t_bytes32,t_address)"
      },
      {
        "astId": 4046,
        "contract": "contracts/TradingBotV3.sol:TradingBotV3",
        "label": "_botIdCounter",
        "offset": 0,
        "slot": "7",
        "type": "t_struct(Counter)3303_storage"
      },
      {
        "astId": 4051,
        "contract": "contracts/TradingBotV3.sol:TradingBotV3",
        "label": "botIdToBotObj",
        "offset": 0,
        "slot": "8",
        "type": "t_mapping(t_uint256,t_struct(BotObj)3930_storage)"
      },
      {
        "astId": 4055,
        "contract": "contracts/TradingBotV3.sol:TradingBotV3",
        "label": "botIdToUpkeepId",
        "offset": 0,
        "slot": "9",
        "type": "t_mapping(t_uint256,t_uint256)"
      },
      {
        "astId": 4059,
        "contract": "contracts/TradingBotV3.sol:TradingBotV3",
        "label": "requestIdToBotId",
        "offset": 0,
        "slot": "10",
        "type": "t_mapping(t_bytes32,t_uint256)"
      },
      {
        "astId": 4072,
        "contract": "contracts/TradingBotV3.sol:TradingBotV3",
        "label": "registerSig",
        "offset": 0,
        "slot": "11",
        "type": "t_bytes4"
      },
      {
        "astId": 4087,
        "contract": "contracts/TradingBotV3.sol:TradingBotV3",
        "label": "stakingBalance",
        "offset": 0,
        "slot": "12",
        "type": "t_mapping(t_address,t_uint256)"
      },
      {
        "astId": 4091,
        "contract": "contracts/TradingBotV3.sol:TradingBotV3",
        "label": "tradingBalance",
        "offset": 0,
        "slot": "13",
        "type": "t_mapping(t_address,t_uint256)"
      },
      {
        "astId": 4095,
        "contract": "contracts/TradingBotV3.sol:TradingBotV3",
        "label": "fundingBalance",
        "offset": 0,
        "slot": "14",
        "type": "t_mapping(t_address,t_uint256)"
      },
      {
        "astId": 4101,
        "contract": "contracts/TradingBotV3.sol:TradingBotV3",
        "label": "i_truflationOracle",
        "offset": 0,
        "slot": "15",
        "type": "t_address"
      }
    ],
    "types": {
      "t_address": {
        "encoding": "inplace",
        "label": "address",
        "numberOfBytes": "20"
      },
      "t_bytes32": {
        "encoding": "inplace",
        "label": "bytes32",
        "numberOfBytes": "32"
      },
      "t_bytes4": {
        "encoding": "inplace",
        "label": "bytes4",
        "numberOfBytes": "4"
      },
      "t_contract(ENSInterface)1329": {
        "encoding": "inplace",
        "label": "contract ENSInterface",
        "numberOfBytes": "20"
      },
      "t_contract(LinkTokenInterface)1424": {
        "encoding": "inplace",
        "label": "contract LinkTokenInterface",
        "numberOfBytes": "20"
      },
      "t_contract(OperatorInterface)1504": {
        "encoding": "inplace",
        "label": "contract OperatorInterface",
        "numberOfBytes": "20"
      },
      "t_mapping(t_address,t_uint256)": {
        "encoding": "mapping",
        "key": "t_address",
        "label": "mapping(address => uint256)",
        "numberOfBytes": "32",
        "value": "t_uint256"
      },
      "t_mapping(t_bytes32,t_address)": {
        "encoding": "mapping",
        "key": "t_bytes32",
        "label": "mapping(bytes32 => address)",
        "numberOfBytes": "32",
        "value": "t_address"
      },
      "t_mapping(t_bytes32,t_uint256)": {
        "encoding": "mapping",
        "key": "t_bytes32",
        "label": "mapping(bytes32 => uint256)",
        "numberOfBytes": "32",
        "value": "t_uint256"
      },
      "t_mapping(t_uint256,t_struct(BotObj)3930_storage)": {
        "encoding": "mapping",
        "key": "t_uint256",
        "label": "mapping(uint256 => struct BotObj)",
        "numberOfBytes": "32",
        "value": "t_struct(BotObj)3930_storage"
      },
      "t_mapping(t_uint256,t_uint256)": {
        "encoding": "mapping",
        "key": "t_uint256",
        "label": "mapping(uint256 => uint256)",
        "numberOfBytes": "32",
        "value": "t_uint256"
      },
      "t_struct(BotObj)3930_storage": {
        "encoding": "inplace",
        "label": "struct BotObj",
        "members": [
          {
            "astId": 3921,
            "contract": "contracts/TradingBotV3.sol:TradingBotV3",
            "label": "owner",
            "offset": 0,
            "slot": "0",
            "type": "t_address"
          },
          {
            "astId": 3923,
            "contract": "contracts/TradingBotV3.sol:TradingBotV3",
            "label": "orderInterval",
            "offset": 0,
            "slot": "1",
            "type": "t_uint256"
          },
          {
            "astId": 3925,
            "contract": "contracts/TradingBotV3.sol:TradingBotV3",
            "label": "orderSize",
            "offset": 0,
            "slot": "2",
            "type": "t_uint256"
          },
          {
            "astId": 3927,
            "contract": "contracts/TradingBotV3.sol:TradingBotV3",
            "label": "lastTimeStamp",
            "offset": 0,
            "slot": "3",
            "type": "t_uint256"
          },
          {
            "astId": 3929,
            "contract": "contracts/TradingBotV3.sol:TradingBotV3",
            "label": "counter",
            "offset": 0,
            "slot": "4",
            "type": "t_uint256"
          }
        ],
        "numberOfBytes": "160"
      },
      "t_struct(Counter)3303_storage": {
        "encoding": "inplace",
        "label": "struct Counters.Counter",
        "members": [
          {
            "astId": 3302,
            "contract": "contracts/TradingBotV3.sol:TradingBotV3",
            "label": "_value",
            "offset": 0,
            "slot": "0",
            "type": "t_uint256"
          }
        ],
        "numberOfBytes": "32"
      },
      "t_uint256": {
        "encoding": "inplace",
        "label": "uint256",
        "numberOfBytes": "32"
      }
    }
  }
}