{
  "address": "0xB61d1aA7E1c888605033C0896473287D159Bc00c",
  "abi": [
    {
      "inputs": [
        {
          "internalType": "contract LinkTokenInterface",
          "name": "_link",
          "type": "address"
        },
        {
          "internalType": "address",
          "name": "_registrar",
          "type": "address"
        },
        {
          "internalType": "contract AutomationRegistryInterface",
          "name": "_registry",
          "type": "address"
        },
        {
          "internalType": "contract ISwapRouter",
          "name": "_swapRouter",
          "type": "address"
        },
        {
          "internalType": "address",
          "name": "_stakedToken",
          "type": "address"
        },
        {
          "internalType": "address",
          "name": "_tradedToken",
          "type": "address"
        }
      ],
      "stateMutability": "nonpayable",
      "type": "constructor"
    },
    {
      "inputs": [],
      "name": "AutoApproveDisabled",
      "type": "error"
    },
    {
      "inputs": [
        {
          "internalType": "uint256",
          "name": "currentTimeStamp",
          "type": "uint256"
        },
        {
          "internalType": "uint256",
          "name": "lastTimeStamp",
          "type": "uint256"
        }
      ],
      "name": "UpkeepNotNeeded",
      "type": "error"
    },
    {
      "inputs": [
        {
          "internalType": "bytes",
          "name": "checkData",
          "type": "bytes"
        }
      ],
      "name": "checkUpkeep",
      "outputs": [
        {
          "internalType": "bool",
          "name": "upkeepNeeded",
          "type": "bool"
        },
        {
          "internalType": "bytes",
          "name": "performData",
          "type": "bytes"
        }
      ],
      "stateMutability": "view",
      "type": "function"
    },
    {
      "inputs": [
        {
          "internalType": "uint256",
          "name": "",
          "type": "uint256"
        }
      ],
      "name": "counterToDcaBot",
      "outputs": [
        {
          "internalType": "address",
          "name": "owner",
          "type": "address"
        },
        {
          "internalType": "uint256",
          "name": "orderInterval",
          "type": "uint256"
        },
        {
          "internalType": "uint256",
          "name": "orderSize",
          "type": "uint256"
        },
        {
          "internalType": "uint256",
          "name": "lastTimeStamp",
          "type": "uint256"
        },
        {
          "internalType": "uint256",
          "name": "counter",
          "type": "uint256"
        },
        {
          "internalType": "uint256",
          "name": "maxNumberOfOrders",
          "type": "uint256"
        }
      ],
      "stateMutability": "view",
      "type": "function"
    },
    {
      "inputs": [
        {
          "internalType": "uint256",
          "name": "",
          "type": "uint256"
        }
      ],
      "name": "counterToUpkeepID",
      "outputs": [
        {
          "internalType": "uint256",
          "name": "",
          "type": "uint256"
        }
      ],
      "stateMutability": "view",
      "type": "function"
    },
    {
      "inputs": [
        {
          "internalType": "address",
          "name": "owner",
          "type": "address"
        },
        {
          "internalType": "uint256",
          "name": "orderInterval",
          "type": "uint256"
        },
        {
          "internalType": "uint256",
          "name": "orderSize",
          "type": "uint256"
        },
        {
          "internalType": "uint256",
          "name": "maxNumberOfOrders",
          "type": "uint256"
        }
      ],
      "name": "createNewInstance",
      "outputs": [
        {
          "internalType": "uint256",
          "name": "",
          "type": "uint256"
        }
      ],
      "stateMutability": "nonpayable",
      "type": "function"
    },
    {
      "inputs": [],
      "name": "feeTier",
      "outputs": [
        {
          "internalType": "uint24",
          "name": "",
          "type": "uint24"
        }
      ],
      "stateMutability": "view",
      "type": "function"
    },
    {
      "inputs": [],
      "name": "i_link",
      "outputs": [
        {
          "internalType": "contract LinkTokenInterface",
          "name": "",
          "type": "address"
        }
      ],
      "stateMutability": "view",
      "type": "function"
    },
    {
      "inputs": [],
      "name": "i_registry",
      "outputs": [
        {
          "internalType": "contract AutomationRegistryInterface",
          "name": "",
          "type": "address"
        }
      ],
      "stateMutability": "view",
      "type": "function"
    },
    {
      "inputs": [],
      "name": "i_stakedToken",
      "outputs": [
        {
          "internalType": "address",
          "name": "",
          "type": "address"
        }
      ],
      "stateMutability": "view",
      "type": "function"
    },
    {
      "inputs": [],
      "name": "i_swapRouter",
      "outputs": [
        {
          "internalType": "contract ISwapRouter",
          "name": "",
          "type": "address"
        }
      ],
      "stateMutability": "view",
      "type": "function"
    },
    {
      "inputs": [],
      "name": "i_tradedToken",
      "outputs": [
        {
          "internalType": "address",
          "name": "",
          "type": "address"
        }
      ],
      "stateMutability": "view",
      "type": "function"
    },
    {
      "inputs": [
        {
          "internalType": "bytes",
          "name": "performData",
          "type": "bytes"
        }
      ],
      "name": "performUpkeep",
      "outputs": [],
      "stateMutability": "nonpayable",
      "type": "function"
    },
    {
      "inputs": [
        {
          "internalType": "string",
          "name": "name",
          "type": "string"
        },
        {
          "internalType": "uint32",
          "name": "gasLimit",
          "type": "uint32"
        },
        {
          "internalType": "uint96",
          "name": "fundingAmount",
          "type": "uint96"
        },
        {
          "internalType": "uint256",
          "name": "orderInterval",
          "type": "uint256"
        },
        {
          "internalType": "uint256",
          "name": "orderSize",
          "type": "uint256"
        }
      ],
      "name": "registerAndPredictID",
      "outputs": [],
      "stateMutability": "nonpayable",
      "type": "function"
    },
    {
      "inputs": [],
      "name": "registrar",
      "outputs": [
        {
          "internalType": "address",
          "name": "",
          "type": "address"
        }
      ],
      "stateMutability": "view",
      "type": "function"
    },
    {
      "inputs": [],
      "name": "requestConsumerSentimentData",
      "outputs": [
        {
          "internalType": "uint256",
          "name": "consumerSentiment",
          "type": "uint256"
        }
      ],
      "stateMutability": "pure",
      "type": "function"
    },
    {
      "inputs": [],
      "name": "requestInflationData",
      "outputs": [
        {
          "internalType": "uint256",
          "name": "yoyInflation",
          "type": "uint256"
        }
      ],
      "stateMutability": "pure",
      "type": "function"
    },
    {
      "inputs": [
        {
          "internalType": "uint256",
          "name": "stakingAmount",
          "type": "uint256"
        }
      ],
      "name": "stake",
      "outputs": [],
      "stateMutability": "nonpayable",
      "type": "function"
    },
    {
      "inputs": [
        {
          "internalType": "address",
          "name": "",
          "type": "address"
        }
      ],
      "name": "stakingBalance",
      "outputs": [
        {
          "internalType": "uint256",
          "name": "",
          "type": "uint256"
        }
      ],
      "stateMutability": "view",
      "type": "function"
    },
    {
      "inputs": [
        {
          "internalType": "address",
          "name": "",
          "type": "address"
        }
      ],
      "name": "tradingBalance",
      "outputs": [
        {
          "internalType": "uint256",
          "name": "",
          "type": "uint256"
        }
      ],
      "stateMutability": "view",
      "type": "function"
    },
    {
      "inputs": [],
      "name": "unstake",
      "outputs": [],
      "stateMutability": "nonpayable",
      "type": "function"
    }
  ],
  "transactionHash": "0xc6bff7237129251d9f35c86e9d561652daec80ff585898a55ea3e309da700639",
  "args": [
    "0x326C977E6efc84E512bB9C30f76E30c160eD06FB",
    "0x9806cf6fBc89aBF286e8140C42174B94836e36F2",
    "0x02777053d6764996e594c3E88AF1D58D5363a2e6",
    "0xE592427A0AEce92De3Edee1F18E0157C05861564",
    "0xB4FBF271143F4FBf7B91A5ded31805e42b2208d6",
    "0x1f9840a85d5aF5bf1D1762F925BDADdC4201F984"
  ],
  "numDeployments": 2,
  "solcInputHash": "c4580d5cf3216514d16dcc8f68897c05",
  "bytecode": "0x610140604052633659d66660e01b600460006101000a81548163ffffffff021916908360e01c02179055503480156200003757600080fd5b50604051620031d4380380620031d483398181016040528101906200005d9190620002e4565b60016000819055508573ffffffffffffffffffffffffffffffffffffffff1660808173ffffffffffffffffffffffffffffffffffffffff16815250508473ffffffffffffffffffffffffffffffffffffffff1660a08173ffffffffffffffffffffffffffffffffffffffff16815250508373ffffffffffffffffffffffffffffffffffffffff1660c08173ffffffffffffffffffffffffffffffffffffffff16815250508273ffffffffffffffffffffffffffffffffffffffff1660e08173ffffffffffffffffffffffffffffffffffffffff16815250508173ffffffffffffffffffffffffffffffffffffffff166101008173ffffffffffffffffffffffffffffffffffffffff16815250508073ffffffffffffffffffffffffffffffffffffffff166101208173ffffffffffffffffffffffffffffffffffffffff168152505050505050505062000380565b600080fd5b600073ffffffffffffffffffffffffffffffffffffffff82169050919050565b6000620001dd82620001b0565b9050919050565b6000620001f182620001d0565b9050919050565b6200020381620001e4565b81146200020f57600080fd5b50565b6000815190506200022381620001f8565b92915050565b6200023481620001d0565b81146200024057600080fd5b50565b600081519050620002548162000229565b92915050565b60006200026782620001d0565b9050919050565b62000279816200025a565b81146200028557600080fd5b50565b60008151905062000299816200026e565b92915050565b6000620002ac82620001d0565b9050919050565b620002be816200029f565b8114620002ca57600080fd5b50565b600081519050620002de81620002b3565b92915050565b60008060008060008060c08789031215620003045762000303620001ab565b5b60006200031489828a0162000212565b96505060206200032789828a0162000243565b95505060406200033a89828a0162000288565b94505060606200034d89828a01620002cd565b93505060806200036089828a0162000243565b92505060a06200037389828a0162000243565b9150509295509295509295565b60805160a05160c05160e0516101005161012051612db76200041d600039600081816106b6015261080201526000818161065f01528181610692015281816107e10152610e4901526000818161085d015281816111cd01526112930152600081816104fb01528181610a7301528181610c740152610d4601526000818161051f0152610bbf0152600081816108f80152610b830152612db76000f3fe608060405234801561001057600080fd5b50600436106101215760003560e01c806358fb8054116100ad578063963725941161007157806396372594146102fb578063a694fc3a14610319578063a8bdda4d14610335578063ab4578751461036a578063ccd6d4121461039a57610121565b806358fb8054146102545780636e04ff0d1461027257806372f5d98a146102a35780637d253aff146102c15780637e83acf4146102df57610121565b80632def6620116100f45780632def6620146101c25780632e276ffd146101cc57806339b39406146101ea5780634585e33b1461020857806345bc78ab1461022457610121565b806305e019d8146101265780630c6ad4be146101565780632a663606146101865780632b20e397146101a4575b600080fd5b610140600480360381019061013b9190611797565b6103b8565b60405161014d91906117d3565b60405180910390f35b610170600480360381019061016b919061184c565b6103d0565b60405161017d91906117d3565b60405180910390f35b61018e6104f9565b60405161019b9190611912565b60405180910390f35b6101ac61051d565b6040516101b9919061193c565b60405180910390f35b6101ca610541565b005b6101d4610690565b6040516101e1919061193c565b60405180910390f35b6101f26106b4565b6040516101ff919061193c565b60405180910390f35b610222600480360381019061021d91906119bc565b6106d8565b005b61023e60048036038101906102399190611a09565b610843565b60405161024b91906117d3565b60405180910390f35b61025c61085b565b6040516102699190611a57565b60405180910390f35b61028c600480360381019061028791906119bc565b61087f565b60405161029a929190611b1d565b60405180910390f35b6102ab6108f0565b6040516102b89190611b6b565b60405180910390f35b6102c96108f6565b6040516102d69190611ba7565b60405180910390f35b6102f960048036038101906102f49190611d72565b61091a565b005b610303610df3565b60405161031091906117d3565b60405180910390f35b610333600480360381019061032e9190611797565b610e01565b005b61034f600480360381019061034a9190611797565b610f01565b60405161036196959493929190611e09565b60405180910390f35b610384600480360381019061037f9190611a09565b610f5d565b60405161039191906117d3565b60405180910390f35b6103a2610f75565b6040516103af91906117d3565b60405180910390f35b60036020528060005260406000206000915090505481565b6000806103dd6001610f83565b90506103e96001610f91565b6103f1611701565b86816000019073ffffffffffffffffffffffffffffffffffffffff16908173ffffffffffffffffffffffffffffffffffffffff16815250508581602001818152505084816040018181525050428160600181815250506000816080018181525050838160a0018181525050806002600084815260200190815260200160002060008201518160000160006101000a81548173ffffffffffffffffffffffffffffffffffffffff021916908373ffffffffffffffffffffffffffffffffffffffff1602179055506020820151816001015560408201518160020155606082015181600301556080820151816004015560a082015181600501559050508192505050949350505050565b7f000000000000000000000000000000000000000000000000000000000000000081565b7f000000000000000000000000000000000000000000000000000000000000000081565b600260005403610586576040517f08c379a000000000000000000000000000000000000000000000000000000000815260040161057d90611ec7565b60405180910390fd5b60026000819055506000600560003373ffffffffffffffffffffffffffffffffffffffff1673ffffffffffffffffffffffffffffffffffffffff16815260200190815260200160002054905060008111610615576040517f08c379a000000000000000000000000000000000000000000000000000000000815260040161060c90611f59565b60405180910390fd5b6000600560003373ffffffffffffffffffffffffffffffffffffffff1673ffffffffffffffffffffffffffffffffffffffff168152602001908152602001600020819055506106857f00000000000000000000000000000000000000000000000000000000000000003383610fa7565b506001600081905550565b7f000000000000000000000000000000000000000000000000000000000000000081565b7f000000000000000000000000000000000000000000000000000000000000000081565b600082828101906106e99190611797565b90506106f4816110fc565b61074d574260026000838152602001908152602001600020600301546040517fa7586210000000000000000000000000000000000000000000000000000000008152600401610744929190611f79565b60405180910390fd5b4260026000838152602001908152602001600020600301819055506001600260008381526020019081526020016000206004015461078b9190611fd1565b600260008381526020019081526020016000206004018190555061083d6002600083815260200190815260200160002060000160009054906101000a900473ffffffffffffffffffffffffffffffffffffffff167f00000000000000000000000000000000000000000000000000000000000000007f00000000000000000000000000000000000000000000000000000000000000006002600086815260200190815260200160002060020154611144565b50505050565b60056020528060005260406000206000915090505481565b7f000000000000000000000000000000000000000000000000000000000000000081565b60006060600084848101906108949190611797565b905061089f816110fc565b925084848080601f016020809104026020016040519081016040528093929190818152602001838380828437600081840152601f19601f820116905080830192505050505050509150509250929050565b610bb881565b7f000000000000000000000000000000000000000000000000000000000000000081565b6000600560003373ffffffffffffffffffffffffffffffffffffffff1673ffffffffffffffffffffffffffffffffffffffff168152602001908152602001600020541161099c576040517f08c379a000000000000000000000000000000000000000000000000000000000815260040161099390612077565b60405180910390fd5b80600560003373ffffffffffffffffffffffffffffffffffffffff1673ffffffffffffffffffffffffffffffffffffffff1681526020019081526020016000205411610a1d576040517f08c379a0000000000000000000000000000000000000000000000000000000008152600401610a149061212f565b60405180910390fd5b600081600560003373ffffffffffffffffffffffffffffffffffffffff1673ffffffffffffffffffffffffffffffffffffffff16815260200190815260200160002054610a6a919061217e565b905060008060007f000000000000000000000000000000000000000000000000000000000000000073ffffffffffffffffffffffffffffffffffffffff16631865c57d6040518163ffffffff1660e01b8152600401600060405180830381865afa158015610adc573d6000803e3d6000fd5b505050506040513d6000823e3d601f19601f82011682018060405250810190610b0591906124cb565b9250925092506000836000015163ffffffff1690506000610b28338989896103d0565b9050600081604051602001610b3d919061255d565b604051602081830303815290604052905060008c308d33858f600030604051602001610b7098979695949392919061266e565b60405160208183030381529060405290507f000000000000000000000000000000000000000000000000000000000000000073ffffffffffffffffffffffffffffffffffffffff16634000aea07f00000000000000000000000000000000000000000000000000000000000000008d600460009054906101000a900460e01b85604051602001610c01929190612797565b6040516020818303038152906040526040518463ffffffff1660e01b8152600401610c2e939291906127f0565b6020604051808303816000875af1158015610c4d573d6000803e3d6000fd5b505050506040513d601f19601f82011682018060405250810190610c71919061285a565b507f000000000000000000000000000000000000000000000000000000000000000073ffffffffffffffffffffffffffffffffffffffff16631865c57d6040518163ffffffff1660e01b8152600401600060405180830381865afa158015610cdd573d6000803e3d6000fd5b505050506040513d6000823e3d601f19601f82011682018060405250810190610d0691906124cb565b8097508198508299505050506000876000015163ffffffff169050600185610d2e9190611fd1565b8103610db1576000600143610d439190612887565b407f000000000000000000000000000000000000000000000000000000000000000087604051602001610d7893929190612964565b6040516020818303038152906040528051906020012060001c905080600360008781526020019081526020016000208190555050610de3565b6040517f6874c3d400000000000000000000000000000000000000000000000000000000815260040160405180910390fd5b5050505050505050505050505050565b600080600190508091505090565b60008111610e44576040517f08c379a0000000000000000000000000000000000000000000000000000000008152600401610e3b906129ed565b60405180910390fd5b610e707f0000000000000000000000000000000000000000000000000000000000000000333084611454565b80600560003373ffffffffffffffffffffffffffffffffffffffff1673ffffffffffffffffffffffffffffffffffffffff16815260200190815260200160002054610ebb9190611fd1565b600560003373ffffffffffffffffffffffffffffffffffffffff1673ffffffffffffffffffffffffffffffffffffffff1681526020019081526020016000208190555050565b60026020528060005260406000206000915090508060000160009054906101000a900473ffffffffffffffffffffffffffffffffffffffff16908060010154908060020154908060030154908060040154908060050154905086565b60066020528060005260406000206000915090505481565b600080600190508091505090565b600081600001549050919050565b6001816000016000828254019250508190555050565b6000808473ffffffffffffffffffffffffffffffffffffffff1663a9059cbb60e01b8585604051602401610fdc929190612a0d565b604051602081830303815290604052907bffffffffffffffffffffffffffffffffffffffffffffffffffffffff19166020820180517bffffffffffffffffffffffffffffffffffffffffffffffffffffffff83818316178352505050506040516110469190612a36565b6000604051808303816000865af19150503d8060008114611083576040519150601f19603f3d011682016040523d82523d6000602084013e611088565b606091505b50915091508180156110b657506000815114806110b55750808060200190518101906110b4919061285a565b5b5b6110f5576040517f08c379a00000000000000000000000000000000000000000000000000000000081526004016110ec90612a99565b60405180910390fd5b5050505050565b60008060026000848152602001908152602001600020600101546002600085815260200190815260200160002060030154426111389190612887565b11905080915050919050565b600081600560008773ffffffffffffffffffffffffffffffffffffffff1673ffffffffffffffffffffffffffffffffffffffff16815260200190815260200160002054116111c7576040517f08c379a00000000000000000000000000000000000000000000000000000000081526004016111be90612b2b565b60405180910390fd5b6111f2847f0000000000000000000000000000000000000000000000000000000000000000846115ac565b60006040518061010001604052808673ffffffffffffffffffffffffffffffffffffffff1681526020018573ffffffffffffffffffffffffffffffffffffffff168152602001610bb862ffffff1681526020018773ffffffffffffffffffffffffffffffffffffffff16815260200142815260200184815260200160008152602001600073ffffffffffffffffffffffffffffffffffffffff1681525090507f000000000000000000000000000000000000000000000000000000000000000073ffffffffffffffffffffffffffffffffffffffff1663414bf389826040518263ffffffff1660e01b81526004016112ea9190612c29565b6020604051808303816000875af1158015611309573d6000803e3d6000fd5b505050506040513d601f19601f8201168201806040525081019061132d9190612c45565b915082600560008873ffffffffffffffffffffffffffffffffffffffff1673ffffffffffffffffffffffffffffffffffffffff1681526020019081526020016000205461137a9190612887565b600560008873ffffffffffffffffffffffffffffffffffffffff1673ffffffffffffffffffffffffffffffffffffffff1681526020019081526020016000208190555081600660008873ffffffffffffffffffffffffffffffffffffffff1673ffffffffffffffffffffffffffffffffffffffff168152602001908152602001600020546114089190611fd1565b600660008873ffffffffffffffffffffffffffffffffffffffff1673ffffffffffffffffffffffffffffffffffffffff1681526020019081526020016000208190555050949350505050565b6000808573ffffffffffffffffffffffffffffffffffffffff166323b872dd60e01b86868660405160240161148b93929190612c72565b604051602081830303815290604052907bffffffffffffffffffffffffffffffffffffffffffffffffffffffff19166020820180517bffffffffffffffffffffffffffffffffffffffffffffffffffffffff83818316178352505050506040516114f59190612a36565b6000604051808303816000865af19150503d8060008114611532576040519150601f19603f3d011682016040523d82523d6000602084013e611537565b606091505b50915091508180156115655750600081511480611564575080806020019051810190611563919061285a565b5b5b6115a4576040517f08c379a000000000000000000000000000000000000000000000000000000000815260040161159b90612cf5565b60405180910390fd5b505050505050565b6000808473ffffffffffffffffffffffffffffffffffffffff1663095ea7b360e01b85856040516024016115e1929190612a0d565b604051602081830303815290604052907bffffffffffffffffffffffffffffffffffffffffffffffffffffffff19166020820180517bffffffffffffffffffffffffffffffffffffffffffffffffffffffff838183161783525050505060405161164b9190612a36565b6000604051808303816000865af19150503d8060008114611688576040519150601f19603f3d011682016040523d82523d6000602084013e61168d565b606091505b50915091508180156116bb57506000815114806116ba5750808060200190518101906116b9919061285a565b5b5b6116fa576040517f08c379a00000000000000000000000000000000000000000000000000000000081526004016116f190612d61565b60405180910390fd5b5050505050565b6040518060c00160405280600073ffffffffffffffffffffffffffffffffffffffff16815260200160008152602001600081526020016000815260200160008152602001600081525090565b6000604051905090565b600080fd5b600080fd5b6000819050919050565b61177481611761565b811461177f57600080fd5b50565b6000813590506117918161176b565b92915050565b6000602082840312156117ad576117ac611757565b5b60006117bb84828501611782565b91505092915050565b6117cd81611761565b82525050565b60006020820190506117e860008301846117c4565b92915050565b600073ffffffffffffffffffffffffffffffffffffffff82169050919050565b6000611819826117ee565b9050919050565b6118298161180e565b811461183457600080fd5b50565b60008135905061184681611820565b92915050565b6000806000806080858703121561186657611865611757565b5b600061187487828801611837565b945050602061188587828801611782565b935050604061189687828801611782565b92505060606118a787828801611782565b91505092959194509250565b6000819050919050565b60006118d86118d36118ce846117ee565b6118b3565b6117ee565b9050919050565b60006118ea826118bd565b9050919050565b60006118fc826118df565b9050919050565b61190c816118f1565b82525050565b60006020820190506119276000830184611903565b92915050565b6119368161180e565b82525050565b6000602082019050611951600083018461192d565b92915050565b600080fd5b600080fd5b600080fd5b60008083601f84011261197c5761197b611957565b5b8235905067ffffffffffffffff8111156119995761199861195c565b5b6020830191508360018202830111156119b5576119b4611961565b5b9250929050565b600080602083850312156119d3576119d2611757565b5b600083013567ffffffffffffffff8111156119f1576119f061175c565b5b6119fd85828601611966565b92509250509250929050565b600060208284031215611a1f57611a1e611757565b5b6000611a2d84828501611837565b91505092915050565b6000611a41826118df565b9050919050565b611a5181611a36565b82525050565b6000602082019050611a6c6000830184611a48565b92915050565b60008115159050919050565b611a8781611a72565b82525050565b600081519050919050565b600082825260208201905092915050565b60005b83811015611ac7578082015181840152602081019050611aac565b60008484015250505050565b6000601f19601f8301169050919050565b6000611aef82611a8d565b611af98185611a98565b9350611b09818560208601611aa9565b611b1281611ad3565b840191505092915050565b6000604082019050611b326000830185611a7e565b8181036020830152611b448184611ae4565b90509392505050565b600062ffffff82169050919050565b611b6581611b4d565b82525050565b6000602082019050611b806000830184611b5c565b92915050565b6000611b91826118df565b9050919050565b611ba181611b86565b82525050565b6000602082019050611bbc6000830184611b98565b92915050565b600080fd5b7f4e487b7100000000000000000000000000000000000000000000000000000000600052604160045260246000fd5b611bff82611ad3565b810181811067ffffffffffffffff82111715611c1e57611c1d611bc7565b5b80604052505050565b6000611c3161174d565b9050611c3d8282611bf6565b919050565b600067ffffffffffffffff821115611c5d57611c5c611bc7565b5b611c6682611ad3565b9050602081019050919050565b82818337600083830152505050565b6000611c95611c9084611c42565b611c27565b905082815260208101848484011115611cb157611cb0611bc2565b5b611cbc848285611c73565b509392505050565b600082601f830112611cd957611cd8611957565b5b8135611ce9848260208601611c82565b91505092915050565b600063ffffffff82169050919050565b611d0b81611cf2565b8114611d1657600080fd5b50565b600081359050611d2881611d02565b92915050565b60006bffffffffffffffffffffffff82169050919050565b611d4f81611d2e565b8114611d5a57600080fd5b50565b600081359050611d6c81611d46565b92915050565b600080600080600060a08688031215611d8e57611d8d611757565b5b600086013567ffffffffffffffff811115611dac57611dab61175c565b5b611db888828901611cc4565b9550506020611dc988828901611d19565b9450506040611dda88828901611d5d565b9350506060611deb88828901611782565b9250506080611dfc88828901611782565b9150509295509295909350565b600060c082019050611e1e600083018961192d565b611e2b60208301886117c4565b611e3860408301876117c4565b611e4560608301866117c4565b611e5260808301856117c4565b611e5f60a08301846117c4565b979650505050505050565b600082825260208201905092915050565b7f5265656e7472616e637947756172643a207265656e7472616e742063616c6c00600082015250565b6000611eb1601f83611e6a565b9150611ebc82611e7b565b602082019050919050565b60006020820190508181036000830152611ee081611ea4565b9050919050565b7f596f75722062616c616e636520697320302c20796f752068617665206e6f746860008201527f696e6720746f2077697468647261770000000000000000000000000000000000602082015250565b6000611f43602f83611e6a565b9150611f4e82611ee7565b604082019050919050565b60006020820190508181036000830152611f7281611f36565b9050919050565b6000604082019050611f8e60008301856117c4565b611f9b60208301846117c4565b9392505050565b7f4e487b7100000000000000000000000000000000000000000000000000000000600052601160045260246000fd5b6000611fdc82611761565b9150611fe783611761565b9250828201905080821115611fff57611ffe611fa2565b5b92915050565b7f596f7572207374616b696e672062616c616e636520697320656d70747921204460008201527f65706f73697420736f6d65204441492066697273740000000000000000000000602082015250565b6000612061603583611e6a565b915061206c82612005565b604082019050919050565b6000602082019050818103600083015261209081612054565b9050919050565b7f596f7572206f7264657253697a652069732067726561746572207468616e207960008201527f6f7572207374616b696e672062616c616e636521204465706f736974206d6f7260208201527f6520444149000000000000000000000000000000000000000000000000000000604082015250565b6000612119604583611e6a565b915061212482612097565b606082019050919050565b600060208201905081810360008301526121488161210c565b9050919050565b7f4e487b7100000000000000000000000000000000000000000000000000000000600052601260045260246000fd5b600061218982611761565b915061219483611761565b9250826121a4576121a361214f565b5b828204905092915050565b600080fd5b6000815190506121c381611d02565b92915050565b6000815190506121d881611d46565b92915050565b6000815190506121ed8161176b565b92915050565b600060808284031215612209576122086121af565b5b6122136080611c27565b90506000612223848285016121b4565b6000830152506020612237848285016121c9565b602083015250604061224b848285016121de565b604083015250606061225f848285016121de565b60608301525092915050565b61227481611b4d565b811461227f57600080fd5b50565b6000815190506122918161226b565b92915050565b600061ffff82169050919050565b6122ae81612297565b81146122b957600080fd5b50565b6000815190506122cb816122a5565b92915050565b6000815190506122e081611820565b92915050565b600061018082840312156122fd576122fc6121af565b5b612308610180611c27565b90506000612318848285016121b4565b600083015250602061232c848285016121b4565b602083015250604061234084828501612282565b6040830152506060612354848285016121b4565b606083015250608061236884828501612282565b60808301525060a061237c848285016122bc565b60a08301525060c0612390848285016121c9565b60c08301525060e06123a4848285016121b4565b60e0830152506101006123b9848285016121de565b610100830152506101206123cf848285016121de565b610120830152506101406123e5848285016122d1565b610140830152506101606123fb848285016122d1565b6101608301525092915050565b600067ffffffffffffffff82111561242357612422611bc7565b5b602082029050602081019050919050565b600061244761244284612408565b611c27565b9050808382526020820190506020840283018581111561246a57612469611961565b5b835b81811015612493578061247f88826122d1565b84526020840193505060208101905061246c565b5050509392505050565b600082601f8301126124b2576124b1611957565b5b81516124c2848260208601612434565b91505092915050565b600080600061022084860312156124e5576124e4611757565b5b60006124f3868287016121f3565b9350506080612504868287016122e6565b92505061020084015167ffffffffffffffff8111156125265761252561175c565b5b6125328682870161249d565b9150509250925092565b6000819050919050565b61255761255282611761565b61253c565b82525050565b60006125698284612546565b60208201915081905092915050565b600081519050919050565b600061258e82612578565b6125988185611e6a565b93506125a8818560208601611aa9565b6125b181611ad3565b840191505092915050565b7f3078000000000000000000000000000000000000000000000000000000000000600082015250565b60006125f2600283611e6a565b91506125fd826125bc565b602082019050919050565b61261181611cf2565b82525050565b61262081611d2e565b82525050565b6000819050919050565b600060ff82169050919050565b600061265861265361264e84612626565b6118b3565b612630565b9050919050565b6126688161263d565b82525050565b6000610120820190508181036000830152612689818b612583565b9050818103602083015261269c816125e5565b90506126ab604083018a61192d565b6126b86060830189612608565b6126c5608083018861192d565b81810360a08301526126d78187611ae4565b90506126e660c0830186612617565b6126f360e083018561265f565b61270161010083018461192d565b9998505050505050505050565b60007fffffffff0000000000000000000000000000000000000000000000000000000082169050919050565b6000819050919050565b6127556127508261270e565b61273a565b82525050565b600081905092915050565b600061277182611a8d565b61277b818561275b565b935061278b818560208601611aa9565b80840191505092915050565b60006127a38285612744565b6004820191506127b38284612766565b91508190509392505050565b60006127da6127d56127d084611d2e565b6118b3565b611761565b9050919050565b6127ea816127bf565b82525050565b6000606082019050612805600083018661192d565b61281260208301856127e1565b81810360408301526128248184611ae4565b9050949350505050565b61283781611a72565b811461284257600080fd5b50565b6000815190506128548161282e565b92915050565b6000602082840312156128705761286f611757565b5b600061287e84828501612845565b91505092915050565b600061289282611761565b915061289d83611761565b92508282039050818111156128b5576128b4611fa2565b5b92915050565b6000819050919050565b6000819050919050565b6128e06128db826128bb565b6128c5565b82525050565b60008160601b9050919050565b60006128fe826128e6565b9050919050565b6000612910826128f3565b9050919050565b6129286129238261180e565b612905565b82525050565b60008160e01b9050919050565b60006129468261292e565b9050919050565b61295e61295982611cf2565b61293b565b82525050565b600061297082866128cf565b6020820191506129808285612917565b601482019150612990828461294d565b600482019150819050949350505050565b7f616d6f756e742073686f756c64206265203e2030000000000000000000000000600082015250565b60006129d7601483611e6a565b91506129e2826129a1565b602082019050919050565b60006020820190508181036000830152612a06816129ca565b9050919050565b6000604082019050612a22600083018561192d565b612a2f60208301846117c4565b9392505050565b6000612a428284612766565b915081905092915050565b7f5354000000000000000000000000000000000000000000000000000000000000600082015250565b6000612a83600283611e6a565b9150612a8e82612a4d565b602082019050919050565b60006020820190508181036000830152612ab281612a76565b9050919050565b7f5468652073656e64657220646f6573206e6f742068617665207374616b65642060008201527f656e6f7567682044414900000000000000000000000000000000000000000000602082015250565b6000612b15602a83611e6a565b9150612b2082612ab9565b604082019050919050565b60006020820190508181036000830152612b4481612b08565b9050919050565b612b548161180e565b82525050565b612b6381611b4d565b82525050565b612b7281611761565b82525050565b612b81816117ee565b82525050565b61010082016000820151612b9e6000850182612b4b565b506020820151612bb16020850182612b4b565b506040820151612bc46040850182612b5a565b506060820151612bd76060850182612b4b565b506080820151612bea6080850182612b69565b5060a0820151612bfd60a0850182612b69565b5060c0820151612c1060c0850182612b69565b5060e0820151612c2360e0850182612b78565b50505050565b600061010082019050612c3f6000830184612b87565b92915050565b600060208284031215612c5b57612c5a611757565b5b6000612c69848285016121de565b91505092915050565b6000606082019050612c87600083018661192d565b612c94602083018561192d565b612ca160408301846117c4565b949350505050565b7f5354460000000000000000000000000000000000000000000000000000000000600082015250565b6000612cdf600383611e6a565b9150612cea82612ca9565b602082019050919050565b60006020820190508181036000830152612d0e81612cd2565b9050919050565b7f5341000000000000000000000000000000000000000000000000000000000000600082015250565b6000612d4b600283611e6a565b9150612d5682612d15565b602082019050919050565b60006020820190508181036000830152612d7a81612d3e565b905091905056fea264697066735822122062f947ea80b695d1cef122deab95039016e4da340c3290261e46a589f6cde0be64736f6c63430008110033",
  "devdoc": {
    "kind": "dev",
    "methods": {},
    "version": 1
  },
  "userdoc": {
    "kind": "user",
    "methods": {},
    "version": 1
  },
  "storageLayout": {
    "storage": [
      {
        "astId": 2359,
        "contract": "contracts/TradingBotV2.sol:TradingBotV2",
        "label": "_status",
        "offset": 0,
        "slot": "0",
        "type": "t_uint256"
      },
      {
        "astId": 2889,
        "contract": "contracts/TradingBotV2.sol:TradingBotV2",
        "label": "_counterIDCounter",
        "offset": 0,
        "slot": "1",
        "type": "t_struct(Counter)2472_storage"
      },
      {
        "astId": 2894,
        "contract": "contracts/TradingBotV2.sol:TradingBotV2",
        "label": "counterToDcaBot",
        "offset": 0,
        "slot": "2",
        "type": "t_mapping(t_uint256,t_struct(DcaBot)2873_storage)"
      },
      {
        "astId": 2898,
        "contract": "contracts/TradingBotV2.sol:TradingBotV2",
        "label": "counterToUpkeepID",
        "offset": 0,
        "slot": "3",
        "type": "t_mapping(t_uint256,t_uint256)"
      },
      {
        "astId": 2911,
        "contract": "contracts/TradingBotV2.sol:TradingBotV2",
        "label": "registerSig",
        "offset": 0,
        "slot": "4",
        "type": "t_bytes4"
      },
      {
        "astId": 2922,
        "contract": "contracts/TradingBotV2.sol:TradingBotV2",
        "label": "stakingBalance",
        "offset": 0,
        "slot": "5",
        "type": "t_mapping(t_address,t_uint256)"
      },
      {
        "astId": 2926,
        "contract": "contracts/TradingBotV2.sol:TradingBotV2",
        "label": "tradingBalance",
        "offset": 0,
        "slot": "6",
        "type": "t_mapping(t_address,t_uint256)"
      }
    ],
    "types": {
      "t_address": {
        "encoding": "inplace",
        "label": "address",
        "numberOfBytes": "20"
      },
      "t_bytes4": {
        "encoding": "inplace",
        "label": "bytes4",
        "numberOfBytes": "4"
      },
      "t_mapping(t_address,t_uint256)": {
        "encoding": "mapping",
        "key": "t_address",
        "label": "mapping(address => uint256)",
        "numberOfBytes": "32",
        "value": "t_uint256"
      },
      "t_mapping(t_uint256,t_struct(DcaBot)2873_storage)": {
        "encoding": "mapping",
        "key": "t_uint256",
        "label": "mapping(uint256 => struct DcaBot)",
        "numberOfBytes": "32",
        "value": "t_struct(DcaBot)2873_storage"
      },
      "t_mapping(t_uint256,t_uint256)": {
        "encoding": "mapping",
        "key": "t_uint256",
        "label": "mapping(uint256 => uint256)",
        "numberOfBytes": "32",
        "value": "t_uint256"
      },
      "t_struct(Counter)2472_storage": {
        "encoding": "inplace",
        "label": "struct Counters.Counter",
        "members": [
          {
            "astId": 2471,
            "contract": "contracts/TradingBotV2.sol:TradingBotV2",
            "label": "_value",
            "offset": 0,
            "slot": "0",
            "type": "t_uint256"
          }
        ],
        "numberOfBytes": "32"
      },
      "t_struct(DcaBot)2873_storage": {
        "encoding": "inplace",
        "label": "struct DcaBot",
        "members": [
          {
            "astId": 2862,
            "contract": "contracts/TradingBotV2.sol:TradingBotV2",
            "label": "owner",
            "offset": 0,
            "slot": "0",
            "type": "t_address"
          },
          {
            "astId": 2864,
            "contract": "contracts/TradingBotV2.sol:TradingBotV2",
            "label": "orderInterval",
            "offset": 0,
            "slot": "1",
            "type": "t_uint256"
          },
          {
            "astId": 2866,
            "contract": "contracts/TradingBotV2.sol:TradingBotV2",
            "label": "orderSize",
            "offset": 0,
            "slot": "2",
            "type": "t_uint256"
          },
          {
            "astId": 2868,
            "contract": "contracts/TradingBotV2.sol:TradingBotV2",
            "label": "lastTimeStamp",
            "offset": 0,
            "slot": "3",
            "type": "t_uint256"
          },
          {
            "astId": 2870,
            "contract": "contracts/TradingBotV2.sol:TradingBotV2",
            "label": "counter",
            "offset": 0,
            "slot": "4",
            "type": "t_uint256"
          },
          {
            "astId": 2872,
            "contract": "contracts/TradingBotV2.sol:TradingBotV2",
            "label": "maxNumberOfOrders",
            "offset": 0,
            "slot": "5",
            "type": "t_uint256"
          }
        ],
        "numberOfBytes": "192"
      },
      "t_uint256": {
        "encoding": "inplace",
        "label": "uint256",
        "numberOfBytes": "32"
      }
    }
  }
}