{
  "address": "0x490F8F0DA233fBE857E915889851Ae01251Eb5aE",
  "abi": [
    {
      "inputs": [
        {
          "internalType": "contract LinkTokenInterface",
          "name": "_link",
          "type": "address"
        },
        {
          "internalType": "address",
          "name": "_registrar",
          "type": "address"
        },
        {
          "internalType": "contract AutomationRegistryInterface",
          "name": "_registry",
          "type": "address"
        },
        {
          "internalType": "contract ISwapRouter",
          "name": "_swapRouter",
          "type": "address"
        },
        {
          "internalType": "address",
          "name": "_stakedToken",
          "type": "address"
        },
        {
          "internalType": "address",
          "name": "_tradedToken",
          "type": "address"
        },
        {
          "internalType": "address",
          "name": "_chainlinkOracle",
          "type": "address"
        },
        {
          "internalType": "bytes32",
          "name": "_getPriceJobId",
          "type": "bytes32"
        },
        {
          "internalType": "uint256",
          "name": "_getPriceFee",
          "type": "uint256"
        }
      ],
      "stateMutability": "nonpayable",
      "type": "constructor"
    },
    {
      "inputs": [],
      "name": "AutoApproveDisabled",
      "type": "error"
    },
    {
      "inputs": [
        {
          "internalType": "bytes32",
          "name": "requestId",
          "type": "bytes32"
        }
      ],
      "name": "NoCounterIDAssociated",
      "type": "error"
    },
    {
      "inputs": [
        {
          "internalType": "uint256",
          "name": "currentTimeStamp",
          "type": "uint256"
        },
        {
          "internalType": "uint256",
          "name": "lastTimeStamp",
          "type": "uint256"
        }
      ],
      "name": "UpkeepNotNeeded",
      "type": "error"
    },
    {
      "anonymous": false,
      "inputs": [
        {
          "indexed": true,
          "internalType": "bytes32",
          "name": "id",
          "type": "bytes32"
        }
      ],
      "name": "ChainlinkCancelled",
      "type": "event"
    },
    {
      "anonymous": false,
      "inputs": [
        {
          "indexed": true,
          "internalType": "bytes32",
          "name": "id",
          "type": "bytes32"
        }
      ],
      "name": "ChainlinkFulfilled",
      "type": "event"
    },
    {
      "anonymous": false,
      "inputs": [
        {
          "indexed": true,
          "internalType": "bytes32",
          "name": "id",
          "type": "bytes32"
        }
      ],
      "name": "ChainlinkRequested",
      "type": "event"
    },
    {
      "anonymous": false,
      "inputs": [
        {
          "indexed": false,
          "internalType": "string",
          "name": "url",
          "type": "string"
        }
      ],
      "name": "ConcatenatedURL",
      "type": "event"
    },
    {
      "anonymous": false,
      "inputs": [
        {
          "indexed": false,
          "internalType": "bytes32",
          "name": "requestId",
          "type": "bytes32"
        },
        {
          "indexed": false,
          "internalType": "uint256",
          "name": "price",
          "type": "uint256"
        }
      ],
      "name": "FullfillPrice",
      "type": "event"
    },
    {
      "anonymous": false,
      "inputs": [
        {
          "indexed": false,
          "internalType": "address",
          "name": "sender",
          "type": "address"
        },
        {
          "indexed": false,
          "internalType": "address",
          "name": "tokenIn",
          "type": "address"
        },
        {
          "indexed": false,
          "internalType": "address",
          "name": "tokenOut",
          "type": "address"
        },
        {
          "indexed": false,
          "internalType": "uint256",
          "name": "amountIn",
          "type": "uint256"
        },
        {
          "indexed": false,
          "internalType": "uint256",
          "name": "amountOutMinimum",
          "type": "uint256"
        }
      ],
      "name": "SwapTokensForTokens",
      "type": "event"
    },
    {
      "inputs": [
        {
          "internalType": "uint256",
          "name": "",
          "type": "uint256"
        }
      ],
      "name": "botIdToBotObj",
      "outputs": [
        {
          "internalType": "address",
          "name": "owner",
          "type": "address"
        },
        {
          "internalType": "uint256",
          "name": "orderInterval",
          "type": "uint256"
        },
        {
          "internalType": "uint256",
          "name": "orderSize",
          "type": "uint256"
        },
        {
          "internalType": "uint256",
          "name": "lastTimeStamp",
          "type": "uint256"
        },
        {
          "internalType": "uint256",
          "name": "counter",
          "type": "uint256"
        },
        {
          "internalType": "uint256",
          "name": "maxNumberOfOrders",
          "type": "uint256"
        }
      ],
      "stateMutability": "view",
      "type": "function"
    },
    {
      "inputs": [
        {
          "internalType": "uint256",
          "name": "",
          "type": "uint256"
        }
      ],
      "name": "botIdToUpkeepId",
      "outputs": [
        {
          "internalType": "uint256",
          "name": "",
          "type": "uint256"
        }
      ],
      "stateMutability": "view",
      "type": "function"
    },
    {
      "inputs": [
        {
          "internalType": "bytes",
          "name": "checkData",
          "type": "bytes"
        }
      ],
      "name": "checkUpkeep",
      "outputs": [
        {
          "internalType": "bool",
          "name": "upkeepNeeded",
          "type": "bool"
        },
        {
          "internalType": "bytes",
          "name": "performData",
          "type": "bytes"
        }
      ],
      "stateMutability": "view",
      "type": "function"
    },
    {
      "inputs": [
        {
          "internalType": "address",
          "name": "owner",
          "type": "address"
        },
        {
          "internalType": "uint256",
          "name": "orderInterval",
          "type": "uint256"
        },
        {
          "internalType": "uint256",
          "name": "orderSize",
          "type": "uint256"
        },
        {
          "internalType": "uint256",
          "name": "maxNumberOfOrders",
          "type": "uint256"
        }
      ],
      "name": "createNewBotInstance",
      "outputs": [
        {
          "internalType": "uint256",
          "name": "",
          "type": "uint256"
        }
      ],
      "stateMutability": "nonpayable",
      "type": "function"
    },
    {
      "inputs": [],
      "name": "feeTier",
      "outputs": [
        {
          "internalType": "uint24",
          "name": "",
          "type": "uint24"
        }
      ],
      "stateMutability": "view",
      "type": "function"
    },
    {
      "inputs": [
        {
          "internalType": "bytes32",
          "name": "_requestId",
          "type": "bytes32"
        },
        {
          "internalType": "uint256",
          "name": "_price",
          "type": "uint256"
        }
      ],
      "name": "fulfill",
      "outputs": [],
      "stateMutability": "nonpayable",
      "type": "function"
    },
    {
      "inputs": [],
      "name": "i_getPriceFee",
      "outputs": [
        {
          "internalType": "uint256",
          "name": "",
          "type": "uint256"
        }
      ],
      "stateMutability": "view",
      "type": "function"
    },
    {
      "inputs": [],
      "name": "i_getPriceJobId",
      "outputs": [
        {
          "internalType": "bytes32",
          "name": "",
          "type": "bytes32"
        }
      ],
      "stateMutability": "view",
      "type": "function"
    },
    {
      "inputs": [],
      "name": "i_link",
      "outputs": [
        {
          "internalType": "contract LinkTokenInterface",
          "name": "",
          "type": "address"
        }
      ],
      "stateMutability": "view",
      "type": "function"
    },
    {
      "inputs": [],
      "name": "i_registry",
      "outputs": [
        {
          "internalType": "contract AutomationRegistryInterface",
          "name": "",
          "type": "address"
        }
      ],
      "stateMutability": "view",
      "type": "function"
    },
    {
      "inputs": [],
      "name": "i_stakedToken",
      "outputs": [
        {
          "internalType": "address",
          "name": "",
          "type": "address"
        }
      ],
      "stateMutability": "view",
      "type": "function"
    },
    {
      "inputs": [],
      "name": "i_stakedTokenSymbol",
      "outputs": [
        {
          "internalType": "bytes32",
          "name": "",
          "type": "bytes32"
        }
      ],
      "stateMutability": "view",
      "type": "function"
    },
    {
      "inputs": [],
      "name": "i_swapRouter",
      "outputs": [
        {
          "internalType": "contract ISwapRouter",
          "name": "",
          "type": "address"
        }
      ],
      "stateMutability": "view",
      "type": "function"
    },
    {
      "inputs": [],
      "name": "i_tradedToken",
      "outputs": [
        {
          "internalType": "address",
          "name": "",
          "type": "address"
        }
      ],
      "stateMutability": "view",
      "type": "function"
    },
    {
      "inputs": [],
      "name": "i_tradedTokenSymbol",
      "outputs": [
        {
          "internalType": "bytes32",
          "name": "",
          "type": "bytes32"
        }
      ],
      "stateMutability": "view",
      "type": "function"
    },
    {
      "inputs": [],
      "name": "lastError",
      "outputs": [
        {
          "internalType": "string",
          "name": "",
          "type": "string"
        }
      ],
      "stateMutability": "view",
      "type": "function"
    },
    {
      "inputs": [
        {
          "internalType": "bytes",
          "name": "performData",
          "type": "bytes"
        }
      ],
      "name": "performUpkeep",
      "outputs": [],
      "stateMutability": "nonpayable",
      "type": "function"
    },
    {
      "inputs": [],
      "name": "price",
      "outputs": [
        {
          "internalType": "uint256",
          "name": "",
          "type": "uint256"
        }
      ],
      "stateMutability": "view",
      "type": "function"
    },
    {
      "inputs": [
        {
          "internalType": "string",
          "name": "name",
          "type": "string"
        },
        {
          "internalType": "uint32",
          "name": "gasLimit",
          "type": "uint32"
        },
        {
          "internalType": "uint96",
          "name": "fundingAmount",
          "type": "uint96"
        },
        {
          "internalType": "uint256",
          "name": "orderInterval",
          "type": "uint256"
        },
        {
          "internalType": "uint256",
          "name": "orderSize",
          "type": "uint256"
        }
      ],
      "name": "registerNewAutomation",
      "outputs": [],
      "stateMutability": "nonpayable",
      "type": "function"
    },
    {
      "inputs": [],
      "name": "registrar",
      "outputs": [
        {
          "internalType": "address",
          "name": "",
          "type": "address"
        }
      ],
      "stateMutability": "view",
      "type": "function"
    },
    {
      "inputs": [],
      "name": "requestConsumerSentimentData",
      "outputs": [
        {
          "internalType": "uint256",
          "name": "consumerSentiment",
          "type": "uint256"
        }
      ],
      "stateMutability": "pure",
      "type": "function"
    },
    {
      "inputs": [
        {
          "internalType": "bytes32",
          "name": "",
          "type": "bytes32"
        }
      ],
      "name": "requestIdToBotId",
      "outputs": [
        {
          "internalType": "uint256",
          "name": "",
          "type": "uint256"
        }
      ],
      "stateMutability": "view",
      "type": "function"
    },
    {
      "inputs": [],
      "name": "requestInflationData",
      "outputs": [
        {
          "internalType": "uint256",
          "name": "yoyInflation",
          "type": "uint256"
        }
      ],
      "stateMutability": "pure",
      "type": "function"
    },
    {
      "inputs": [
        {
          "internalType": "uint256",
          "name": "botId",
          "type": "uint256"
        }
      ],
      "name": "requestPriceAndSwapToken",
      "outputs": [
        {
          "internalType": "bytes32",
          "name": "requestId",
          "type": "bytes32"
        }
      ],
      "stateMutability": "nonpayable",
      "type": "function"
    },
    {
      "inputs": [
        {
          "internalType": "uint256",
          "name": "stakingAmount",
          "type": "uint256"
        }
      ],
      "name": "stake",
      "outputs": [],
      "stateMutability": "nonpayable",
      "type": "function"
    },
    {
      "inputs": [
        {
          "internalType": "address",
          "name": "",
          "type": "address"
        }
      ],
      "name": "stakingBalance",
      "outputs": [
        {
          "internalType": "uint256",
          "name": "",
          "type": "uint256"
        }
      ],
      "stateMutability": "view",
      "type": "function"
    },
    {
      "inputs": [],
      "name": "swapSlippage",
      "outputs": [
        {
          "internalType": "uint8",
          "name": "",
          "type": "uint8"
        }
      ],
      "stateMutability": "view",
      "type": "function"
    },
    {
      "inputs": [
        {
          "internalType": "address",
          "name": "sender",
          "type": "address"
        },
        {
          "internalType": "address",
          "name": "tokenIn",
          "type": "address"
        },
        {
          "internalType": "address",
          "name": "tokenOut",
          "type": "address"
        },
        {
          "internalType": "uint256",
          "name": "amountIn",
          "type": "uint256"
        },
        {
          "internalType": "uint256",
          "name": "amountOutMinimum",
          "type": "uint256"
        }
      ],
      "name": "swapTokensForTokens",
      "outputs": [
        {
          "internalType": "uint256",
          "name": "amountOut",
          "type": "uint256"
        }
      ],
      "stateMutability": "nonpayable",
      "type": "function"
    },
    {
      "inputs": [
        {
          "internalType": "address",
          "name": "",
          "type": "address"
        }
      ],
      "name": "tradingBalance",
      "outputs": [
        {
          "internalType": "uint256",
          "name": "",
          "type": "uint256"
        }
      ],
      "stateMutability": "view",
      "type": "function"
    },
    {
      "inputs": [],
      "name": "unstake",
      "outputs": [],
      "stateMutability": "nonpayable",
      "type": "function"
    }
  ],
  "transactionHash": "0xb62b4ad4c6b0506997f06b97df21b032370f6502ceda40a7c0fdbf3e704bdb3f",
  "args": [
    "0x326C977E6efc84E512bB9C30f76E30c160eD06FB",
    "0x9806cf6fBc89aBF286e8140C42174B94836e36F2",
    "0x02777053d6764996e594c3E88AF1D58D5363a2e6",
    "0xE592427A0AEce92De3Edee1F18E0157C05861564",
    "0xB4FBF271143F4FBf7B91A5ded31805e42b2208d6",
    "0x1f9840a85d5aF5bf1D1762F925BDADdC4201F984",
    "0xD189e75a64989E4d2cDBAefcDDB4BD931e299121",
    "0x3839613362646238626464623433303861336633336233666432313564613035",
    "100000000000000000"
  ],
  "numDeployments": 20,
  "solcInputHash": "cc793a51eb8bd66b1cb16c995b909e22",
  "bytecode": "0x6101c06040526001600555633659d66660e01b600b60006101000a81548163ffffffff021916908360e01c02179055503480156200003c57600080fd5b50604051620057f4380380620057f4833981810160405281019062000062919062000576565b60016000819055508873ffffffffffffffffffffffffffffffffffffffff1660808173ffffffffffffffffffffffffffffffffffffffff16815250508773ffffffffffffffffffffffffffffffffffffffff1660a08173ffffffffffffffffffffffffffffffffffffffff16815250508673ffffffffffffffffffffffffffffffffffffffff1660c08173ffffffffffffffffffffffffffffffffffffffff16815250508573ffffffffffffffffffffffffffffffffffffffff1660e08173ffffffffffffffffffffffffffffffffffffffff16815250508473ffffffffffffffffffffffffffffffffffffffff166101008173ffffffffffffffffffffffffffffffffffffffff16815250508373ffffffffffffffffffffffffffffffffffffffff166101208173ffffffffffffffffffffffffffffffffffffffff16815250506200022b8573ffffffffffffffffffffffffffffffffffffffff166395d89b416040518163ffffffff1660e01b8152600401600060405180830381865afa158015620001f4573d6000803e3d6000fd5b505050506040513d6000823e3d601f19601f820116820180604052508101906200021f9190620007d4565b6200030560201b60201c565b6101408181525050620002ba8473ffffffffffffffffffffffffffffffffffffffff166395d89b416040518163ffffffff1660e01b8152600401600060405180830381865afa15801562000283573d6000803e3d6000fd5b505050506040513d6000823e3d601f19601f82011682018060405250810190620002ae9190620007d4565b6200030560201b60201c565b6101608181525050620002d3896200033060201b60201c565b620002e4836200037460201b60201c565b816101808181525050806101a0818152505050505050505050505062000825565b600080829050600081510362000322576000801b9150506200032b565b60208301519150505b919050565b80600360006101000a81548173ffffffffffffffffffffffffffffffffffffffff021916908373ffffffffffffffffffffffffffffffffffffffff16021790555050565b80600460006101000a81548173ffffffffffffffffffffffffffffffffffffffff021916908373ffffffffffffffffffffffffffffffffffffffff16021790555050565b6000604051905090565b600080fd5b600080fd5b600073ffffffffffffffffffffffffffffffffffffffff82169050919050565b6000620003f982620003cc565b9050919050565b60006200040d82620003ec565b9050919050565b6200041f8162000400565b81146200042b57600080fd5b50565b6000815190506200043f8162000414565b92915050565b6200045081620003ec565b81146200045c57600080fd5b50565b600081519050620004708162000445565b92915050565b60006200048382620003ec565b9050919050565b620004958162000476565b8114620004a157600080fd5b50565b600081519050620004b5816200048a565b92915050565b6000620004c882620003ec565b9050919050565b620004da81620004bb565b8114620004e657600080fd5b50565b600081519050620004fa81620004cf565b92915050565b6000819050919050565b620005158162000500565b81146200052157600080fd5b50565b60008151905062000535816200050a565b92915050565b6000819050919050565b62000550816200053b565b81146200055c57600080fd5b50565b600081519050620005708162000545565b92915050565b60008060008060008060008060006101208a8c0312156200059c576200059b620003c2565b5b6000620005ac8c828d016200042e565b9950506020620005bf8c828d016200045f565b9850506040620005d28c828d01620004a4565b9750506060620005e58c828d01620004e9565b9650506080620005f88c828d016200045f565b95505060a06200060b8c828d016200045f565b94505060c06200061e8c828d016200045f565b93505060e0620006318c828d0162000524565b925050610100620006458c828d016200055f565b9150509295985092959850929598565b600080fd5b600080fd5b6000601f19601f8301169050919050565b7f4e487b7100000000000000000000000000000000000000000000000000000000600052604160045260246000fd5b620006aa826200065f565b810181811067ffffffffffffffff82111715620006cc57620006cb62000670565b5b80604052505050565b6000620006e1620003b8565b9050620006ef82826200069f565b919050565b600067ffffffffffffffff82111562000712576200071162000670565b5b6200071d826200065f565b9050602081019050919050565b60005b838110156200074a5780820151818401526020810190506200072d565b60008484015250505050565b60006200076d6200076784620006f4565b620006d5565b9050828152602081018484840111156200078c576200078b6200065a565b5b620007998482856200072a565b509392505050565b600082601f830112620007b957620007b862000655565b5b8151620007cb84826020860162000756565b91505092915050565b600060208284031215620007ed57620007ec620003c2565b5b600082015167ffffffffffffffff8111156200080e576200080d620003c7565b5b6200081c84828501620007a1565b91505092915050565b60805160a05160c05160e05161010051610120516101405161016051610180516101a051614ee36200091160003960008181610b72015261149c01526000818161133f01526118fd0152600081816113120152611afd0152600081816112e50152611b2101526000818161083f0152610b3a0152600081816107e80152818161081b01528181610b190152818161159e01526119cf015260008181610c4101528181611673015261173801526000818161068401528181610f5701528181611158015261122a0152600081816106a801526110a301526000818161106701526119210152614ee36000f3fe608060405234801561001057600080fd5b50600436106101da5760003560e01c806372f5d98a1161010457806396372594116100a2578063ab45787511610071578063ab45787514610565578063ac8fda1014610595578063b48c423b146105b3578063ccd6d412146105d1576101da565b806396372594146104d8578063a035b1fe146104f6578063a694fc3a14610514578063a776fb9414610530576101da565b806379851a34116100de57806379851a341461043c5780637d253aff1461045a5780638cdec8221461047857806390c66660146104a8576101da565b806372f5d98a146103be5780637556dfd3146103dc57806377783ca91461040c576101da565b80634357855e1161017c57806358fb80541161014b57806358fb80541461032357806364ff3e78146103415780636e04ff0d146103715780637080bf47146103a2576101da565b80634357855e1461029d57806345150973146102b95780634585e33b146102d757806345bc78ab146102f3576101da565b80632b20e397116101b85780632b20e397146102395780632def6620146102575780632e276ffd1461026157806339b394061461027f576101da565b80631aedeabe146101df57806329f0de3f146101fd5780632a6636061461021b575b600080fd5b6101e76105ef565b6040516101f49190612c48565b60405180910390f35b6102056105f4565b6040516102129190612cf3565b60405180910390f35b610223610682565b6040516102309190612d94565b60405180910390f35b6102416106a6565b60405161024e9190612dd0565b60405180910390f35b61025f6106ca565b005b610269610819565b6040516102769190612dd0565b60405180910390f35b61028761083d565b6040516102949190612dd0565b60405180910390f35b6102b760048036038101906102b29190612e6b565b610861565b005b6102c1610b70565b6040516102ce9190612eba565b60405180910390f35b6102f160048036038101906102ec9190612f3a565b610b94565b005b61030d60048036038101906103089190612fb3565b610c27565b60405161031a9190612eba565b60405180910390f35b61032b610c3f565b6040516103389190613001565b60405180910390f35b61035b6004803603810190610356919061301c565b610c63565b6040516103689190612eba565b60405180910390f35b61038b60048036038101906103869190612f3a565b610d8c565b6040516103999291906130f3565b60405180910390f35b6103bc60048036038101906103b791906132d3565b610dfd565b005b6103c66112d7565b6040516103d39190613388565b60405180910390f35b6103f660048036038101906103f191906133a3565b6112dd565b60405161040391906133df565b60405180910390f35b610426600480360381019061042191906133fa565b6114e2565b6040516104339190612eba565b60405180910390f35b6104446118fb565b60405161045191906133df565b60405180910390f35b61046261191f565b60405161046f9190613496565b60405180910390f35b610492600480360381019061048d91906134b1565b611943565b60405161049f9190612eba565b60405180910390f35b6104c260048036038101906104bd91906133a3565b61195b565b6040516104cf9190612eba565b60405180910390f35b6104e0611973565b6040516104ed9190612eba565b60405180910390f35b6104fe611981565b60405161050b9190612eba565b60405180910390f35b61052e600480360381019061052991906133a3565b611987565b005b61054a600480360381019061054591906133a3565b611a87565b60405161055c969594939291906134de565b60405180910390f35b61057f600480360381019061057a9190612fb3565b611ae3565b60405161058c9190612eba565b60405180910390f35b61059d611afb565b6040516105aa91906133df565b60405180910390f35b6105bb611b1f565b6040516105c891906133df565b60405180910390f35b6105d9611b43565b6040516105e69190612eba565b60405180910390f35b600a81565b600f80546106019061356e565b80601f016020809104026020016040519081016040528092919081815260200182805461062d9061356e565b801561067a5780601f1061064f5761010080835404028352916020019161067a565b820191906000526020600020905b81548152906001019060200180831161065d57829003601f168201915b505050505081565b7f000000000000000000000000000000000000000000000000000000000000000081565b7f000000000000000000000000000000000000000000000000000000000000000081565b60026000540361070f576040517f08c379a0000000000000000000000000000000000000000000000000000000008152600401610706906135eb565b60405180910390fd5b60026000819055506000600c60003373ffffffffffffffffffffffffffffffffffffffff1673ffffffffffffffffffffffffffffffffffffffff1681526020019081526020016000205490506000811161079e576040517f08c379a00000000000000000000000000000000000000000000000000000000081526004016107959061367d565b60405180910390fd5b6000600c60003373ffffffffffffffffffffffffffffffffffffffff1673ffffffffffffffffffffffffffffffffffffffff1681526020019081526020016000208190555061080e7f00000000000000000000000000000000000000000000000000000000000000003383611b51565b506001600081905550565b7f000000000000000000000000000000000000000000000000000000000000000081565b7f000000000000000000000000000000000000000000000000000000000000000081565b816006600082815260200190815260200160002060009054906101000a900473ffffffffffffffffffffffffffffffffffffffff1673ffffffffffffffffffffffffffffffffffffffff163373ffffffffffffffffffffffffffffffffffffffff1614610903576040517f08c379a00000000000000000000000000000000000000000000000000000000081526004016108fa9061370f565b60405180910390fd5b6006600082815260200190815260200160002060006101000a81549073ffffffffffffffffffffffffffffffffffffffff0219169055807f7cc135e0cebb02c3480ae5d74d377283180a2601f8f644edf7987b009316c63a60405160405180910390a27fb96e12cc3e842b19473cb569fb361ed37ce916cd6870f81d591b73828908964c838360405161099792919061372f565b60405180910390a181600e819055506000600a60008581526020019081526020016000205490506000600860008381526020019081526020016000206040518060c00160405290816000820160009054906101000a900473ffffffffffffffffffffffffffffffffffffffff1673ffffffffffffffffffffffffffffffffffffffff1673ffffffffffffffffffffffffffffffffffffffff16815260200160018201548152602001600282015481526020016003820154815260200160048201548152602001600582015481525050905060018160800151610a799190613787565b8160800181815250506000816040015103610abd57604051806060016040528060218152602001614e3e60219139600f9081610ab5919061395d565b505050610b6b565b6000670de0b6b3a7640000826040015186610ad89190613a2f565b610ae29190613aa0565b905060006064600a60ff1683610af89190613a2f565b610b029190613aa0565b82610b0d9190613ad1565b9050610b6583600001517f00000000000000000000000000000000000000000000000000000000000000007f0000000000000000000000000000000000000000000000000000000000000000866040015160006114e2565b50505050505b505050565b7f000000000000000000000000000000000000000000000000000000000000000081565b60008282810190610ba591906133a3565b90506000600860008381526020019081526020016000209050610bc782611ca6565b610c0e574281600301546040517fa7586210000000000000000000000000000000000000000000000000000000008152600401610c05929190613b05565b60405180910390fd5b428160030181905550610c20826112dd565b5050505050565b600c6020528060005260406000206000915090505481565b7f000000000000000000000000000000000000000000000000000000000000000081565b600080610c706007611cee565b9050610c7c6007611cfc565b610c84612b59565b86816000019073ffffffffffffffffffffffffffffffffffffffff16908173ffffffffffffffffffffffffffffffffffffffff16815250508581602001818152505084816040018181525050428160600181815250506000816080018181525050838160a0018181525050806008600084815260200190815260200160002060008201518160000160006101000a81548173ffffffffffffffffffffffffffffffffffffffff021916908373ffffffffffffffffffffffffffffffffffffffff1602179055506020820151816001015560408201518160020155606082015181600301556080820151816004015560a082015181600501559050508192505050949350505050565b6000606060008484810190610da191906133a3565b9050610dac81611ca6565b925084848080601f016020809104026020016040519081016040528093929190818152602001838380828437600081840152601f19601f820116905080830192505050505050509150509250929050565b6000600c60003373ffffffffffffffffffffffffffffffffffffffff1673ffffffffffffffffffffffffffffffffffffffff1681526020019081526020016000205411610e7f576040517f08c379a0000000000000000000000000000000000000000000000000000000008152600401610e7690613ba0565b60405180910390fd5b80600c60003373ffffffffffffffffffffffffffffffffffffffff1673ffffffffffffffffffffffffffffffffffffffff168152602001908152602001600020541015610f01576040517f08c379a0000000000000000000000000000000000000000000000000000000008152600401610ef890613c58565b60405180910390fd5b600081600c60003373ffffffffffffffffffffffffffffffffffffffff1673ffffffffffffffffffffffffffffffffffffffff16815260200190815260200160002054610f4e9190613aa0565b905060008060007f000000000000000000000000000000000000000000000000000000000000000073ffffffffffffffffffffffffffffffffffffffff16631865c57d6040518163ffffffff1660e01b8152600401600060405180830381865afa158015610fc0573d6000803e3d6000fd5b505050506040513d6000823e3d601f19601f82011682018060405250810190610fe99190613f94565b9250925092506000836000015163ffffffff169050600061100c33898989610c63565b90506000816040516020016110219190614026565b604051602081830303815290604052905060008c308d33858f6000306040516020016110549897969594939291906140e6565b60405160208183030381529060405290507f000000000000000000000000000000000000000000000000000000000000000073ffffffffffffffffffffffffffffffffffffffff16634000aea07f00000000000000000000000000000000000000000000000000000000000000008d600b60009054906101000a900460e01b856040516020016110e592919061420f565b6040516020818303038152906040526040518463ffffffff1660e01b815260040161111293929190614268565b6020604051808303816000875af1158015611131573d6000803e3d6000fd5b505050506040513d601f19601f8201168201806040525081019061115591906142d2565b507f000000000000000000000000000000000000000000000000000000000000000073ffffffffffffffffffffffffffffffffffffffff16631865c57d6040518163ffffffff1660e01b8152600401600060405180830381865afa1580156111c1573d6000803e3d6000fd5b505050506040513d6000823e3d601f19601f820116820180604052508101906111ea9190613f94565b8097508198508299505050506000876000015163ffffffff1690506001856112129190613787565b81036112955760006001436112279190613ad1565b407f00000000000000000000000000000000000000000000000000000000000000008760405160200161125c9392919061439e565b6040516020818303038152906040528051906020012060001c9050806009600087815260200190815260200160002081905550506112c7565b6040517f6874c3d400000000000000000000000000000000000000000000000000000000815260040160405180910390fd5b5050505050505050505050505050565b610bb881565b6000806113097f0000000000000000000000000000000000000000000000000000000000000000611d12565b905060006113367f0000000000000000000000000000000000000000000000000000000000000000611d12565b9050600061136c7f000000000000000000000000000000000000000000000000000000000000000030634357855e60e01b611ead565b90506113d96040518060400160405280600381526020017f676574000000000000000000000000000000000000000000000000000000000081525084846040516020016113ba929190614521565b60405160208183030381529060405283611ede9092919063ffffffff16565b6114446040518060400160405280600481526020017f7061746800000000000000000000000000000000000000000000000000000000815250848460405160200161142592919061464a565b60405160208183030381529060405283611ede9092919063ffffffff16565b6114966040518060400160405280600581526020017f74696d6573000000000000000000000000000000000000000000000000000000815250670de0b6b3a764000083611f119092919063ffffffff16565b6114c0817f0000000000000000000000000000000000000000000000000000000000000000611f44565b935084600a600086815260200190815260200160002081905550505050919050565b60007f6c60dfa77621202c19886a83d996f4a7c764b2200c5f7cad231798add53179c2868686868660405161151b95949392919061468f565b60405180910390a182600c60008873ffffffffffffffffffffffffffffffffffffffff1673ffffffffffffffffffffffffffffffffffffffff16815260200190815260200160002054101561159b57604051806060016040528060298152602001614e8560299139600f9081611591919061395d565b50600090506118f2565b827f000000000000000000000000000000000000000000000000000000000000000073ffffffffffffffffffffffffffffffffffffffff166370a08231306040518263ffffffff1660e01b81526004016115f59190612dd0565b602060405180830381865afa158015611612573d6000803e3d6000fd5b505050506040513d601f19601f8201168201806040525081019061163691906146e2565b101561166d57604051806060016040528060268152602001614e5f60269139600f9081611663919061395d565b50600090506118f2565b611698857f000000000000000000000000000000000000000000000000000000000000000085611f7b565b60006040518061010001604052808773ffffffffffffffffffffffffffffffffffffffff1681526020018673ffffffffffffffffffffffffffffffffffffffff168152602001610bb862ffffff1681526020018873ffffffffffffffffffffffffffffffffffffffff168152602001428152602001858152602001848152602001600073ffffffffffffffffffffffffffffffffffffffff1681525090507f000000000000000000000000000000000000000000000000000000000000000073ffffffffffffffffffffffffffffffffffffffff1663414bf389826040518263ffffffff1660e01b815260040161178f91906147ed565b6020604051808303816000875af11580156117ae573d6000803e3d6000fd5b505050506040513d601f19601f820116820180604052508101906117d291906146e2565b915083600c60008973ffffffffffffffffffffffffffffffffffffffff1673ffffffffffffffffffffffffffffffffffffffff1681526020019081526020016000205461181f9190613ad1565b600c60008973ffffffffffffffffffffffffffffffffffffffff1673ffffffffffffffffffffffffffffffffffffffff1681526020019081526020016000208190555081600d60008973ffffffffffffffffffffffffffffffffffffffff1673ffffffffffffffffffffffffffffffffffffffff168152602001908152602001600020546118ad9190613787565b600d60008973ffffffffffffffffffffffffffffffffffffffff1673ffffffffffffffffffffffffffffffffffffffff16815260200190815260200160002081905550505b95945050505050565b7f000000000000000000000000000000000000000000000000000000000000000081565b7f000000000000000000000000000000000000000000000000000000000000000081565b600a6020528060005260406000206000915090505481565b60096020528060005260406000206000915090505481565b600080600190508091505090565b600e5481565b600081116119ca576040517f08c379a00000000000000000000000000000000000000000000000000000000081526004016119c190614855565b60405180910390fd5b6119f67f00000000000000000000000000000000000000000000000000000000000000003330846120d0565b80600c60003373ffffffffffffffffffffffffffffffffffffffff1673ffffffffffffffffffffffffffffffffffffffff16815260200190815260200160002054611a419190613787565b600c60003373ffffffffffffffffffffffffffffffffffffffff1673ffffffffffffffffffffffffffffffffffffffff1681526020019081526020016000208190555050565b60086020528060005260406000206000915090508060000160009054906101000a900473ffffffffffffffffffffffffffffffffffffffff16908060010154908060020154908060030154908060040154908060050154905086565b600d6020528060005260406000206000915090505481565b7f000000000000000000000000000000000000000000000000000000000000000081565b7f000000000000000000000000000000000000000000000000000000000000000081565b600080600190508091505090565b6000808473ffffffffffffffffffffffffffffffffffffffff1663a9059cbb60e01b8585604051602401611b86929190614875565b604051602081830303815290604052907bffffffffffffffffffffffffffffffffffffffffffffffffffffffff19166020820180517bffffffffffffffffffffffffffffffffffffffffffffffffffffffff8381831617835250505050604051611bf0919061489e565b6000604051808303816000865af19150503d8060008114611c2d576040519150601f19603f3d011682016040523d82523d6000602084013e611c32565b606091505b5091509150818015611c605750600081511480611c5f575080806020019051810190611c5e91906142d2565b5b5b611c9f576040517f08c379a0000000000000000000000000000000000000000000000000000000008152600401611c9690614901565b60405180910390fd5b5050505050565b6000806008600084815260200190815260200160002060010154600860008581526020019081526020016000206003015442611ce29190613ad1565b11905080915050919050565b600081600001549050919050565b6001816000016000828254019250508190555050565b606060005b60208160ff16108015611d695750600060f81b838260ff1660208110611d4057611d3f614921565b5b1a60f81b7effffffffffffffffffffffffffffffffffffffffffffffffffffffffffffff191614155b15611d81578080611d7990614950565b915050611d17565b60008160ff1667ffffffffffffffff811115611da057611d9f613128565b5b6040519080825280601f01601f191660200182016040528015611dd25781602001600182028036833780820191505090505b509050600091505b60208260ff16108015611e2c5750600060f81b848360ff1660208110611e0357611e02614921565b5b1a60f81b7effffffffffffffffffffffffffffffffffffffffffffffffffffffffffffff191614155b15611ea357838260ff1660208110611e4757611e46614921565b5b1a60f81b818360ff1681518110611e6157611e60614921565b5b60200101907effffffffffffffffffffffffffffffffffffffffffffffffffffffffffffff1916908160001a9053508180611e9b90614950565b925050611dda565b8092505050919050565b611eb5612ba5565b611ebd612ba5565b611ed485858584612228909392919063ffffffff16565b9150509392505050565b611ef58284608001516122d890919063ffffffff16565b611f0c8184608001516122d890919063ffffffff16565b505050565b611f288284608001516122d890919063ffffffff16565b611f3f8184608001516122fd90919063ffffffff16565b505050565b6000611f73600460009054906101000a900473ffffffffffffffffffffffffffffffffffffffff1684846123aa565b905092915050565b6000808473ffffffffffffffffffffffffffffffffffffffff1663095ea7b360e01b8585604051602401611fb0929190614875565b604051602081830303815290604052907bffffffffffffffffffffffffffffffffffffffffffffffffffffffff19166020820180517bffffffffffffffffffffffffffffffffffffffffffffffffffffffff838183161783525050505060405161201a919061489e565b6000604051808303816000865af19150503d8060008114612057576040519150601f19603f3d011682016040523d82523d6000602084013e61205c565b606091505b509150915081801561208a575060008151148061208957508080602001905181019061208891906142d2565b5b5b6120c9576040517f08c379a00000000000000000000000000000000000000000000000000000000081526004016120c0906149c5565b60405180910390fd5b5050505050565b6000808573ffffffffffffffffffffffffffffffffffffffff166323b872dd60e01b868686604051602401612107939291906149e5565b604051602081830303815290604052907bffffffffffffffffffffffffffffffffffffffffffffffffffffffff19166020820180517bffffffffffffffffffffffffffffffffffffffffffffffffffffffff8381831617835250505050604051612171919061489e565b6000604051808303816000865af19150503d80600081146121ae576040519150601f19603f3d011682016040523d82523d6000602084013e6121b3565b606091505b50915091508180156121e157506000815114806121e05750808060200190518101906121df91906142d2565b5b5b612220576040517f08c379a000000000000000000000000000000000000000000000000000000000815260040161221790614a68565b60405180910390fd5b505050505050565b612230612ba5565b6122408560800151610100612476565b508385600001818152505082856020019073ffffffffffffffffffffffffffffffffffffffff16908173ffffffffffffffffffffffffffffffffffffffff16815250508185604001907bffffffffffffffffffffffffffffffffffffffffffffffffffffffff191690817bffffffffffffffffffffffffffffffffffffffffffffffffffffffff191681525050849050949350505050565b6122e582600383516124e0565b6122f8818361266590919063ffffffff16565b505050565b7fffffffffffffffffffffffffffffffffffffffffffffffff00000000000000008112156123345761232f8282612687565b6123a6565b67ffffffffffffffff8113156123535761234e82826126fe565b6123a5565b6000811261236c57612367826000836124e0565b6123a4565b6123a3826001837fffffffffffffffffffffffffffffffffffffffffffffffffffffffffffffffff61239e9190614a92565b6124e0565b5b5b5b5050565b60008060055490506001816123bf9190613787565b6005819055506000634042994660e01b60008087600001513089604001518760018c6080015160000151604051602401612400989796959493929190614ae4565b604051602081830303815290604052907bffffffffffffffffffffffffffffffffffffffffffffffffffffffff19166020820180517bffffffffffffffffffffffffffffffffffffffffffffffffffffffff8381831617835250505050905061246b8683868461274a565b925050509392505050565b61247e612c12565b600060208361248d9190614b69565b146124b95760208261249f9190614b69565b60206124ab9190613ad1565b826124b69190613787565b91505b81836020018181525050604051808452600081528281016020016040525082905092915050565b60178167ffffffffffffffff1611612517576125118160058460ff16901b60ff1617846128df90919063ffffffff16565b50612660565b60ff8167ffffffffffffffff161161256d57612546601860058460ff16901b17846128df90919063ffffffff16565b506125678167ffffffffffffffff166001856128ff9092919063ffffffff16565b5061265f565b61ffff8167ffffffffffffffff16116125c45761259d601960058460ff16901b17846128df90919063ffffffff16565b506125be8167ffffffffffffffff166002856128ff9092919063ffffffff16565b5061265e565b63ffffffff8167ffffffffffffffff161161261d576125f6601a60058460ff16901b17846128df90919063ffffffff16565b506126178167ffffffffffffffff166004856128ff9092919063ffffffff16565b5061265d565b61263a601b60058460ff16901b17846128df90919063ffffffff16565b5061265b8167ffffffffffffffff166008856128ff9092919063ffffffff16565b505b5b5b5b505050565b61266d612c12565b61267f83846000015151848551612921565b905092915050565b6126a560036005600660ff16901b17836128df90919063ffffffff16565b506126fa82827fffffffffffffffffffffffffffffffffffffffffffffffffffffffffffffffff6126d69190614a92565b6040516020016126e69190612eba565b604051602081830303815290604052612a10565b5050565b61271c60026005600660ff16901b17836128df90919063ffffffff16565b5061274682826040516020016127329190612eba565b604051602081830303815290604052612a10565b5050565b6000308460405160200161275f929190614bc3565b604051602081830303815290604052805190602001209050846006600083815260200190815260200160002060006101000a81548173ffffffffffffffffffffffffffffffffffffffff021916908373ffffffffffffffffffffffffffffffffffffffff160217905550807fb5e6e01e79f91267dc17b4e6314d5d4d03593d2ceee0fbb452b750bd70ea5af960405160405180910390a2600360009054906101000a900473ffffffffffffffffffffffffffffffffffffffff1673ffffffffffffffffffffffffffffffffffffffff16634000aea08685856040518463ffffffff1660e01b815260040161285593929190614bef565b6020604051808303816000875af1158015612874573d6000803e3d6000fd5b505050506040513d601f19601f8201168201806040525081019061289891906142d2565b6128d7576040517f08c379a00000000000000000000000000000000000000000000000000000000081526004016128ce90614c9f565b60405180910390fd5b949350505050565b6128e7612c12565b6128f78384600001515184612a35565b905092915050565b612907612c12565b612918848560000151518585612a8b565b90509392505050565b612929612c12565b825182111561293757600080fd5b846020015182856129489190613787565b111561297d5761297c85600261296d886020015188876129689190613787565b612b19565b6129779190613a2f565b612b35565b5b60008086518051876020830101935080888701111561299c5787860182525b60208701925050505b602084106129e357805182526020826129be9190613787565b91506020816129cd9190613787565b90506020846129dc9190613ad1565b93506129a5565b60006001856020036101000a03905080198251168184511681811785525050508692505050949350505050565b612a1d82600283516124e0565b612a30818361266590919063ffffffff16565b505050565b612a3d612c12565b83602001518310612a6357612a628460028660200151612a5d9190613a2f565b612b35565b5b83518051602085830101848153818603612a7e576001820183525b5050508390509392505050565b612a93612c12565b84602001518483612aa49190613787565b1115612acc57612acb8560028685612abc9190613787565b612ac69190613a2f565b612b35565b5b6000600183610100612ade9190614df2565b612ae89190613ad1565b90508551838682010185831982511617815281518588011115612b0b5784870182525b505085915050949350505050565b600081831115612b2b57829050612b2f565b8190505b92915050565b600082600001519050612b488383612476565b50612b538382612665565b50505050565b6040518060c00160405280600073ffffffffffffffffffffffffffffffffffffffff16815260200160008152602001600081526020016000815260200160008152602001600081525090565b6040518060a0016040528060008019168152602001600073ffffffffffffffffffffffffffffffffffffffff16815260200160007bffffffffffffffffffffffffffffffffffffffffffffffffffffffff1916815260200160008152602001612c0c612c12565b81525090565b604051806040016040528060608152602001600081525090565b600060ff82169050919050565b612c4281612c2c565b82525050565b6000602082019050612c5d6000830184612c39565b92915050565b600081519050919050565b600082825260208201905092915050565b60005b83811015612c9d578082015181840152602081019050612c82565b60008484015250505050565b6000601f19601f8301169050919050565b6000612cc582612c63565b612ccf8185612c6e565b9350612cdf818560208601612c7f565b612ce881612ca9565b840191505092915050565b60006020820190508181036000830152612d0d8184612cba565b905092915050565b600073ffffffffffffffffffffffffffffffffffffffff82169050919050565b6000819050919050565b6000612d5a612d55612d5084612d15565b612d35565b612d15565b9050919050565b6000612d6c82612d3f565b9050919050565b6000612d7e82612d61565b9050919050565b612d8e81612d73565b82525050565b6000602082019050612da96000830184612d85565b92915050565b6000612dba82612d15565b9050919050565b612dca81612daf565b82525050565b6000602082019050612de56000830184612dc1565b92915050565b6000604051905090565b600080fd5b600080fd5b6000819050919050565b612e1281612dff565b8114612e1d57600080fd5b50565b600081359050612e2f81612e09565b92915050565b6000819050919050565b612e4881612e35565b8114612e5357600080fd5b50565b600081359050612e6581612e3f565b92915050565b60008060408385031215612e8257612e81612df5565b5b6000612e9085828601612e20565b9250506020612ea185828601612e56565b9150509250929050565b612eb481612e35565b82525050565b6000602082019050612ecf6000830184612eab565b92915050565b600080fd5b600080fd5b600080fd5b60008083601f840112612efa57612ef9612ed5565b5b8235905067ffffffffffffffff811115612f1757612f16612eda565b5b602083019150836001820283011115612f3357612f32612edf565b5b9250929050565b60008060208385031215612f5157612f50612df5565b5b600083013567ffffffffffffffff811115612f6f57612f6e612dfa565b5b612f7b85828601612ee4565b92509250509250929050565b612f9081612daf565b8114612f9b57600080fd5b50565b600081359050612fad81612f87565b92915050565b600060208284031215612fc957612fc8612df5565b5b6000612fd784828501612f9e565b91505092915050565b6000612feb82612d61565b9050919050565b612ffb81612fe0565b82525050565b60006020820190506130166000830184612ff2565b92915050565b6000806000806080858703121561303657613035612df5565b5b600061304487828801612f9e565b945050602061305587828801612e56565b935050604061306687828801612e56565b925050606061307787828801612e56565b91505092959194509250565b60008115159050919050565b61309881613083565b82525050565b600081519050919050565b600082825260208201905092915050565b60006130c58261309e565b6130cf81856130a9565b93506130df818560208601612c7f565b6130e881612ca9565b840191505092915050565b6000604082019050613108600083018561308f565b818103602083015261311a81846130ba565b90509392505050565b600080fd5b7f4e487b7100000000000000000000000000000000000000000000000000000000600052604160045260246000fd5b61316082612ca9565b810181811067ffffffffffffffff8211171561317f5761317e613128565b5b80604052505050565b6000613192612deb565b905061319e8282613157565b919050565b600067ffffffffffffffff8211156131be576131bd613128565b5b6131c782612ca9565b9050602081019050919050565b82818337600083830152505050565b60006131f66131f1846131a3565b613188565b90508281526020810184848401111561321257613211613123565b5b61321d8482856131d4565b509392505050565b600082601f83011261323a57613239612ed5565b5b813561324a8482602086016131e3565b91505092915050565b600063ffffffff82169050919050565b61326c81613253565b811461327757600080fd5b50565b60008135905061328981613263565b92915050565b60006bffffffffffffffffffffffff82169050919050565b6132b08161328f565b81146132bb57600080fd5b50565b6000813590506132cd816132a7565b92915050565b600080600080600060a086880312156132ef576132ee612df5565b5b600086013567ffffffffffffffff81111561330d5761330c612dfa565b5b61331988828901613225565b955050602061332a8882890161327a565b945050604061333b888289016132be565b935050606061334c88828901612e56565b925050608061335d88828901612e56565b9150509295509295909350565b600062ffffff82169050919050565b6133828161336a565b82525050565b600060208201905061339d6000830184613379565b92915050565b6000602082840312156133b9576133b8612df5565b5b60006133c784828501612e56565b91505092915050565b6133d981612dff565b82525050565b60006020820190506133f460008301846133d0565b92915050565b600080600080600060a0868803121561341657613415612df5565b5b600061342488828901612f9e565b955050602061343588828901612f9e565b945050604061344688828901612f9e565b935050606061345788828901612e56565b925050608061346888828901612e56565b9150509295509295909350565b600061348082612d61565b9050919050565b61349081613475565b82525050565b60006020820190506134ab6000830184613487565b92915050565b6000602082840312156134c7576134c6612df5565b5b60006134d584828501612e20565b91505092915050565b600060c0820190506134f36000830189612dc1565b6135006020830188612eab565b61350d6040830187612eab565b61351a6060830186612eab565b6135276080830185612eab565b61353460a0830184612eab565b979650505050505050565b7f4e487b7100000000000000000000000000000000000000000000000000000000600052602260045260246000fd5b6000600282049050600182168061358657607f821691505b6020821081036135995761359861353f565b5b50919050565b7f5265656e7472616e637947756172643a207265656e7472616e742063616c6c00600082015250565b60006135d5601f83612c6e565b91506135e08261359f565b602082019050919050565b60006020820190508181036000830152613604816135c8565b9050919050565b7f596f75722062616c616e636520697320302c20796f752068617665206e6f746860008201527f696e6720746f2077697468647261770000000000000000000000000000000000602082015250565b6000613667602f83612c6e565b91506136728261360b565b604082019050919050565b600060208201905081810360008301526136968161365a565b9050919050565b7f536f75726365206d75737420626520746865206f7261636c65206f662074686560008201527f2072657175657374000000000000000000000000000000000000000000000000602082015250565b60006136f9602883612c6e565b91506137048261369d565b604082019050919050565b60006020820190508181036000830152613728816136ec565b9050919050565b600060408201905061374460008301856133d0565b6137516020830184612eab565b9392505050565b7f4e487b7100000000000000000000000000000000000000000000000000000000600052601160045260246000fd5b600061379282612e35565b915061379d83612e35565b92508282019050808211156137b5576137b4613758565b5b92915050565b60008190508160005260206000209050919050565b60006020601f8301049050919050565b600082821b905092915050565b60006008830261381d7fffffffffffffffffffffffffffffffffffffffffffffffffffffffffffffffff826137e0565b61382786836137e0565b95508019841693508086168417925050509392505050565b600061385a61385561385084612e35565b612d35565b612e35565b9050919050565b6000819050919050565b6138748361383f565b61388861388082613861565b8484546137ed565b825550505050565b600090565b61389d613890565b6138a881848461386b565b505050565b5b818110156138cc576138c1600082613895565b6001810190506138ae565b5050565b601f821115613911576138e2816137bb565b6138eb846137d0565b810160208510156138fa578190505b61390e613906856137d0565b8301826138ad565b50505b505050565b600082821c905092915050565b600061393460001984600802613916565b1980831691505092915050565b600061394d8383613923565b9150826002028217905092915050565b61396682612c63565b67ffffffffffffffff81111561397f5761397e613128565b5b613989825461356e565b6139948282856138d0565b600060209050601f8311600181146139c757600084156139b5578287015190505b6139bf8582613941565b865550613a27565b601f1984166139d5866137bb565b60005b828110156139fd578489015182556001820191506020850194506020810190506139d8565b86831015613a1a5784890151613a16601f891682613923565b8355505b6001600288020188555050505b505050505050565b6000613a3a82612e35565b9150613a4583612e35565b9250828202613a5381612e35565b91508282048414831517613a6a57613a69613758565b5b5092915050565b7f4e487b7100000000000000000000000000000000000000000000000000000000600052601260045260246000fd5b6000613aab82612e35565b9150613ab683612e35565b925082613ac657613ac5613a71565b5b828204905092915050565b6000613adc82612e35565b9150613ae783612e35565b9250828203905081811115613aff57613afe613758565b5b92915050565b6000604082019050613b1a6000830185612eab565b613b276020830184612eab565b9392505050565b7f596f7572207374616b696e672062616c616e636520697320656d70747921204460008201527f65706f73697420736f6d65204441492066697273740000000000000000000000602082015250565b6000613b8a603583612c6e565b9150613b9582613b2e565b604082019050919050565b60006020820190508181036000830152613bb981613b7d565b9050919050565b7f596f7572206f7264657253697a652069732067726561746572207468616e207960008201527f6f7572207374616b696e672062616c616e636521204465706f736974206d6f7260208201527f6520444149000000000000000000000000000000000000000000000000000000604082015250565b6000613c42604583612c6e565b9150613c4d82613bc0565b606082019050919050565b60006020820190508181036000830152613c7181613c35565b9050919050565b600080fd5b600081519050613c8c81613263565b92915050565b600081519050613ca1816132a7565b92915050565b600081519050613cb681612e3f565b92915050565b600060808284031215613cd257613cd1613c78565b5b613cdc6080613188565b90506000613cec84828501613c7d565b6000830152506020613d0084828501613c92565b6020830152506040613d1484828501613ca7565b6040830152506060613d2884828501613ca7565b60608301525092915050565b613d3d8161336a565b8114613d4857600080fd5b50565b600081519050613d5a81613d34565b92915050565b600061ffff82169050919050565b613d7781613d60565b8114613d8257600080fd5b50565b600081519050613d9481613d6e565b92915050565b600081519050613da981612f87565b92915050565b60006101808284031215613dc657613dc5613c78565b5b613dd1610180613188565b90506000613de184828501613c7d565b6000830152506020613df584828501613c7d565b6020830152506040613e0984828501613d4b565b6040830152506060613e1d84828501613c7d565b6060830152506080613e3184828501613d4b565b60808301525060a0613e4584828501613d85565b60a08301525060c0613e5984828501613c92565b60c08301525060e0613e6d84828501613c7d565b60e083015250610100613e8284828501613ca7565b61010083015250610120613e9884828501613ca7565b61012083015250610140613eae84828501613d9a565b61014083015250610160613ec484828501613d9a565b6101608301525092915050565b600067ffffffffffffffff821115613eec57613eeb613128565b5b602082029050602081019050919050565b6000613f10613f0b84613ed1565b613188565b90508083825260208201905060208402830185811115613f3357613f32612edf565b5b835b81811015613f5c5780613f488882613d9a565b845260208401935050602081019050613f35565b5050509392505050565b600082601f830112613f7b57613f7a612ed5565b5b8151613f8b848260208601613efd565b91505092915050565b60008060006102208486031215613fae57613fad612df5565b5b6000613fbc86828701613cbc565b9350506080613fcd86828701613daf565b92505061020084015167ffffffffffffffff811115613fef57613fee612dfa565b5b613ffb86828701613f66565b9150509250925092565b6000819050919050565b61402061401b82612e35565b614005565b82525050565b6000614032828461400f565b60208201915081905092915050565b7f3078000000000000000000000000000000000000000000000000000000000000600082015250565b6000614077600283612c6e565b915061408282614041565b602082019050919050565b61409681613253565b82525050565b6140a58161328f565b82525050565b6000819050919050565b60006140d06140cb6140c6846140ab565b612d35565b612c2c565b9050919050565b6140e0816140b5565b82525050565b6000610120820190508181036000830152614101818b612cba565b905081810360208301526141148161406a565b9050614123604083018a612dc1565b614130606083018961408d565b61413d6080830188612dc1565b81810360a083015261414f81876130ba565b905061415e60c083018661409c565b61416b60e08301856140d7565b614179610100830184612dc1565b9998505050505050505050565b60007fffffffff0000000000000000000000000000000000000000000000000000000082169050919050565b6000819050919050565b6141cd6141c882614186565b6141b2565b82525050565b600081905092915050565b60006141e98261309e565b6141f381856141d3565b9350614203818560208601612c7f565b80840191505092915050565b600061421b82856141bc565b60048201915061422b82846141de565b91508190509392505050565b600061425261424d6142488461328f565b612d35565b612e35565b9050919050565b61426281614237565b82525050565b600060608201905061427d6000830186612dc1565b61428a6020830185614259565b818103604083015261429c81846130ba565b9050949350505050565b6142af81613083565b81146142ba57600080fd5b50565b6000815190506142cc816142a6565b92915050565b6000602082840312156142e8576142e7612df5565b5b60006142f6848285016142bd565b91505092915050565b6000819050919050565b61431a61431582612dff565b6142ff565b82525050565b60008160601b9050919050565b600061433882614320565b9050919050565b600061434a8261432d565b9050919050565b61436261435d82612daf565b61433f565b82525050565b60008160e01b9050919050565b600061438082614368565b9050919050565b61439861439382613253565b614375565b82525050565b60006143aa8286614309565b6020820191506143ba8285614351565b6014820191506143ca8284614387565b600482019150819050949350505050565b600081905092915050565b7f68747470733a2f2f6d696e2d6170692e63727970746f636f6d706172652e636f60008201527f6d2f646174612f70726963656d756c746966756c6c3f6673796d733d00000000602082015250565b6000614442603c836143db565b915061444d826143e6565b603c82019050919050565b600061446382612c63565b61446d81856143db565b935061447d818560208601612c7f565b80840191505092915050565b7f267473796d733d00000000000000000000000000000000000000000000000000600082015250565b60006144bf6007836143db565b91506144ca82614489565b600782019050919050565b7f266578747261506172616d733d57616c6c2d4554480000000000000000000000600082015250565b600061450b6015836143db565b9150614516826144d5565b601582019050919050565b600061452c82614435565b91506145388285614458565b9150614543826144b2565b915061454f8284614458565b915061455a826144fe565b91508190509392505050565b7f5241572c00000000000000000000000000000000000000000000000000000000600082015250565b600061459c6004836143db565b91506145a782614566565b600482019050919050565b7f2c00000000000000000000000000000000000000000000000000000000000000600082015250565b60006145e86001836143db565b91506145f3826145b2565b600182019050919050565b7f2c50524943450000000000000000000000000000000000000000000000000000600082015250565b60006146346006836143db565b915061463f826145fe565b600682019050919050565b60006146558261458f565b91506146618285614458565b915061466c826145db565b91506146788284614458565b915061468382614627565b91508190509392505050565b600060a0820190506146a46000830188612dc1565b6146b16020830187612dc1565b6146be6040830186612dc1565b6146cb6060830185612eab565b6146d86080830184612eab565b9695505050505050565b6000602082840312156146f8576146f7612df5565b5b600061470684828501613ca7565b91505092915050565b61471881612daf565b82525050565b6147278161336a565b82525050565b61473681612e35565b82525050565b61474581612d15565b82525050565b61010082016000820151614762600085018261470f565b506020820151614775602085018261470f565b506040820151614788604085018261471e565b50606082015161479b606085018261470f565b5060808201516147ae608085018261472d565b5060a08201516147c160a085018261472d565b5060c08201516147d460c085018261472d565b5060e08201516147e760e085018261473c565b50505050565b600061010082019050614803600083018461474b565b92915050565b7f616d6f756e742073686f756c64206265203e2030000000000000000000000000600082015250565b600061483f601483612c6e565b915061484a82614809565b602082019050919050565b6000602082019050818103600083015261486e81614832565b9050919050565b600060408201905061488a6000830185612dc1565b6148976020830184612eab565b9392505050565b60006148aa82846141de565b915081905092915050565b7f5354000000000000000000000000000000000000000000000000000000000000600082015250565b60006148eb600283612c6e565b91506148f6826148b5565b602082019050919050565b6000602082019050818103600083015261491a816148de565b9050919050565b7f4e487b7100000000000000000000000000000000000000000000000000000000600052603260045260246000fd5b600061495b82612c2c565b915060ff820361496e5761496d613758565b5b600182019050919050565b7f5341000000000000000000000000000000000000000000000000000000000000600082015250565b60006149af600283612c6e565b91506149ba82614979565b602082019050919050565b600060208201905081810360008301526149de816149a2565b9050919050565b60006060820190506149fa6000830186612dc1565b614a076020830185612dc1565b614a146040830184612eab565b949350505050565b7f5354460000000000000000000000000000000000000000000000000000000000600082015250565b6000614a52600383612c6e565b9150614a5d82614a1c565b602082019050919050565b60006020820190508181036000830152614a8181614a45565b9050919050565b6000819050919050565b6000614a9d82614a88565b9150614aa883614a88565b9250828203905081811260008412168282136000851215161715614acf57614ace613758565b5b92915050565b614ade81614186565b82525050565b600061010082019050614afa600083018b612dc1565b614b07602083018a612eab565b614b1460408301896133d0565b614b216060830188612dc1565b614b2e6080830187614ad5565b614b3b60a0830186612eab565b614b4860c0830185612eab565b81810360e0830152614b5a81846130ba565b90509998505050505050505050565b6000614b7482612e35565b9150614b7f83612e35565b925082614b8f57614b8e613a71565b5b828206905092915050565b6000614ba582612d61565b9050919050565b614bbd614bb882614b9a565b61433f565b82525050565b6000614bcf8285614bac565b601482019150614bdf828461400f565b6020820191508190509392505050565b6000606082019050614c046000830186612dc1565b614c116020830185612eab565b8181036040830152614c2381846130ba565b9050949350505050565b7f756e61626c6520746f207472616e73666572416e6443616c6c20746f206f726160008201527f636c650000000000000000000000000000000000000000000000000000000000602082015250565b6000614c89602383612c6e565b9150614c9482614c2d565b604082019050919050565b60006020820190508181036000830152614cb881614c7c565b9050919050565b60008160011c9050919050565b6000808291508390505b6001851115614d1657808604811115614cf257614cf1613758565b5b6001851615614d015780820291505b8081029050614d0f85614cbf565b9450614cd6565b94509492505050565b600082614d2f5760019050614deb565b81614d3d5760009050614deb565b8160018114614d535760028114614d5d57614d8c565b6001915050614deb565b60ff841115614d6f57614d6e613758565b5b8360020a915084821115614d8657614d85613758565b5b50614deb565b5060208310610133831016604e8410600b8410161715614dc15782820a905083811115614dbc57614dbb613758565b5b614deb565b614dce8484846001614ccc565b92509050818404811115614de557614de4613758565b5b81810290505b9392505050565b6000614dfd82612e35565b9150614e0883612e35565b9250614e357fffffffffffffffffffffffffffffffffffffffffffffffffffffffffffffffff8484614d1f565b90509291505056fe4e6f436f756e74657249444173736f636961746564285f7265717565737449642954686520436f6e747261637420646f6573206e6f74206861766520656e6f7567682057455448546865205573657220646f6573206e6f742068617665207374616b656420656e6f7567682057455448a2646970667358221220d70103f7f08fa9cde55814839976536a9af7545956811c8fd3a934f42c0d806c64736f6c63430008110033",
  "devdoc": {
    "kind": "dev",
    "methods": {},
    "version": 1
  },
  "userdoc": {
    "kind": "user",
    "methods": {},
    "version": 1
  },
  "storageLayout": {
    "storage": [
      {
        "astId": 2359,
        "contract": "contracts/TradingBotV2.sol:TradingBotV2",
        "label": "_status",
        "offset": 0,
        "slot": "0",
        "type": "t_uint256"
      },
      {
        "astId": 319,
        "contract": "contracts/TradingBotV2.sol:TradingBotV2",
        "label": "s_ens",
        "offset": 0,
        "slot": "1",
        "type": "t_contract(ENSInterface)1147"
      },
      {
        "astId": 321,
        "contract": "contracts/TradingBotV2.sol:TradingBotV2",
        "label": "s_ensNode",
        "offset": 0,
        "slot": "2",
        "type": "t_bytes32"
      },
      {
        "astId": 324,
        "contract": "contracts/TradingBotV2.sol:TradingBotV2",
        "label": "s_link",
        "offset": 0,
        "slot": "3",
        "type": "t_contract(LinkTokenInterface)1242"
      },
      {
        "astId": 327,
        "contract": "contracts/TradingBotV2.sol:TradingBotV2",
        "label": "s_oracle",
        "offset": 0,
        "slot": "4",
        "type": "t_contract(OperatorInterface)1322"
      },
      {
        "astId": 330,
        "contract": "contracts/TradingBotV2.sol:TradingBotV2",
        "label": "s_requestCount",
        "offset": 0,
        "slot": "5",
        "type": "t_uint256"
      },
      {
        "astId": 334,
        "contract": "contracts/TradingBotV2.sol:TradingBotV2",
        "label": "s_pendingRequests",
        "offset": 0,
        "slot": "6",
        "type": "t_mapping(t_bytes32,t_address)"
      },
      {
        "astId": 3616,
        "contract": "contracts/TradingBotV2.sol:TradingBotV2",
        "label": "_botIdCounter",
        "offset": 0,
        "slot": "7",
        "type": "t_struct(Counter)3105_storage"
      },
      {
        "astId": 3621,
        "contract": "contracts/TradingBotV2.sol:TradingBotV2",
        "label": "botIdToBotObj",
        "offset": 0,
        "slot": "8",
        "type": "t_mapping(t_uint256,t_struct(BotObj)3507_storage)"
      },
      {
        "astId": 3625,
        "contract": "contracts/TradingBotV2.sol:TradingBotV2",
        "label": "botIdToUpkeepId",
        "offset": 0,
        "slot": "9",
        "type": "t_mapping(t_uint256,t_uint256)"
      },
      {
        "astId": 3629,
        "contract": "contracts/TradingBotV2.sol:TradingBotV2",
        "label": "requestIdToBotId",
        "offset": 0,
        "slot": "10",
        "type": "t_mapping(t_bytes32,t_uint256)"
      },
      {
        "astId": 3642,
        "contract": "contracts/TradingBotV2.sol:TradingBotV2",
        "label": "registerSig",
        "offset": 0,
        "slot": "11",
        "type": "t_bytes4"
      },
      {
        "astId": 3657,
        "contract": "contracts/TradingBotV2.sol:TradingBotV2",
        "label": "stakingBalance",
        "offset": 0,
        "slot": "12",
        "type": "t_mapping(t_address,t_uint256)"
      },
      {
        "astId": 3661,
        "contract": "contracts/TradingBotV2.sol:TradingBotV2",
        "label": "tradingBalance",
        "offset": 0,
        "slot": "13",
        "type": "t_mapping(t_address,t_uint256)"
      },
      {
        "astId": 3667,
        "contract": "contracts/TradingBotV2.sol:TradingBotV2",
        "label": "price",
        "offset": 0,
        "slot": "14",
        "type": "t_uint256"
      },
      {
        "astId": 3669,
        "contract": "contracts/TradingBotV2.sol:TradingBotV2",
        "label": "lastError",
        "offset": 0,
        "slot": "15",
        "type": "t_string_storage"
      }
    ],
    "types": {
      "t_address": {
        "encoding": "inplace",
        "label": "address",
        "numberOfBytes": "20"
      },
      "t_bytes32": {
        "encoding": "inplace",
        "label": "bytes32",
        "numberOfBytes": "32"
      },
      "t_bytes4": {
        "encoding": "inplace",
        "label": "bytes4",
        "numberOfBytes": "4"
      },
      "t_contract(ENSInterface)1147": {
        "encoding": "inplace",
        "label": "contract ENSInterface",
        "numberOfBytes": "20"
      },
      "t_contract(LinkTokenInterface)1242": {
        "encoding": "inplace",
        "label": "contract LinkTokenInterface",
        "numberOfBytes": "20"
      },
      "t_contract(OperatorInterface)1322": {
        "encoding": "inplace",
        "label": "contract OperatorInterface",
        "numberOfBytes": "20"
      },
      "t_mapping(t_address,t_uint256)": {
        "encoding": "mapping",
        "key": "t_address",
        "label": "mapping(address => uint256)",
        "numberOfBytes": "32",
        "value": "t_uint256"
      },
      "t_mapping(t_bytes32,t_address)": {
        "encoding": "mapping",
        "key": "t_bytes32",
        "label": "mapping(bytes32 => address)",
        "numberOfBytes": "32",
        "value": "t_address"
      },
      "t_mapping(t_bytes32,t_uint256)": {
        "encoding": "mapping",
        "key": "t_bytes32",
        "label": "mapping(bytes32 => uint256)",
        "numberOfBytes": "32",
        "value": "t_uint256"
      },
      "t_mapping(t_uint256,t_struct(BotObj)3507_storage)": {
        "encoding": "mapping",
        "key": "t_uint256",
        "label": "mapping(uint256 => struct BotObj)",
        "numberOfBytes": "32",
        "value": "t_struct(BotObj)3507_storage"
      },
      "t_mapping(t_uint256,t_uint256)": {
        "encoding": "mapping",
        "key": "t_uint256",
        "label": "mapping(uint256 => uint256)",
        "numberOfBytes": "32",
        "value": "t_uint256"
      },
      "t_string_storage": {
        "encoding": "bytes",
        "label": "string",
        "numberOfBytes": "32"
      },
      "t_struct(BotObj)3507_storage": {
        "encoding": "inplace",
        "label": "struct BotObj",
        "members": [
          {
            "astId": 3496,
            "contract": "contracts/TradingBotV2.sol:TradingBotV2",
            "label": "owner",
            "offset": 0,
            "slot": "0",
            "type": "t_address"
          },
          {
            "astId": 3498,
            "contract": "contracts/TradingBotV2.sol:TradingBotV2",
            "label": "orderInterval",
            "offset": 0,
            "slot": "1",
            "type": "t_uint256"
          },
          {
            "astId": 3500,
            "contract": "contracts/TradingBotV2.sol:TradingBotV2",
            "label": "orderSize",
            "offset": 0,
            "slot": "2",
            "type": "t_uint256"
          },
          {
            "astId": 3502,
            "contract": "contracts/TradingBotV2.sol:TradingBotV2",
            "label": "lastTimeStamp",
            "offset": 0,
            "slot": "3",
            "type": "t_uint256"
          },
          {
            "astId": 3504,
            "contract": "contracts/TradingBotV2.sol:TradingBotV2",
            "label": "counter",
            "offset": 0,
            "slot": "4",
            "type": "t_uint256"
          },
          {
            "astId": 3506,
            "contract": "contracts/TradingBotV2.sol:TradingBotV2",
            "label": "maxNumberOfOrders",
            "offset": 0,
            "slot": "5",
            "type": "t_uint256"
          }
        ],
        "numberOfBytes": "192"
      },
      "t_struct(Counter)3105_storage": {
        "encoding": "inplace",
        "label": "struct Counters.Counter",
        "members": [
          {
            "astId": 3104,
            "contract": "contracts/TradingBotV2.sol:TradingBotV2",
            "label": "_value",
            "offset": 0,
            "slot": "0",
            "type": "t_uint256"
          }
        ],
        "numberOfBytes": "32"
      },
      "t_uint256": {
        "encoding": "inplace",
        "label": "uint256",
        "numberOfBytes": "32"
      }
    }
  }
}