{
  "address": "0xDB0F3E1bC59B9B09249d210EF15A91882586ff95",
  "abi": [
    {
      "inputs": [
        {
          "internalType": "address",
          "name": "oracleId_",
          "type": "address"
        },
        {
          "internalType": "string",
          "name": "jobId_",
          "type": "string"
        },
        {
          "internalType": "uint256",
          "name": "fee_",
          "type": "uint256"
        },
        {
          "internalType": "address",
          "name": "token_",
          "type": "address"
        }
      ],
      "stateMutability": "nonpayable",
      "type": "constructor"
    },
    {
      "anonymous": false,
      "inputs": [
        {
          "indexed": true,
          "internalType": "bytes32",
          "name": "id",
          "type": "bytes32"
        }
      ],
      "name": "ChainlinkCancelled",
      "type": "event"
    },
    {
      "anonymous": false,
      "inputs": [
        {
          "indexed": true,
          "internalType": "bytes32",
          "name": "id",
          "type": "bytes32"
        }
      ],
      "name": "ChainlinkFulfilled",
      "type": "event"
    },
    {
      "anonymous": false,
      "inputs": [
        {
          "indexed": true,
          "internalType": "bytes32",
          "name": "id",
          "type": "bytes32"
        }
      ],
      "name": "ChainlinkRequested",
      "type": "event"
    },
    {
      "anonymous": false,
      "inputs": [
        {
          "indexed": true,
          "internalType": "address",
          "name": "from",
          "type": "address"
        },
        {
          "indexed": true,
          "internalType": "address",
          "name": "to",
          "type": "address"
        }
      ],
      "name": "OwnershipTransferRequested",
      "type": "event"
    },
    {
      "anonymous": false,
      "inputs": [
        {
          "indexed": true,
          "internalType": "address",
          "name": "from",
          "type": "address"
        },
        {
          "indexed": true,
          "internalType": "address",
          "name": "to",
          "type": "address"
        }
      ],
      "name": "OwnershipTransferred",
      "type": "event"
    },
    {
      "inputs": [],
      "name": "acceptOwnership",
      "outputs": [],
      "stateMutability": "nonpayable",
      "type": "function"
    },
    {
      "inputs": [
        {
          "internalType": "uint256",
          "name": "_fee",
          "type": "uint256"
        }
      ],
      "name": "changeFee",
      "outputs": [],
      "stateMutability": "nonpayable",
      "type": "function"
    },
    {
      "inputs": [
        {
          "internalType": "string",
          "name": "_jobId",
          "type": "string"
        }
      ],
      "name": "changeJobId",
      "outputs": [],
      "stateMutability": "nonpayable",
      "type": "function"
    },
    {
      "inputs": [
        {
          "internalType": "address",
          "name": "_oracle",
          "type": "address"
        }
      ],
      "name": "changeOracle",
      "outputs": [],
      "stateMutability": "nonpayable",
      "type": "function"
    },
    {
      "inputs": [
        {
          "internalType": "address",
          "name": "_address",
          "type": "address"
        }
      ],
      "name": "changeToken",
      "outputs": [],
      "stateMutability": "nonpayable",
      "type": "function"
    },
    {
      "inputs": [
        {
          "internalType": "string",
          "name": "service_",
          "type": "string"
        },
        {
          "internalType": "string",
          "name": "data_",
          "type": "string"
        },
        {
          "internalType": "string",
          "name": "abi_",
          "type": "string"
        }
      ],
      "name": "doRequest",
      "outputs": [
        {
          "internalType": "bytes32",
          "name": "requestId",
          "type": "bytes32"
        }
      ],
      "stateMutability": "nonpayable",
      "type": "function"
    },
    {
      "inputs": [
        {
          "internalType": "string",
          "name": "service_",
          "type": "string"
        },
        {
          "internalType": "string",
          "name": "data_",
          "type": "string"
        },
        {
          "internalType": "string",
          "name": "keypath_",
          "type": "string"
        },
        {
          "internalType": "string",
          "name": "abi_",
          "type": "string"
        },
        {
          "internalType": "string",
          "name": "multiplier_",
          "type": "string"
        },
        {
          "internalType": "uint256",
          "name": "fee_",
          "type": "uint256"
        }
      ],
      "name": "doTransferAndRequest",
      "outputs": [
        {
          "internalType": "bytes32",
          "name": "requestId",
          "type": "bytes32"
        }
      ],
      "stateMutability": "nonpayable",
      "type": "function"
    },
    {
      "inputs": [],
      "name": "fee",
      "outputs": [
        {
          "internalType": "uint256",
          "name": "",
          "type": "uint256"
        }
      ],
      "stateMutability": "view",
      "type": "function"
    },
    {
      "inputs": [
        {
          "internalType": "bytes32",
          "name": "_requestId",
          "type": "bytes32"
        },
        {
          "internalType": "bytes",
          "name": "bytesData",
          "type": "bytes"
        }
      ],
      "name": "fulfillBytes",
      "outputs": [],
      "stateMutability": "nonpayable",
      "type": "function"
    },
    {
      "inputs": [
        {
          "internalType": "bytes32",
          "name": "_requestId",
          "type": "bytes32"
        }
      ],
      "name": "getInt256",
      "outputs": [
        {
          "internalType": "int256",
          "name": "",
          "type": "int256"
        }
      ],
      "stateMutability": "view",
      "type": "function"
    },
    {
      "inputs": [],
      "name": "getToken",
      "outputs": [
        {
          "internalType": "address",
          "name": "",
          "type": "address"
        }
      ],
      "stateMutability": "view",
      "type": "function"
    },
    {
      "inputs": [],
      "name": "jobId",
      "outputs": [
        {
          "internalType": "string",
          "name": "",
          "type": "string"
        }
      ],
      "stateMutability": "view",
      "type": "function"
    },
    {
      "inputs": [],
      "name": "oracleId",
      "outputs": [
        {
          "internalType": "address",
          "name": "",
          "type": "address"
        }
      ],
      "stateMutability": "view",
      "type": "function"
    },
    {
      "inputs": [],
      "name": "owner",
      "outputs": [
        {
          "internalType": "address",
          "name": "",
          "type": "address"
        }
      ],
      "stateMutability": "view",
      "type": "function"
    },
    {
      "inputs": [],
      "name": "result",
      "outputs": [
        {
          "internalType": "bytes",
          "name": "",
          "type": "bytes"
        }
      ],
      "stateMutability": "view",
      "type": "function"
    },
    {
      "inputs": [
        {
          "internalType": "bytes32",
          "name": "",
          "type": "bytes32"
        }
      ],
      "name": "results",
      "outputs": [
        {
          "internalType": "bytes",
          "name": "",
          "type": "bytes"
        }
      ],
      "stateMutability": "view",
      "type": "function"
    },
    {
      "inputs": [
        {
          "internalType": "address",
          "name": "to",
          "type": "address"
        }
      ],
      "name": "transferOwnership",
      "outputs": [],
      "stateMutability": "nonpayable",
      "type": "function"
    },
    {
      "inputs": [],
      "name": "withdrawLink",
      "outputs": [],
      "stateMutability": "nonpayable",
      "type": "function"
    }
  ],
  "transactionHash": "0x57782f5f11a6e3284963ce44fd13a3b7c608df3f4ccd3825c08ada29f0ea7ad8",
  "args": [
    "0x6888BdA6a975eCbACc3ba69CA2c80d7d7da5A344",
    "d220e5e687884462909a03021385b7ae",
    "100000000000000000",
    "0x326C977E6efc84E512bB9C30f76E30c160eD06FB"
  ],
  "numDeployments": 2,
  "solcInputHash": "d3468d8cbaf44282498959353720a1df",
  "bytecode": "0x608060405260016004553480156200001657600080fd5b5060405162003c5c38038062003c5c83398181016040528101906200003c919062000559565b338060008073ffffffffffffffffffffffffffffffffffffffff168273ffffffffffffffffffffffffffffffffffffffff1603620000b1576040517f08c379a0000000000000000000000000000000000000000000000000000000008152600401620000a8906200064b565b60405180910390fd5b81600660006101000a81548173ffffffffffffffffffffffffffffffffffffffff021916908373ffffffffffffffffffffffffffffffffffffffff160217905550600073ffffffffffffffffffffffffffffffffffffffff168173ffffffffffffffffffffffffffffffffffffffff161462000139576200013881620001b160201b60201c565b5b5050506200014d81620002e260201b60201c565b83600a60006101000a81548173ffffffffffffffffffffffffffffffffffffffff021916908373ffffffffffffffffffffffffffffffffffffffff16021790555082600b90816200019f9190620008ae565b5081600c819055505050505062000a07565b3373ffffffffffffffffffffffffffffffffffffffff168173ffffffffffffffffffffffffffffffffffffffff160362000222576040517f08c379a00000000000000000000000000000000000000000000000000000000081526004016200021990620009e5565b60405180910390fd5b80600760006101000a81548173ffffffffffffffffffffffffffffffffffffffff021916908373ffffffffffffffffffffffffffffffffffffffff1602179055508073ffffffffffffffffffffffffffffffffffffffff16600660009054906101000a900473ffffffffffffffffffffffffffffffffffffffff1673ffffffffffffffffffffffffffffffffffffffff167fed8889f560326eb138920d842192f0eb3dd22b4f139c87a2c57538e05bae127860405160405180910390a350565b80600260006101000a81548173ffffffffffffffffffffffffffffffffffffffff021916908373ffffffffffffffffffffffffffffffffffffffff16021790555050565b6000604051905090565b600080fd5b600080fd5b600073ffffffffffffffffffffffffffffffffffffffff82169050919050565b600062000367826200033a565b9050919050565b62000379816200035a565b81146200038557600080fd5b50565b60008151905062000399816200036e565b92915050565b600080fd5b600080fd5b6000601f19601f8301169050919050565b7f4e487b7100000000000000000000000000000000000000000000000000000000600052604160045260246000fd5b620003f482620003a9565b810181811067ffffffffffffffff82111715620004165762000415620003ba565b5b80604052505050565b60006200042b62000326565b9050620004398282620003e9565b919050565b600067ffffffffffffffff8211156200045c576200045b620003ba565b5b6200046782620003a9565b9050602081019050919050565b60005b838110156200049457808201518184015260208101905062000477565b60008484015250505050565b6000620004b7620004b1846200043e565b6200041f565b905082815260208101848484011115620004d657620004d5620003a4565b5b620004e384828562000474565b509392505050565b600082601f8301126200050357620005026200039f565b5b815162000515848260208601620004a0565b91505092915050565b6000819050919050565b62000533816200051e565b81146200053f57600080fd5b50565b600081519050620005538162000528565b92915050565b6000806000806080858703121562000576576200057562000330565b5b6000620005868782880162000388565b945050602085015167ffffffffffffffff811115620005aa57620005a962000335565b5b620005b887828801620004eb565b9350506040620005cb8782880162000542565b9250506060620005de8782880162000388565b91505092959194509250565b600082825260208201905092915050565b7f43616e6e6f7420736574206f776e657220746f207a65726f0000000000000000600082015250565b600062000633601883620005ea565b91506200064082620005fb565b602082019050919050565b60006020820190508181036000830152620006668162000624565b9050919050565b600081519050919050565b7f4e487b7100000000000000000000000000000000000000000000000000000000600052602260045260246000fd5b60006002820490506001821680620006c057607f821691505b602082108103620006d657620006d562000678565b5b50919050565b60008190508160005260206000209050919050565b60006020601f8301049050919050565b600082821b905092915050565b600060088302620007407fffffffffffffffffffffffffffffffffffffffffffffffffffffffffffffffff8262000701565b6200074c868362000701565b95508019841693508086168417925050509392505050565b6000819050919050565b60006200078f6200078962000783846200051e565b62000764565b6200051e565b9050919050565b6000819050919050565b620007ab836200076e565b620007c3620007ba8262000796565b8484546200070e565b825550505050565b600090565b620007da620007cb565b620007e7818484620007a0565b505050565b5b818110156200080f5762000803600082620007d0565b600181019050620007ed565b5050565b601f8211156200085e576200082881620006dc565b6200083384620006f1565b8101602085101562000843578190505b6200085b6200085285620006f1565b830182620007ec565b50505b505050565b600082821c905092915050565b6000620008836000198460080262000863565b1980831691505092915050565b60006200089e838362000870565b9150826002028217905092915050565b620008b9826200066d565b67ffffffffffffffff811115620008d557620008d4620003ba565b5b620008e18254620006a7565b620008ee82828562000813565b600060209050601f83116001811462000926576000841562000911578287015190505b6200091d858262000890565b8655506200098d565b601f1984166200093686620006dc565b60005b82811015620009605784890151825560018201915060208501945060208101905062000939565b868310156200098057848901516200097c601f89168262000870565b8355505b6001600288020188555050505b505050505050565b7f43616e6e6f74207472616e7366657220746f2073656c66000000000000000000600082015250565b6000620009cd601783620005ea565b9150620009da8262000995565b602082019050919050565b6000602082019050818103600083015262000a0081620009be565b9050919050565b6132458062000a176000396000f3fe608060405234801561001057600080fd5b50600436106101165760003560e01c806379ba5097116100a2578063c2939d9711610071578063c2939d97146102a7578063c2fb8523146102c5578063ddca3f43146102e1578063f2fde38b146102ff578063fab2bb851461031b57610116565b806379ba5097146102595780638da5cb5b146102635780638dc654a2146102815780639063e2161461028b57610116565b806347c421b5116100e957806347c421b5146101b75780634c6b25b1146101d3578063653721471461020357806366829b16146102215780636a1db1bf1461023d57610116565b806316a00c0b1461011b57806316c7d1d51461014b5780632121778d1461017b57806321df0da714610199575b600080fd5b61013560048036038101906101309190611d9e565b61034b565b6040516101429190611ed0565b60405180910390f35b61016560048036038101906101609190611f17565b610649565b6040516101729190611f5d565b60405180910390f35b6101836106f6565b6040516101909190611fb9565b60405180910390f35b6101a161071c565b6040516101ae9190611fb9565b60405180910390f35b6101d160048036038101906101cc9190612000565b61072b565b005b6101ed60048036038101906101e89190611f17565b610777565b6040516101fa91906120ac565b60405180910390f35b61020b610817565b60405161021891906120ac565b60405180910390f35b61023b60048036038101906102369190612000565b6108a5565b005b610257600480360381019061025291906120ce565b6108b9565b005b6102616108cb565b005b61026b610a62565b6040516102789190611fb9565b60405180910390f35b610289610a8c565b005b6102a560048036038101906102a091906120fb565b610bd9565b005b6102af610bf4565b6040516102bc9190612199565b60405180910390f35b6102df60048036038101906102da919061225c565b610c82565b005b6102e9610dbd565b6040516102f691906122c7565b60405180910390f35b61031960048036038101906103149190612000565b610dc3565b005b610335600480360381019061033091906122e2565b610dd7565b6040516103429190611ed0565b60405180910390f35b600061035561071c565b73ffffffffffffffffffffffffffffffffffffffff166323b872dd3330856040518463ffffffff1660e01b815260040161039193929190612389565b6020604051808303816000875af11580156103b0573d6000803e3d6000fd5b505050506040513d601f19601f820116820180604052508101906103d491906123f8565b610413576040517f08c379a000000000000000000000000000000000000000000000000000000000815260040161040a90612471565b60405180910390fd5b6000610431600b6104239061256d565b3063c2fb852360e01b610f0f565b905061047d6040518060400160405280600781526020017f73657276696365000000000000000000000000000000000000000000000000008152508983610f409092919063ffffffff16565b6104c76040518060400160405280600481526020017f64617461000000000000000000000000000000000000000000000000000000008152508883610f409092919063ffffffff16565b6105116040518060400160405280600781526020017f6b657970617468000000000000000000000000000000000000000000000000008152508783610f409092919063ffffffff16565b61055b6040518060400160405280600381526020017f61626900000000000000000000000000000000000000000000000000000000008152508683610f409092919063ffffffff16565b6105a56040518060400160405280600a81526020017f6d756c7469706c696572000000000000000000000000000000000000000000008152508583610f409092919063ffffffff16565b61060f6040518060400160405280600881526020017f726566756e64546f0000000000000000000000000000000000000000000000008152506105ff3373ffffffffffffffffffffffffffffffffffffffff166014610f73565b83610f409092919063ffffffff16565b61063c600a60009054906101000a900473ffffffffffffffffffffffffffffffffffffffff1682856111af565b9150509695505050505050565b60006106ef60096000848152602001908152602001600020805461066c906124c0565b80601f0160208091040260200160405190810160405280929190818152602001828054610698906124c0565b80156106e55780601f106106ba576101008083540402835291602001916106e5565b820191906000526020600020905b8154815290600101906020018083116106c857829003601f168201915b505050505061127b565b9050919050565b600a60009054906101000a900473ffffffffffffffffffffffffffffffffffffffff1681565b6000610726611289565b905090565b6107336112b3565b80600a60006101000a81548173ffffffffffffffffffffffffffffffffffffffff021916908373ffffffffffffffffffffffffffffffffffffffff16021790555050565b60096020528060005260406000206000915090508054610796906124c0565b80601f01602080910402602001604051908101604052809291908181526020018280546107c2906124c0565b801561080f5780601f106107e45761010080835404028352916020019161080f565b820191906000526020600020905b8154815290600101906020018083116107f257829003601f168201915b505050505081565b60088054610824906124c0565b80601f0160208091040260200160405190810160405280929190818152602001828054610850906124c0565b801561089d5780601f106108725761010080835404028352916020019161089d565b820191906000526020600020905b81548152906001019060200180831161088057829003601f168201915b505050505081565b6108ad6112b3565b6108b681611345565b50565b6108c16112b3565b80600c8190555050565b600760009054906101000a900473ffffffffffffffffffffffffffffffffffffffff1673ffffffffffffffffffffffffffffffffffffffff163373ffffffffffffffffffffffffffffffffffffffff161461095b576040517f08c379a00000000000000000000000000000000000000000000000000000000081526004016109529061262a565b60405180910390fd5b6000600660009054906101000a900473ffffffffffffffffffffffffffffffffffffffff16905033600660006101000a81548173ffffffffffffffffffffffffffffffffffffffff021916908373ffffffffffffffffffffffffffffffffffffffff1602179055506000600760006101000a81548173ffffffffffffffffffffffffffffffffffffffff021916908373ffffffffffffffffffffffffffffffffffffffff1602179055503373ffffffffffffffffffffffffffffffffffffffff168173ffffffffffffffffffffffffffffffffffffffff167f8be0079c531659141344cd1fd0a4f28419497f9722a3daafe3b4186f6b6457e060405160405180910390a350565b6000600660009054906101000a900473ffffffffffffffffffffffffffffffffffffffff16905090565b610a946112b3565b6000610a9e611289565b90508073ffffffffffffffffffffffffffffffffffffffff1663a9059cbb338373ffffffffffffffffffffffffffffffffffffffff166370a08231306040518263ffffffff1660e01b8152600401610af69190611fb9565b602060405180830381865afa158015610b13573d6000803e3d6000fd5b505050506040513d601f19601f82011682018060405250810190610b37919061265f565b6040518363ffffffff1660e01b8152600401610b5492919061268c565b6020604051808303816000875af1158015610b73573d6000803e3d6000fd5b505050506040513d601f19601f82011682018060405250810190610b9791906123f8565b610bd6576040517f08c379a0000000000000000000000000000000000000000000000000000000008152600401610bcd90612701565b60405180910390fd5b50565b610be16112b3565b80600b9081610bf091906128c0565b5050565b600b8054610c01906124c0565b80601f0160208091040260200160405190810160405280929190818152602001828054610c2d906124c0565b8015610c7a5780601f10610c4f57610100808354040283529160200191610c7a565b820191906000526020600020905b815481529060010190602001808311610c5d57829003601f168201915b505050505081565b816005600082815260200190815260200160002060009054906101000a900473ffffffffffffffffffffffffffffffffffffffff1673ffffffffffffffffffffffffffffffffffffffff163373ffffffffffffffffffffffffffffffffffffffff1614610d24576040517f08c379a0000000000000000000000000000000000000000000000000000000008152600401610d1b90612a04565b60405180910390fd5b6005600082815260200190815260200160002060006101000a81549073ffffffffffffffffffffffffffffffffffffffff0219169055807f7cc135e0cebb02c3480ae5d74d377283180a2601f8f644edf7987b009316c63a60405160405180910390a28160089081610d969190612a7f565b5081600960008581526020019081526020016000209081610db79190612a7f565b50505050565b600c5481565b610dcb6112b3565b610dd481611389565b50565b600080610df6600b610de89061256d565b3063c2fb852360e01b610f0f565b9050610e426040518060400160405280600781526020017f73657276696365000000000000000000000000000000000000000000000000008152508683610f409092919063ffffffff16565b610e8c6040518060400160405280600481526020017f64617461000000000000000000000000000000000000000000000000000000008152508583610f409092919063ffffffff16565b610ed66040518060400160405280600381526020017f61626900000000000000000000000000000000000000000000000000000000008152508483610f409092919063ffffffff16565b610f05600a60009054906101000a900473ffffffffffffffffffffffffffffffffffffffff1682600c546111af565b9150509392505050565b610f17611b87565b610f1f611b87565b610f36858585846114b7909392919063ffffffff16565b9150509392505050565b610f5782846080015161156790919063ffffffff16565b610f6e81846080015161156790919063ffffffff16565b505050565b606060006002836002610f869190612b80565b610f909190612bc2565b67ffffffffffffffff811115610fa957610fa8611c3d565b5b6040519080825280601f01601f191660200182016040528015610fdb5781602001600182028036833780820191505090505b5090507f30000000000000000000000000000000000000000000000000000000000000008160008151811061101357611012612bf6565b5b60200101907effffffffffffffffffffffffffffffffffffffffffffffffffffffffffffff1916908160001a9053507f78000000000000000000000000000000000000000000000000000000000000008160018151811061107757611076612bf6565b5b60200101907effffffffffffffffffffffffffffffffffffffffffffffffffffffffffffff1916908160001a905350600060018460026110b79190612b80565b6110c19190612bc2565b90505b6001811115611161577f3031323334353637383961626364656600000000000000000000000000000000600f86166010811061110357611102612bf6565b5b1a60f81b82828151811061111a57611119612bf6565b5b60200101907effffffffffffffffffffffffffffffffffffffffffffffffffffffffffffff1916908160001a905350600485901c94508061115a90612c25565b90506110c4565b50600084146111a5576040517f08c379a000000000000000000000000000000000000000000000000000000000815260040161119c90612c9a565b60405180910390fd5b8091505092915050565b60008060045490506001816111c49190612bc2565b6004819055506000634042994660e01b60008087600001513089604001518760018c6080015160000151604051602401611205989796959493929190612cf5565b604051602081830303815290604052907bffffffffffffffffffffffffffffffffffffffffffffffffffffffff19166020820180517bffffffffffffffffffffffffffffffffffffffffffffffffffffffff838183161783525050505090506112708683868461158c565b925050509392505050565b600060208201519050919050565b6000600260009054906101000a900473ffffffffffffffffffffffffffffffffffffffff16905090565b600660009054906101000a900473ffffffffffffffffffffffffffffffffffffffff1673ffffffffffffffffffffffffffffffffffffffff163373ffffffffffffffffffffffffffffffffffffffff1614611343576040517f08c379a000000000000000000000000000000000000000000000000000000000815260040161133a90612dc6565b60405180910390fd5b565b80600260006101000a81548173ffffffffffffffffffffffffffffffffffffffff021916908373ffffffffffffffffffffffffffffffffffffffff16021790555050565b3373ffffffffffffffffffffffffffffffffffffffff168173ffffffffffffffffffffffffffffffffffffffff16036113f7576040517f08c379a00000000000000000000000000000000000000000000000000000000081526004016113ee90612e32565b60405180910390fd5b80600760006101000a81548173ffffffffffffffffffffffffffffffffffffffff021916908373ffffffffffffffffffffffffffffffffffffffff1602179055508073ffffffffffffffffffffffffffffffffffffffff16600660009054906101000a900473ffffffffffffffffffffffffffffffffffffffff1673ffffffffffffffffffffffffffffffffffffffff167fed8889f560326eb138920d842192f0eb3dd22b4f139c87a2c57538e05bae127860405160405180910390a350565b6114bf611b87565b6114cf8560800151610100611721565b508385600001818152505082856020019073ffffffffffffffffffffffffffffffffffffffff16908173ffffffffffffffffffffffffffffffffffffffff16815250508185604001907bffffffffffffffffffffffffffffffffffffffffffffffffffffffff191690817bffffffffffffffffffffffffffffffffffffffffffffffffffffffff191681525050849050949350505050565b611574826003835161178b565b611587818361191090919063ffffffff16565b505050565b600030846040516020016115a1929190612f01565b604051602081830303815290604052805190602001209050846005600083815260200190815260200160002060006101000a81548173ffffffffffffffffffffffffffffffffffffffff021916908373ffffffffffffffffffffffffffffffffffffffff160217905550807fb5e6e01e79f91267dc17b4e6314d5d4d03593d2ceee0fbb452b750bd70ea5af960405160405180910390a2600260009054906101000a900473ffffffffffffffffffffffffffffffffffffffff1673ffffffffffffffffffffffffffffffffffffffff16634000aea08685856040518463ffffffff1660e01b815260040161169793929190612f2d565b6020604051808303816000875af11580156116b6573d6000803e3d6000fd5b505050506040513d601f19601f820116820180604052508101906116da91906123f8565b611719576040517f08c379a000000000000000000000000000000000000000000000000000000000815260040161171090612fdd565b60405180910390fd5b949350505050565b611729611bf4565b6000602083611738919061302c565b146117645760208261174a919061302c565b6020611756919061305d565b826117619190612bc2565b91505b81836020018181525050604051808452600081528281016020016040525082905092915050565b60178167ffffffffffffffff16116117c2576117bc8160058460ff16901b60ff16178461193290919063ffffffff16565b5061190b565b60ff8167ffffffffffffffff1611611818576117f1601860058460ff16901b178461193290919063ffffffff16565b506118128167ffffffffffffffff166001856119529092919063ffffffff16565b5061190a565b61ffff8167ffffffffffffffff161161186f57611848601960058460ff16901b178461193290919063ffffffff16565b506118698167ffffffffffffffff166002856119529092919063ffffffff16565b50611909565b63ffffffff8167ffffffffffffffff16116118c8576118a1601a60058460ff16901b178461193290919063ffffffff16565b506118c28167ffffffffffffffff166004856119529092919063ffffffff16565b50611908565b6118e5601b60058460ff16901b178461193290919063ffffffff16565b506119068167ffffffffffffffff166008856119529092919063ffffffff16565b505b5b5b5b505050565b611918611bf4565b61192a83846000015151848551611974565b905092915050565b61193a611bf4565b61194a8384600001515184611a63565b905092915050565b61195a611bf4565b61196b848560000151518585611ab9565b90509392505050565b61197c611bf4565b825182111561198a57600080fd5b8460200151828561199b9190612bc2565b11156119d0576119cf8560026119c0886020015188876119bb9190612bc2565b611b47565b6119ca9190612b80565b611b63565b5b6000808651805187602083010193508088870111156119ef5787860182525b60208701925050505b60208410611a365780518252602082611a119190612bc2565b9150602081611a209190612bc2565b9050602084611a2f919061305d565b93506119f8565b60006001856020036101000a03905080198251168184511681811785525050508692505050949350505050565b611a6b611bf4565b83602001518310611a9157611a908460028660200151611a8b9190612b80565b611b63565b5b83518051602085830101848153818603611aac576001820183525b5050508390509392505050565b611ac1611bf4565b84602001518483611ad29190612bc2565b1115611afa57611af98560028685611aea9190612bc2565b611af49190612b80565b611b63565b5b6000600183610100611b0c91906131c4565b611b16919061305d565b90508551838682010185831982511617815281518588011115611b395784870182525b505085915050949350505050565b600081831115611b5957829050611b5d565b8190505b92915050565b600082600001519050611b768383611721565b50611b818382611910565b50505050565b6040518060a0016040528060008019168152602001600073ffffffffffffffffffffffffffffffffffffffff16815260200160007bffffffffffffffffffffffffffffffffffffffffffffffffffffffff1916815260200160008152602001611bee611bf4565b81525090565b604051806040016040528060608152602001600081525090565b6000604051905090565b600080fd5b600080fd5b600080fd5b600080fd5b6000601f19601f8301169050919050565b7f4e487b7100000000000000000000000000000000000000000000000000000000600052604160045260246000fd5b611c7582611c2c565b810181811067ffffffffffffffff82111715611c9457611c93611c3d565b5b80604052505050565b6000611ca7611c0e565b9050611cb38282611c6c565b919050565b600067ffffffffffffffff821115611cd357611cd2611c3d565b5b611cdc82611c2c565b9050602081019050919050565b82818337600083830152505050565b6000611d0b611d0684611cb8565b611c9d565b905082815260208101848484011115611d2757611d26611c27565b5b611d32848285611ce9565b509392505050565b600082601f830112611d4f57611d4e611c22565b5b8135611d5f848260208601611cf8565b91505092915050565b6000819050919050565b611d7b81611d68565b8114611d8657600080fd5b50565b600081359050611d9881611d72565b92915050565b60008060008060008060c08789031215611dbb57611dba611c18565b5b600087013567ffffffffffffffff811115611dd957611dd8611c1d565b5b611de589828a01611d3a565b965050602087013567ffffffffffffffff811115611e0657611e05611c1d565b5b611e1289828a01611d3a565b955050604087013567ffffffffffffffff811115611e3357611e32611c1d565b5b611e3f89828a01611d3a565b945050606087013567ffffffffffffffff811115611e6057611e5f611c1d565b5b611e6c89828a01611d3a565b935050608087013567ffffffffffffffff811115611e8d57611e8c611c1d565b5b611e9989828a01611d3a565b92505060a0611eaa89828a01611d89565b9150509295509295509295565b6000819050919050565b611eca81611eb7565b82525050565b6000602082019050611ee56000830184611ec1565b92915050565b611ef481611eb7565b8114611eff57600080fd5b50565b600081359050611f1181611eeb565b92915050565b600060208284031215611f2d57611f2c611c18565b5b6000611f3b84828501611f02565b91505092915050565b6000819050919050565b611f5781611f44565b82525050565b6000602082019050611f726000830184611f4e565b92915050565b600073ffffffffffffffffffffffffffffffffffffffff82169050919050565b6000611fa382611f78565b9050919050565b611fb381611f98565b82525050565b6000602082019050611fce6000830184611faa565b92915050565b611fdd81611f98565b8114611fe857600080fd5b50565b600081359050611ffa81611fd4565b92915050565b60006020828403121561201657612015611c18565b5b600061202484828501611feb565b91505092915050565b600081519050919050565b600082825260208201905092915050565b60005b8381101561206757808201518184015260208101905061204c565b60008484015250505050565b600061207e8261202d565b6120888185612038565b9350612098818560208601612049565b6120a181611c2c565b840191505092915050565b600060208201905081810360008301526120c68184612073565b905092915050565b6000602082840312156120e4576120e3611c18565b5b60006120f284828501611d89565b91505092915050565b60006020828403121561211157612110611c18565b5b600082013567ffffffffffffffff81111561212f5761212e611c1d565b5b61213b84828501611d3a565b91505092915050565b600081519050919050565b600082825260208201905092915050565b600061216b82612144565b612175818561214f565b9350612185818560208601612049565b61218e81611c2c565b840191505092915050565b600060208201905081810360008301526121b38184612160565b905092915050565b600067ffffffffffffffff8211156121d6576121d5611c3d565b5b6121df82611c2c565b9050602081019050919050565b60006121ff6121fa846121bb565b611c9d565b90508281526020810184848401111561221b5761221a611c27565b5b612226848285611ce9565b509392505050565b600082601f83011261224357612242611c22565b5b81356122538482602086016121ec565b91505092915050565b6000806040838503121561227357612272611c18565b5b600061228185828601611f02565b925050602083013567ffffffffffffffff8111156122a2576122a1611c1d565b5b6122ae8582860161222e565b9150509250929050565b6122c181611d68565b82525050565b60006020820190506122dc60008301846122b8565b92915050565b6000806000606084860312156122fb576122fa611c18565b5b600084013567ffffffffffffffff81111561231957612318611c1d565b5b61232586828701611d3a565b935050602084013567ffffffffffffffff81111561234657612345611c1d565b5b61235286828701611d3a565b925050604084013567ffffffffffffffff81111561237357612372611c1d565b5b61237f86828701611d3a565b9150509250925092565b600060608201905061239e6000830186611faa565b6123ab6020830185611faa565b6123b860408301846122b8565b949350505050565b60008115159050919050565b6123d5816123c0565b81146123e057600080fd5b50565b6000815190506123f2816123cc565b92915050565b60006020828403121561240e5761240d611c18565b5b600061241c848285016123e3565b91505092915050565b7f7472616e73666572206661696c65640000000000000000000000000000000000600082015250565b600061245b600f8361214f565b915061246682612425565b602082019050919050565b6000602082019050818103600083015261248a8161244e565b9050919050565b7f4e487b7100000000000000000000000000000000000000000000000000000000600052602260045260246000fd5b600060028204905060018216806124d857607f821691505b6020821081036124eb576124ea612491565b5b50919050565b600081549050612500816124c0565b9050919050565b60008190508160005260206000209050919050565b60008160001c9050919050565b6000819050919050565b60006125466125418361251c565b612529565b9050919050565b60006125598254612533565b9050919050565b600082821b905092915050565b6000612578826124f1565b82601f82111561258e5761258b84612507565b90505b6125978161254d565b925060208210156125d7576125d27fffffffffffffffffffffffffffffffffffffffffffffffffffffffffffffffff83602003600802612560565b831692505b5050919050565b7f4d7573742062652070726f706f736564206f776e657200000000000000000000600082015250565b600061261460168361214f565b915061261f826125de565b602082019050919050565b6000602082019050818103600083015261264381612607565b9050919050565b60008151905061265981611d72565b92915050565b60006020828403121561267557612674611c18565b5b60006126838482850161264a565b91505092915050565b60006040820190506126a16000830185611faa565b6126ae60208301846122b8565b9392505050565b7f556e61626c6520746f207472616e736665720000000000000000000000000000600082015250565b60006126eb60128361214f565b91506126f6826126b5565b602082019050919050565b6000602082019050818103600083015261271a816126de565b9050919050565b60008190508160005260206000209050919050565b60006020601f8301049050919050565b6000600883026127767fffffffffffffffffffffffffffffffffffffffffffffffffffffffffffffffff82612560565b6127808683612560565b95508019841693508086168417925050509392505050565b6000819050919050565b60006127bd6127b86127b384611d68565b612798565b611d68565b9050919050565b6000819050919050565b6127d7836127a2565b6127eb6127e3826127c4565b848454612746565b825550505050565b600090565b6128006127f3565b61280b8184846127ce565b505050565b5b8181101561282f576128246000826127f8565b600181019050612811565b5050565b601f8211156128745761284581612721565b61284e84612736565b8101602085101561285d578190505b61287161286985612736565b830182612810565b50505b505050565b600082821c905092915050565b600061289760001984600802612879565b1980831691505092915050565b60006128b08383612886565b9150826002028217905092915050565b6128c982612144565b67ffffffffffffffff8111156128e2576128e1611c3d565b5b6128ec82546124c0565b6128f7828285612833565b600060209050601f83116001811461292a5760008415612918578287015190505b61292285826128a4565b86555061298a565b601f19841661293886612721565b60005b828110156129605784890151825560018201915060208501945060208101905061293b565b8683101561297d5784890151612979601f891682612886565b8355505b6001600288020188555050505b505050505050565b7f536f75726365206d75737420626520746865206f7261636c65206f662074686560008201527f2072657175657374000000000000000000000000000000000000000000000000602082015250565b60006129ee60288361214f565b91506129f982612992565b604082019050919050565b60006020820190508181036000830152612a1d816129e1565b9050919050565b60008190508160005260206000209050919050565b601f821115612a7a57612a4b81612a24565b612a5484612736565b81016020851015612a63578190505b612a77612a6f85612736565b830182612810565b50505b505050565b612a888261202d565b67ffffffffffffffff811115612aa157612aa0611c3d565b5b612aab82546124c0565b612ab6828285612a39565b600060209050601f831160018114612ae95760008415612ad7578287015190505b612ae185826128a4565b865550612b49565b601f198416612af786612a24565b60005b82811015612b1f57848901518255600182019150602085019450602081019050612afa565b86831015612b3c5784890151612b38601f891682612886565b8355505b6001600288020188555050505b505050505050565b7f4e487b7100000000000000000000000000000000000000000000000000000000600052601160045260246000fd5b6000612b8b82611d68565b9150612b9683611d68565b9250828202612ba481611d68565b91508282048414831517612bbb57612bba612b51565b5b5092915050565b6000612bcd82611d68565b9150612bd883611d68565b9250828201905080821115612bf057612bef612b51565b5b92915050565b7f4e487b7100000000000000000000000000000000000000000000000000000000600052603260045260246000fd5b6000612c3082611d68565b915060008203612c4357612c42612b51565b5b600182039050919050565b7f537472696e67733a20686578206c656e67746820696e73756666696369656e74600082015250565b6000612c8460208361214f565b9150612c8f82612c4e565b602082019050919050565b60006020820190508181036000830152612cb381612c77565b9050919050565b60007fffffffff0000000000000000000000000000000000000000000000000000000082169050919050565b612cef81612cba565b82525050565b600061010082019050612d0b600083018b611faa565b612d18602083018a6122b8565b612d256040830189611ec1565b612d326060830188611faa565b612d3f6080830187612ce6565b612d4c60a08301866122b8565b612d5960c08301856122b8565b81810360e0830152612d6b8184612073565b90509998505050505050505050565b7f4f6e6c792063616c6c61626c65206279206f776e657200000000000000000000600082015250565b6000612db060168361214f565b9150612dbb82612d7a565b602082019050919050565b60006020820190508181036000830152612ddf81612da3565b9050919050565b7f43616e6e6f74207472616e7366657220746f2073656c66000000000000000000600082015250565b6000612e1c60178361214f565b9150612e2782612de6565b602082019050919050565b60006020820190508181036000830152612e4b81612e0f565b9050919050565b6000612e6d612e68612e6384611f78565b612798565b611f78565b9050919050565b6000612e7f82612e52565b9050919050565b6000612e9182612e74565b9050919050565b60008160601b9050919050565b6000612eb082612e98565b9050919050565b6000612ec282612ea5565b9050919050565b612eda612ed582612e86565b612eb7565b82525050565b6000819050919050565b612efb612ef682611d68565b612ee0565b82525050565b6000612f0d8285612ec9565b601482019150612f1d8284612eea565b6020820191508190509392505050565b6000606082019050612f426000830186611faa565b612f4f60208301856122b8565b8181036040830152612f618184612073565b9050949350505050565b7f756e61626c6520746f207472616e73666572416e6443616c6c20746f206f726160008201527f636c650000000000000000000000000000000000000000000000000000000000602082015250565b6000612fc760238361214f565b9150612fd282612f6b565b604082019050919050565b60006020820190508181036000830152612ff681612fba565b9050919050565b7f4e487b7100000000000000000000000000000000000000000000000000000000600052601260045260246000fd5b600061303782611d68565b915061304283611d68565b92508261305257613051612ffd565b5b828206905092915050565b600061306882611d68565b915061307383611d68565b925082820390508181111561308b5761308a612b51565b5b92915050565b60008160011c9050919050565b6000808291508390505b60018511156130e8578086048111156130c4576130c3612b51565b5b60018516156130d35780820291505b80810290506130e185613091565b94506130a8565b94509492505050565b60008261310157600190506131bd565b8161310f57600090506131bd565b8160018114613125576002811461312f5761315e565b60019150506131bd565b60ff84111561314157613140612b51565b5b8360020a91508482111561315857613157612b51565b5b506131bd565b5060208310610133831016604e8410600b84101617156131935782820a90508381111561318e5761318d612b51565b5b6131bd565b6131a0848484600161309e565b925090508184048111156131b7576131b6612b51565b5b81810290505b9392505050565b60006131cf82611d68565b91506131da83611d68565b92506132077fffffffffffffffffffffffffffffffffffffffffffffffffffffffffffffffff84846130f1565b90509291505056fea264697066735822122017903070ab4792cc137e5c9b122e2ee92e374600f4ddb4e8bd0d420ac89164c364736f6c63430008110033",
  "devdoc": {
    "kind": "dev",
    "methods": {},
    "version": 1
  },
  "userdoc": {
    "kind": "user",
    "methods": {
      "acceptOwnership()": {
        "notice": "Allows an ownership transfer to be completed by the recipient."
      },
      "getInt256(bytes32)": {
        "notice": "Use functions like this if you want to process the item as int256 "
      },
      "owner()": {
        "notice": "Get the current owner"
      },
      "transferOwnership(address)": {
        "notice": "Allows an owner to begin transferring ownership to a new address, pending."
      }
    },
    "version": 1
  },
  "storageLayout": {
    "storage": [
      {
        "astId": 319,
        "contract": "contracts/TruflationTesterV2.sol:TruflationTesterV2",
        "label": "s_ens",
        "offset": 0,
        "slot": "0",
        "type": "t_contract(ENSInterface)1156"
      },
      {
        "astId": 321,
        "contract": "contracts/TruflationTesterV2.sol:TruflationTesterV2",
        "label": "s_ensNode",
        "offset": 0,
        "slot": "1",
        "type": "t_bytes32"
      },
      {
        "astId": 324,
        "contract": "contracts/TruflationTesterV2.sol:TruflationTesterV2",
        "label": "s_link",
        "offset": 0,
        "slot": "2",
        "type": "t_contract(LinkTokenInterface)1251"
      },
      {
        "astId": 327,
        "contract": "contracts/TruflationTesterV2.sol:TruflationTesterV2",
        "label": "s_oracle",
        "offset": 0,
        "slot": "3",
        "type": "t_contract(OperatorInterface)1331"
      },
      {
        "astId": 330,
        "contract": "contracts/TruflationTesterV2.sol:TruflationTesterV2",
        "label": "s_requestCount",
        "offset": 0,
        "slot": "4",
        "type": "t_uint256"
      },
      {
        "astId": 334,
        "contract": "contracts/TruflationTesterV2.sol:TruflationTesterV2",
        "label": "s_pendingRequests",
        "offset": 0,
        "slot": "5",
        "type": "t_mapping(t_bytes32,t_address)"
      },
      {
        "astId": 889,
        "contract": "contracts/TruflationTesterV2.sol:TruflationTesterV2",
        "label": "s_owner",
        "offset": 0,
        "slot": "6",
        "type": "t_address"
      },
      {
        "astId": 891,
        "contract": "contracts/TruflationTesterV2.sol:TruflationTesterV2",
        "label": "s_pendingOwner",
        "offset": 0,
        "slot": "7",
        "type": "t_address"
      },
      {
        "astId": 2614,
        "contract": "contracts/TruflationTesterV2.sol:TruflationTesterV2",
        "label": "result",
        "offset": 0,
        "slot": "8",
        "type": "t_bytes_storage"
      },
      {
        "astId": 2618,
        "contract": "contracts/TruflationTesterV2.sol:TruflationTesterV2",
        "label": "results",
        "offset": 0,
        "slot": "9",
        "type": "t_mapping(t_bytes32,t_bytes_storage)"
      },
      {
        "astId": 2620,
        "contract": "contracts/TruflationTesterV2.sol:TruflationTesterV2",
        "label": "oracleId",
        "offset": 0,
        "slot": "10",
        "type": "t_address"
      },
      {
        "astId": 2622,
        "contract": "contracts/TruflationTesterV2.sol:TruflationTesterV2",
        "label": "jobId",
        "offset": 0,
        "slot": "11",
        "type": "t_string_storage"
      },
      {
        "astId": 2624,
        "contract": "contracts/TruflationTesterV2.sol:TruflationTesterV2",
        "label": "fee",
        "offset": 0,
        "slot": "12",
        "type": "t_uint256"
      }
    ],
    "types": {
      "t_address": {
        "encoding": "inplace",
        "label": "address",
        "numberOfBytes": "20"
      },
      "t_bytes32": {
        "encoding": "inplace",
        "label": "bytes32",
        "numberOfBytes": "32"
      },
      "t_bytes_storage": {
        "encoding": "bytes",
        "label": "bytes",
        "numberOfBytes": "32"
      },
      "t_contract(ENSInterface)1156": {
        "encoding": "inplace",
        "label": "contract ENSInterface",
        "numberOfBytes": "20"
      },
      "t_contract(LinkTokenInterface)1251": {
        "encoding": "inplace",
        "label": "contract LinkTokenInterface",
        "numberOfBytes": "20"
      },
      "t_contract(OperatorInterface)1331": {
        "encoding": "inplace",
        "label": "contract OperatorInterface",
        "numberOfBytes": "20"
      },
      "t_mapping(t_bytes32,t_address)": {
        "encoding": "mapping",
        "key": "t_bytes32",
        "label": "mapping(bytes32 => address)",
        "numberOfBytes": "32",
        "value": "t_address"
      },
      "t_mapping(t_bytes32,t_bytes_storage)": {
        "encoding": "mapping",
        "key": "t_bytes32",
        "label": "mapping(bytes32 => bytes)",
        "numberOfBytes": "32",
        "value": "t_bytes_storage"
      },
      "t_string_storage": {
        "encoding": "bytes",
        "label": "string",
        "numberOfBytes": "32"
      },
      "t_uint256": {
        "encoding": "inplace",
        "label": "uint256",
        "numberOfBytes": "32"
      }
    }
  }
}