{
  "address": "0x568C059C287C5cc3428d268F52fC6C351f025a02",
  "abi": [
    {
      "inputs": [
        {
          "internalType": "address",
          "name": "link_",
          "type": "address"
        },
        {
          "internalType": "address",
          "name": "oracleId_",
          "type": "address"
        },
        {
          "internalType": "string",
          "name": "jobId_",
          "type": "string"
        },
        {
          "internalType": "uint256",
          "name": "fee_",
          "type": "uint256"
        }
      ],
      "stateMutability": "nonpayable",
      "type": "constructor"
    },
    {
      "anonymous": false,
      "inputs": [
        {
          "indexed": true,
          "internalType": "bytes32",
          "name": "id",
          "type": "bytes32"
        }
      ],
      "name": "ChainlinkCancelled",
      "type": "event"
    },
    {
      "anonymous": false,
      "inputs": [
        {
          "indexed": true,
          "internalType": "bytes32",
          "name": "id",
          "type": "bytes32"
        }
      ],
      "name": "ChainlinkFulfilled",
      "type": "event"
    },
    {
      "anonymous": false,
      "inputs": [
        {
          "indexed": true,
          "internalType": "bytes32",
          "name": "id",
          "type": "bytes32"
        }
      ],
      "name": "ChainlinkRequested",
      "type": "event"
    },
    {
      "anonymous": false,
      "inputs": [
        {
          "indexed": true,
          "internalType": "address",
          "name": "from",
          "type": "address"
        },
        {
          "indexed": true,
          "internalType": "address",
          "name": "to",
          "type": "address"
        }
      ],
      "name": "OwnershipTransferRequested",
      "type": "event"
    },
    {
      "anonymous": false,
      "inputs": [
        {
          "indexed": true,
          "internalType": "address",
          "name": "from",
          "type": "address"
        },
        {
          "indexed": true,
          "internalType": "address",
          "name": "to",
          "type": "address"
        }
      ],
      "name": "OwnershipTransferred",
      "type": "event"
    },
    {
      "inputs": [],
      "name": "acceptOwnership",
      "outputs": [],
      "stateMutability": "nonpayable",
      "type": "function"
    },
    {
      "inputs": [
        {
          "internalType": "string",
          "name": "_jobId",
          "type": "string"
        }
      ],
      "name": "changeJobId",
      "outputs": [],
      "stateMutability": "nonpayable",
      "type": "function"
    },
    {
      "inputs": [
        {
          "internalType": "address",
          "name": "_oracle",
          "type": "address"
        }
      ],
      "name": "changeOracle",
      "outputs": [],
      "stateMutability": "nonpayable",
      "type": "function"
    },
    {
      "inputs": [],
      "name": "fee",
      "outputs": [
        {
          "internalType": "uint256",
          "name": "",
          "type": "uint256"
        }
      ],
      "stateMutability": "view",
      "type": "function"
    },
    {
      "inputs": [
        {
          "internalType": "bytes32",
          "name": "_requestId",
          "type": "bytes32"
        },
        {
          "internalType": "bytes",
          "name": "_inflation",
          "type": "bytes"
        }
      ],
      "name": "fulfillInflationWei",
      "outputs": [],
      "stateMutability": "nonpayable",
      "type": "function"
    },
    {
      "inputs": [
        {
          "internalType": "bytes32",
          "name": "_requestId",
          "type": "bytes32"
        },
        {
          "internalType": "bytes",
          "name": "_inflation",
          "type": "bytes"
        }
      ],
      "name": "fulfillYoyInflation",
      "outputs": [],
      "stateMutability": "nonpayable",
      "type": "function"
    },
    {
      "inputs": [],
      "name": "getChainlinkToken",
      "outputs": [
        {
          "internalType": "address",
          "name": "",
          "type": "address"
        }
      ],
      "stateMutability": "view",
      "type": "function"
    },
    {
      "inputs": [],
      "name": "inflationWei",
      "outputs": [
        {
          "internalType": "int256",
          "name": "",
          "type": "int256"
        }
      ],
      "stateMutability": "view",
      "type": "function"
    },
    {
      "inputs": [],
      "name": "jobId",
      "outputs": [
        {
          "internalType": "string",
          "name": "",
          "type": "string"
        }
      ],
      "stateMutability": "view",
      "type": "function"
    },
    {
      "inputs": [],
      "name": "lastTimeStamp",
      "outputs": [
        {
          "internalType": "uint256",
          "name": "",
          "type": "uint256"
        }
      ],
      "stateMutability": "view",
      "type": "function"
    },
    {
      "inputs": [],
      "name": "oracleId",
      "outputs": [
        {
          "internalType": "address",
          "name": "",
          "type": "address"
        }
      ],
      "stateMutability": "view",
      "type": "function"
    },
    {
      "inputs": [],
      "name": "owner",
      "outputs": [
        {
          "internalType": "address",
          "name": "",
          "type": "address"
        }
      ],
      "stateMutability": "view",
      "type": "function"
    },
    {
      "inputs": [],
      "name": "requestInflationWei",
      "outputs": [
        {
          "internalType": "bytes32",
          "name": "requestId",
          "type": "bytes32"
        }
      ],
      "stateMutability": "nonpayable",
      "type": "function"
    },
    {
      "inputs": [],
      "name": "requestYoyInflation",
      "outputs": [
        {
          "internalType": "bytes32",
          "name": "requestId",
          "type": "bytes32"
        }
      ],
      "stateMutability": "nonpayable",
      "type": "function"
    },
    {
      "inputs": [],
      "name": "transferAndRequestInflationWei",
      "outputs": [
        {
          "internalType": "bytes32",
          "name": "requestId",
          "type": "bytes32"
        }
      ],
      "stateMutability": "nonpayable",
      "type": "function"
    },
    {
      "inputs": [],
      "name": "transferAndRequestYoyInflation",
      "outputs": [
        {
          "internalType": "bytes32",
          "name": "requestId",
          "type": "bytes32"
        }
      ],
      "stateMutability": "nonpayable",
      "type": "function"
    },
    {
      "inputs": [
        {
          "internalType": "address",
          "name": "to",
          "type": "address"
        }
      ],
      "name": "transferOwnership",
      "outputs": [],
      "stateMutability": "nonpayable",
      "type": "function"
    },
    {
      "inputs": [],
      "name": "withdrawLink",
      "outputs": [],
      "stateMutability": "nonpayable",
      "type": "function"
    },
    {
      "inputs": [],
      "name": "yoyInflation",
      "outputs": [
        {
          "internalType": "string",
          "name": "",
          "type": "string"
        }
      ],
      "stateMutability": "view",
      "type": "function"
    }
  ],
  "transactionHash": "0x9425f0d02d8462a75e551b113a7fa63bd1ec7e39a4f65d8eb6e28d23abba52b6",
  "args": [
    "0x326C977E6efc84E512bB9C30f76E30c160eD06FB",
    "0xcf72083697aB8A45905870C387dC93f380f2557b",
    "8b459447262a4ccf8863962e073576d9",
    "10000000000000000"
  ],
  "numDeployments": 4,
  "solcInputHash": "352f03b278115b3750602b4931e5f951",
  "bytecode": "0x608060405260016004553480156200001657600080fd5b5060405162003e9638038062003e9683398181016040528101906200003c919062000559565b338060008073ffffffffffffffffffffffffffffffffffffffff168273ffffffffffffffffffffffffffffffffffffffff1603620000b1576040517f08c379a0000000000000000000000000000000000000000000000000000000008152600401620000a8906200064b565b60405180910390fd5b81600660006101000a81548173ffffffffffffffffffffffffffffffffffffffff021916908373ffffffffffffffffffffffffffffffffffffffff160217905550600073ffffffffffffffffffffffffffffffffffffffff168173ffffffffffffffffffffffffffffffffffffffff161462000139576200013881620001b160201b60201c565b5b5050506200014d84620002e260201b60201c565b82600860006101000a81548173ffffffffffffffffffffffffffffffffffffffff021916908373ffffffffffffffffffffffffffffffffffffffff16021790555081600990816200019f9190620008ae565b5080600a819055505050505062000a07565b3373ffffffffffffffffffffffffffffffffffffffff168173ffffffffffffffffffffffffffffffffffffffff160362000222576040517f08c379a00000000000000000000000000000000000000000000000000000000081526004016200021990620009e5565b60405180910390fd5b80600760006101000a81548173ffffffffffffffffffffffffffffffffffffffff021916908373ffffffffffffffffffffffffffffffffffffffff1602179055508073ffffffffffffffffffffffffffffffffffffffff16600660009054906101000a900473ffffffffffffffffffffffffffffffffffffffff1673ffffffffffffffffffffffffffffffffffffffff167fed8889f560326eb138920d842192f0eb3dd22b4f139c87a2c57538e05bae127860405160405180910390a350565b80600260006101000a81548173ffffffffffffffffffffffffffffffffffffffff021916908373ffffffffffffffffffffffffffffffffffffffff16021790555050565b6000604051905090565b600080fd5b600080fd5b600073ffffffffffffffffffffffffffffffffffffffff82169050919050565b600062000367826200033a565b9050919050565b62000379816200035a565b81146200038557600080fd5b50565b60008151905062000399816200036e565b92915050565b600080fd5b600080fd5b6000601f19601f8301169050919050565b7f4e487b7100000000000000000000000000000000000000000000000000000000600052604160045260246000fd5b620003f482620003a9565b810181811067ffffffffffffffff82111715620004165762000415620003ba565b5b80604052505050565b60006200042b62000326565b9050620004398282620003e9565b919050565b600067ffffffffffffffff8211156200045c576200045b620003ba565b5b6200046782620003a9565b9050602081019050919050565b60005b838110156200049457808201518184015260208101905062000477565b60008484015250505050565b6000620004b7620004b1846200043e565b6200041f565b905082815260208101848484011115620004d657620004d5620003a4565b5b620004e384828562000474565b509392505050565b600082601f8301126200050357620005026200039f565b5b815162000515848260208601620004a0565b91505092915050565b6000819050919050565b62000533816200051e565b81146200053f57600080fd5b50565b600081519050620005538162000528565b92915050565b6000806000806080858703121562000576576200057562000330565b5b6000620005868782880162000388565b9450506020620005998782880162000388565b935050604085015167ffffffffffffffff811115620005bd57620005bc62000335565b5b620005cb87828801620004eb565b9250506060620005de8782880162000542565b91505092959194509250565b600082825260208201905092915050565b7f43616e6e6f7420736574206f776e657220746f207a65726f0000000000000000600082015250565b600062000633601883620005ea565b91506200064082620005fb565b602082019050919050565b60006020820190508181036000830152620006668162000624565b9050919050565b600081519050919050565b7f4e487b7100000000000000000000000000000000000000000000000000000000600052602260045260246000fd5b60006002820490506001821680620006c057607f821691505b602082108103620006d657620006d562000678565b5b50919050565b60008190508160005260206000209050919050565b60006020601f8301049050919050565b600082821b905092915050565b600060088302620007407fffffffffffffffffffffffffffffffffffffffffffffffffffffffffffffffff8262000701565b6200074c868362000701565b95508019841693508086168417925050509392505050565b6000819050919050565b60006200078f6200078962000783846200051e565b62000764565b6200051e565b9050919050565b6000819050919050565b620007ab836200076e565b620007c3620007ba8262000796565b8484546200070e565b825550505050565b600090565b620007da620007cb565b620007e7818484620007a0565b505050565b5b818110156200080f5762000803600082620007d0565b600181019050620007ed565b5050565b601f8211156200085e576200082881620006dc565b6200083384620006f1565b8101602085101562000843578190505b6200085b6200085285620006f1565b830182620007ec565b50505b505050565b600082821c905092915050565b6000620008836000198460080262000863565b1980831691505092915050565b60006200089e838362000870565b9150826002028217905092915050565b620008b9826200066d565b67ffffffffffffffff811115620008d557620008d4620003ba565b5b620008e18254620006a7565b620008ee82828562000813565b600060209050601f83116001811462000926576000841562000911578287015190505b6200091d858262000890565b8655506200098d565b601f1984166200093686620006dc565b60005b82811015620009605784890151825560018201915060208501945060208101905062000939565b868310156200098057848901516200097c601f89168262000870565b8355505b6001600288020188555050505b505050505050565b7f43616e6e6f74207472616e7366657220746f2073656c66000000000000000000600082015250565b6000620009cd601783620005ea565b9150620009da8262000995565b602082019050919050565b6000602082019050818103600083015262000a0081620009be565b9050919050565b61347f8062000a176000396000f3fe608060405234801561001057600080fd5b50600436106101215760003560e01c80638da5cb5b116100ad578063bb694f1611610071578063bb694f161461029c578063c2939d97146102b8578063ddca3f43146102d6578063e109f6d0146102f4578063f2fde38b1461031257610121565b80638da5cb5b1461021c5780638dc654a21461023a5780639063e21614610244578063a0050f5914610260578063af5d945b1461027e57610121565b80633f3b3b27116100f45780633f3b3b271461019c57806347c421b5146101ba57806372582c8d146101d657806379ba5097146101f45780638abd3057146101fe57610121565b8063164366e014610126578063165d35e1146101425780632121778d1461016057806321a3d9521461017e575b600080fd5b610140600480360381019061013b9190612356565b61032e565b005b61014a61044e565b60405161015791906123f3565b60405180910390f35b61016861045d565b60405161017591906123f3565b60405180910390f35b610186610483565b604051610193919061241d565b60405180910390f35b6101a4610789565b6040516101b19190612451565b60405180910390f35b6101d460048036038101906101cf9190612498565b61078f565b005b6101de6107db565b6040516101eb919061241d565b60405180910390f35b6101fc6109ae565b005b610206610b45565b604051610213919061241d565b60405180910390f35b610224610eca565b60405161023191906123f3565b60405180910390f35b610242610ef4565b005b61025e60048036038101906102599190612566565b611041565b005b61026861105c565b604051610275919061241d565b60405180910390f35b6102866112ae565b604051610293919061262e565b60405180910390f35b6102b660048036038101906102b19190612356565b61133c565b005b6102c061145d565b6040516102cd919061262e565b60405180910390f35b6102de6114eb565b6040516102eb9190612451565b60405180910390f35b6102fc6114f1565b6040516103099190612669565b60405180910390f35b61032c60048036038101906103279190612498565b6114f7565b005b816005600082815260200190815260200160002060009054906101000a900473ffffffffffffffffffffffffffffffffffffffff1673ffffffffffffffffffffffffffffffffffffffff163373ffffffffffffffffffffffffffffffffffffffff16146103d0576040517f08c379a00000000000000000000000000000000000000000000000000000000081526004016103c7906126f6565b60405180910390fd5b6005600082815260200190815260200160002060006101000a81549073ffffffffffffffffffffffffffffffffffffffff0219169055807f7cc135e0cebb02c3480ae5d74d377283180a2601f8f644edf7987b009316c63a60405160405180910390a261043c8261150b565b600c8190555042600d81905550505050565b6000610458611519565b905090565b600860009054906101000a900473ffffffffffffffffffffffffffffffffffffffff1681565b600061048d61044e565b73ffffffffffffffffffffffffffffffffffffffff166323b872dd3330600a546040518463ffffffff1660e01b81526004016104cb93929190612716565b6020604051808303816000875af11580156104ea573d6000803e3d6000fd5b505050506040513d601f19601f8201168201806040525081019061050e9190612785565b61054d576040517f08c379a0000000000000000000000000000000000000000000000000000000008152600401610544906127fe565b60405180910390fd5b600061056b600961055d906128fa565b3063bb694f1660e01b611543565b90506105ec6040518060400160405280600781526020017f73657276696365000000000000000000000000000000000000000000000000008152506040518060400160405280601281526020017f747275666c6174696f6e2f63757272656e740000000000000000000000000000815250836115749092919063ffffffff16565b61066b6040518060400160405280600781526020017f6b657970617468000000000000000000000000000000000000000000000000008152506040518060400160405280601581526020017f796561724f76657259656172496e666c6174696f6e0000000000000000000000815250836115749092919063ffffffff16565b6106ea6040518060400160405280600381526020017f61626900000000000000000000000000000000000000000000000000000000008152506040518060400160405280600481526020017f6a736f6e00000000000000000000000000000000000000000000000000000000815250836115749092919063ffffffff16565b6107546040518060400160405280600881526020017f726566756e64546f0000000000000000000000000000000000000000000000008152506107443373ffffffffffffffffffffffffffffffffffffffff1660146115a7565b836115749092919063ffffffff16565b610783600860009054906101000a900473ffffffffffffffffffffffffffffffffffffffff1682600a546117e3565b91505090565b600d5481565b6107976118af565b80600860006101000a81548173ffffffffffffffffffffffffffffffffffffffff021916908373ffffffffffffffffffffffffffffffffffffffff16021790555050565b6000806107fa60096107ec906128fa565b3063bb694f1660e01b611543565b905061087b6040518060400160405280600781526020017f73657276696365000000000000000000000000000000000000000000000000008152506040518060400160405280601281526020017f747275666c6174696f6e2f63757272656e740000000000000000000000000000815250836115749092919063ffffffff16565b6108fa6040518060400160405280600781526020017f6b657970617468000000000000000000000000000000000000000000000000008152506040518060400160405280601581526020017f796561724f76657259656172496e666c6174696f6e0000000000000000000000815250836115749092919063ffffffff16565b6109796040518060400160405280600381526020017f61626900000000000000000000000000000000000000000000000000000000008152506040518060400160405280600481526020017f6a736f6e00000000000000000000000000000000000000000000000000000000815250836115749092919063ffffffff16565b6109a8600860009054906101000a900473ffffffffffffffffffffffffffffffffffffffff1682600a546117e3565b91505090565b600760009054906101000a900473ffffffffffffffffffffffffffffffffffffffff1673ffffffffffffffffffffffffffffffffffffffff163373ffffffffffffffffffffffffffffffffffffffff1614610a3e576040517f08c379a0000000000000000000000000000000000000000000000000000000008152600401610a35906129b7565b60405180910390fd5b6000600660009054906101000a900473ffffffffffffffffffffffffffffffffffffffff16905033600660006101000a81548173ffffffffffffffffffffffffffffffffffffffff021916908373ffffffffffffffffffffffffffffffffffffffff1602179055506000600760006101000a81548173ffffffffffffffffffffffffffffffffffffffff021916908373ffffffffffffffffffffffffffffffffffffffff1602179055503373ffffffffffffffffffffffffffffffffffffffff168173ffffffffffffffffffffffffffffffffffffffff167f8be0079c531659141344cd1fd0a4f28419497f9722a3daafe3b4186f6b6457e060405160405180910390a350565b6000610b4f61044e565b73ffffffffffffffffffffffffffffffffffffffff166323b872dd3330600a546040518463ffffffff1660e01b8152600401610b8d93929190612716565b6020604051808303816000875af1158015610bac573d6000803e3d6000fd5b505050506040513d601f19601f82011682018060405250810190610bd09190612785565b610c0f576040517f08c379a0000000000000000000000000000000000000000000000000000000008152600401610c06906127fe565b60405180910390fd5b6000610c2d6009610c1f906128fa565b3063164366e060e01b611543565b9050610cae6040518060400160405280600781526020017f73657276696365000000000000000000000000000000000000000000000000008152506040518060400160405280601281526020017f747275666c6174696f6e2f63757272656e740000000000000000000000000000815250836115749092919063ffffffff16565b610d2d6040518060400160405280600781526020017f6b657970617468000000000000000000000000000000000000000000000000008152506040518060400160405280601581526020017f796561724f76657259656172496e666c6174696f6e0000000000000000000000815250836115749092919063ffffffff16565b610dac6040518060400160405280600381526020017f61626900000000000000000000000000000000000000000000000000000000008152506040518060400160405280600681526020017f696e743235360000000000000000000000000000000000000000000000000000815250836115749092919063ffffffff16565b610e2b6040518060400160405280600a81526020017f6d756c7469706c696572000000000000000000000000000000000000000000008152506040518060400160405280601381526020017f3130303030303030303030303030303030303000000000000000000000000000815250836115749092919063ffffffff16565b610e956040518060400160405280600881526020017f726566756e64546f000000000000000000000000000000000000000000000000815250610e853373ffffffffffffffffffffffffffffffffffffffff1660146115a7565b836115749092919063ffffffff16565b610ec4600860009054906101000a900473ffffffffffffffffffffffffffffffffffffffff1682600a546117e3565b91505090565b6000600660009054906101000a900473ffffffffffffffffffffffffffffffffffffffff16905090565b610efc6118af565b6000610f06611519565b90508073ffffffffffffffffffffffffffffffffffffffff1663a9059cbb338373ffffffffffffffffffffffffffffffffffffffff166370a08231306040518263ffffffff1660e01b8152600401610f5e91906123f3565b602060405180830381865afa158015610f7b573d6000803e3d6000fd5b505050506040513d601f19601f82011682018060405250810190610f9f9190612a03565b6040518363ffffffff1660e01b8152600401610fbc929190612a30565b6020604051808303816000875af1158015610fdb573d6000803e3d6000fd5b505050506040513d601f19601f82011682018060405250810190610fff9190612785565b61103e576040517f08c379a000000000000000000000000000000000000000000000000000000000815260040161103590612aa5565b60405180910390fd5b50565b6110496118af565b80600990816110589190612c64565b5050565b60008061107b600961106d906128fa565b3063164366e060e01b611543565b90506110fc6040518060400160405280600781526020017f73657276696365000000000000000000000000000000000000000000000000008152506040518060400160405280601281526020017f747275666c6174696f6e2f63757272656e740000000000000000000000000000815250836115749092919063ffffffff16565b61117b6040518060400160405280600781526020017f6b657970617468000000000000000000000000000000000000000000000000008152506040518060400160405280601581526020017f796561724f76657259656172496e666c6174696f6e0000000000000000000000815250836115749092919063ffffffff16565b6111fa6040518060400160405280600381526020017f61626900000000000000000000000000000000000000000000000000000000008152506040518060400160405280600681526020017f696e743235360000000000000000000000000000000000000000000000000000815250836115749092919063ffffffff16565b6112796040518060400160405280600a81526020017f6d756c7469706c696572000000000000000000000000000000000000000000008152506040518060400160405280601381526020017f3130303030303030303030303030303030303000000000000000000000000000815250836115749092919063ffffffff16565b6112a8600860009054906101000a900473ffffffffffffffffffffffffffffffffffffffff1682600a546117e3565b91505090565b600b80546112bb9061284d565b80601f01602080910402602001604051908101604052809291908181526020018280546112e79061284d565b80156113345780601f1061130957610100808354040283529160200191611334565b820191906000526020600020905b81548152906001019060200180831161131757829003601f168201915b505050505081565b816005600082815260200190815260200160002060009054906101000a900473ffffffffffffffffffffffffffffffffffffffff1673ffffffffffffffffffffffffffffffffffffffff163373ffffffffffffffffffffffffffffffffffffffff16146113de576040517f08c379a00000000000000000000000000000000000000000000000000000000081526004016113d5906126f6565b60405180910390fd5b6005600082815260200190815260200160002060006101000a81549073ffffffffffffffffffffffffffffffffffffffff0219169055807f7cc135e0cebb02c3480ae5d74d377283180a2601f8f644edf7987b009316c63a60405160405180910390a281600b90816114509190612c64565b5042600d81905550505050565b6009805461146a9061284d565b80601f01602080910402602001604051908101604052809291908181526020018280546114969061284d565b80156114e35780601f106114b8576101008083540402835291602001916114e3565b820191906000526020600020905b8154815290600101906020018083116114c657829003601f168201915b505050505081565b600a5481565b600c5481565b6114ff6118af565b61150881611941565b50565b600060208201519050919050565b6000600260009054906101000a900473ffffffffffffffffffffffffffffffffffffffff16905090565b61154b61213f565b61155361213f565b61156a85858584611a6f909392919063ffffffff16565b9150509392505050565b61158b828460800151611b1f90919063ffffffff16565b6115a2818460800151611b1f90919063ffffffff16565b505050565b6060600060028360026115ba9190612d65565b6115c49190612da7565b67ffffffffffffffff8111156115dd576115dc61222b565b5b6040519080825280601f01601f19166020018201604052801561160f5781602001600182028036833780820191505090505b5090507f30000000000000000000000000000000000000000000000000000000000000008160008151811061164757611646612ddb565b5b60200101907effffffffffffffffffffffffffffffffffffffffffffffffffffffffffffff1916908160001a9053507f7800000000000000000000000000000000000000000000000000000000000000816001815181106116ab576116aa612ddb565b5b60200101907effffffffffffffffffffffffffffffffffffffffffffffffffffffffffffff1916908160001a905350600060018460026116eb9190612d65565b6116f59190612da7565b90505b6001811115611795577f3031323334353637383961626364656600000000000000000000000000000000600f86166010811061173757611736612ddb565b5b1a60f81b82828151811061174e5761174d612ddb565b5b60200101907effffffffffffffffffffffffffffffffffffffffffffffffffffffffffffff1916908160001a905350600485901c94508061178e90612e0a565b90506116f8565b50600084146117d9576040517f08c379a00000000000000000000000000000000000000000000000000000000081526004016117d090612e7f565b60405180910390fd5b8091505092915050565b60008060045490506001816117f89190612da7565b6004819055506000634042994660e01b60008087600001513089604001518760018c6080015160000151604051602401611839989796959493929190612f2f565b604051602081830303815290604052907bffffffffffffffffffffffffffffffffffffffffffffffffffffffff19166020820180517bffffffffffffffffffffffffffffffffffffffffffffffffffffffff838183161783525050505090506118a486838684611b44565b925050509392505050565b600660009054906101000a900473ffffffffffffffffffffffffffffffffffffffff1673ffffffffffffffffffffffffffffffffffffffff163373ffffffffffffffffffffffffffffffffffffffff161461193f576040517f08c379a000000000000000000000000000000000000000000000000000000000815260040161193690613000565b60405180910390fd5b565b3373ffffffffffffffffffffffffffffffffffffffff168173ffffffffffffffffffffffffffffffffffffffff16036119af576040517f08c379a00000000000000000000000000000000000000000000000000000000081526004016119a69061306c565b60405180910390fd5b80600760006101000a81548173ffffffffffffffffffffffffffffffffffffffff021916908373ffffffffffffffffffffffffffffffffffffffff1602179055508073ffffffffffffffffffffffffffffffffffffffff16600660009054906101000a900473ffffffffffffffffffffffffffffffffffffffff1673ffffffffffffffffffffffffffffffffffffffff167fed8889f560326eb138920d842192f0eb3dd22b4f139c87a2c57538e05bae127860405160405180910390a350565b611a7761213f565b611a878560800151610100611cd9565b508385600001818152505082856020019073ffffffffffffffffffffffffffffffffffffffff16908173ffffffffffffffffffffffffffffffffffffffff16815250508185604001907bffffffffffffffffffffffffffffffffffffffffffffffffffffffff191690817bffffffffffffffffffffffffffffffffffffffffffffffffffffffff191681525050849050949350505050565b611b2c8260038351611d43565b611b3f8183611ec890919063ffffffff16565b505050565b60003084604051602001611b5992919061313b565b604051602081830303815290604052805190602001209050846005600083815260200190815260200160002060006101000a81548173ffffffffffffffffffffffffffffffffffffffff021916908373ffffffffffffffffffffffffffffffffffffffff160217905550807fb5e6e01e79f91267dc17b4e6314d5d4d03593d2ceee0fbb452b750bd70ea5af960405160405180910390a2600260009054906101000a900473ffffffffffffffffffffffffffffffffffffffff1673ffffffffffffffffffffffffffffffffffffffff16634000aea08685856040518463ffffffff1660e01b8152600401611c4f93929190613167565b6020604051808303816000875af1158015611c6e573d6000803e3d6000fd5b505050506040513d601f19601f82011682018060405250810190611c929190612785565b611cd1576040517f08c379a0000000000000000000000000000000000000000000000000000000008152600401611cc890613217565b60405180910390fd5b949350505050565b611ce16121ac565b6000602083611cf09190613266565b14611d1c57602082611d029190613266565b6020611d0e9190613297565b82611d199190612da7565b91505b81836020018181525050604051808452600081528281016020016040525082905092915050565b60178167ffffffffffffffff1611611d7a57611d748160058460ff16901b60ff161784611eea90919063ffffffff16565b50611ec3565b60ff8167ffffffffffffffff1611611dd057611da9601860058460ff16901b1784611eea90919063ffffffff16565b50611dca8167ffffffffffffffff16600185611f0a9092919063ffffffff16565b50611ec2565b61ffff8167ffffffffffffffff1611611e2757611e00601960058460ff16901b1784611eea90919063ffffffff16565b50611e218167ffffffffffffffff16600285611f0a9092919063ffffffff16565b50611ec1565b63ffffffff8167ffffffffffffffff1611611e8057611e59601a60058460ff16901b1784611eea90919063ffffffff16565b50611e7a8167ffffffffffffffff16600485611f0a9092919063ffffffff16565b50611ec0565b611e9d601b60058460ff16901b1784611eea90919063ffffffff16565b50611ebe8167ffffffffffffffff16600885611f0a9092919063ffffffff16565b505b5b5b5b505050565b611ed06121ac565b611ee283846000015151848551611f2c565b905092915050565b611ef26121ac565b611f02838460000151518461201b565b905092915050565b611f126121ac565b611f23848560000151518585612071565b90509392505050565b611f346121ac565b8251821115611f4257600080fd5b84602001518285611f539190612da7565b1115611f8857611f87856002611f7888602001518887611f739190612da7565b6120ff565b611f829190612d65565b61211b565b5b600080865180518760208301019350808887011115611fa75787860182525b60208701925050505b60208410611fee5780518252602082611fc99190612da7565b9150602081611fd89190612da7565b9050602084611fe79190613297565b9350611fb0565b60006001856020036101000a03905080198251168184511681811785525050508692505050949350505050565b6120236121ac565b836020015183106120495761204884600286602001516120439190612d65565b61211b565b5b83518051602085830101848153818603612064576001820183525b5050508390509392505050565b6120796121ac565b8460200151848361208a9190612da7565b11156120b2576120b185600286856120a29190612da7565b6120ac9190612d65565b61211b565b5b60006001836101006120c491906133fe565b6120ce9190613297565b905085518386820101858319825116178152815185880111156120f15784870182525b505085915050949350505050565b60008183111561211157829050612115565b8190505b92915050565b60008260000151905061212e8383611cd9565b506121398382611ec8565b50505050565b6040518060a0016040528060008019168152602001600073ffffffffffffffffffffffffffffffffffffffff16815260200160007bffffffffffffffffffffffffffffffffffffffffffffffffffffffff19168152602001600081526020016121a66121ac565b81525090565b604051806040016040528060608152602001600081525090565b6000604051905090565b600080fd5b600080fd5b6000819050919050565b6121ed816121da565b81146121f857600080fd5b50565b60008135905061220a816121e4565b92915050565b600080fd5b600080fd5b6000601f19601f8301169050919050565b7f4e487b7100000000000000000000000000000000000000000000000000000000600052604160045260246000fd5b6122638261221a565b810181811067ffffffffffffffff821117156122825761228161222b565b5b80604052505050565b60006122956121c6565b90506122a1828261225a565b919050565b600067ffffffffffffffff8211156122c1576122c061222b565b5b6122ca8261221a565b9050602081019050919050565b82818337600083830152505050565b60006122f96122f4846122a6565b61228b565b90508281526020810184848401111561231557612314612215565b5b6123208482856122d7565b509392505050565b600082601f83011261233d5761233c612210565b5b813561234d8482602086016122e6565b91505092915050565b6000806040838503121561236d5761236c6121d0565b5b600061237b858286016121fb565b925050602083013567ffffffffffffffff81111561239c5761239b6121d5565b5b6123a885828601612328565b9150509250929050565b600073ffffffffffffffffffffffffffffffffffffffff82169050919050565b60006123dd826123b2565b9050919050565b6123ed816123d2565b82525050565b600060208201905061240860008301846123e4565b92915050565b612417816121da565b82525050565b6000602082019050612432600083018461240e565b92915050565b6000819050919050565b61244b81612438565b82525050565b60006020820190506124666000830184612442565b92915050565b612475816123d2565b811461248057600080fd5b50565b6000813590506124928161246c565b92915050565b6000602082840312156124ae576124ad6121d0565b5b60006124bc84828501612483565b91505092915050565b600067ffffffffffffffff8211156124e0576124df61222b565b5b6124e98261221a565b9050602081019050919050565b6000612509612504846124c5565b61228b565b90508281526020810184848401111561252557612524612215565b5b6125308482856122d7565b509392505050565b600082601f83011261254d5761254c612210565b5b813561255d8482602086016124f6565b91505092915050565b60006020828403121561257c5761257b6121d0565b5b600082013567ffffffffffffffff81111561259a576125996121d5565b5b6125a684828501612538565b91505092915050565b600081519050919050565b600082825260208201905092915050565b60005b838110156125e95780820151818401526020810190506125ce565b60008484015250505050565b6000612600826125af565b61260a81856125ba565b935061261a8185602086016125cb565b6126238161221a565b840191505092915050565b6000602082019050818103600083015261264881846125f5565b905092915050565b6000819050919050565b61266381612650565b82525050565b600060208201905061267e600083018461265a565b92915050565b7f536f75726365206d75737420626520746865206f7261636c65206f662074686560008201527f2072657175657374000000000000000000000000000000000000000000000000602082015250565b60006126e06028836125ba565b91506126eb82612684565b604082019050919050565b6000602082019050818103600083015261270f816126d3565b9050919050565b600060608201905061272b60008301866123e4565b61273860208301856123e4565b6127456040830184612442565b949350505050565b60008115159050919050565b6127628161274d565b811461276d57600080fd5b50565b60008151905061277f81612759565b92915050565b60006020828403121561279b5761279a6121d0565b5b60006127a984828501612770565b91505092915050565b7f7472616e73666572206661696c65640000000000000000000000000000000000600082015250565b60006127e8600f836125ba565b91506127f3826127b2565b602082019050919050565b60006020820190508181036000830152612817816127db565b9050919050565b7f4e487b7100000000000000000000000000000000000000000000000000000000600052602260045260246000fd5b6000600282049050600182168061286557607f821691505b6020821081036128785761287761281e565b5b50919050565b60008154905061288d8161284d565b9050919050565b60008190508160005260206000209050919050565b60008160001c9050919050565b6000819050919050565b60006128d36128ce836128a9565b6128b6565b9050919050565b60006128e682546128c0565b9050919050565b600082821b905092915050565b60006129058261287e565b82601f82111561291b5761291884612894565b90505b612924816128da565b925060208210156129645761295f7fffffffffffffffffffffffffffffffffffffffffffffffffffffffffffffffff836020036008026128ed565b831692505b5050919050565b7f4d7573742062652070726f706f736564206f776e657200000000000000000000600082015250565b60006129a16016836125ba565b91506129ac8261296b565b602082019050919050565b600060208201905081810360008301526129d081612994565b9050919050565b6129e081612438565b81146129eb57600080fd5b50565b6000815190506129fd816129d7565b92915050565b600060208284031215612a1957612a186121d0565b5b6000612a27848285016129ee565b91505092915050565b6000604082019050612a4560008301856123e4565b612a526020830184612442565b9392505050565b7f556e61626c6520746f207472616e736665720000000000000000000000000000600082015250565b6000612a8f6012836125ba565b9150612a9a82612a59565b602082019050919050565b60006020820190508181036000830152612abe81612a82565b9050919050565b60008190508160005260206000209050919050565b60006020601f8301049050919050565b600060088302612b1a7fffffffffffffffffffffffffffffffffffffffffffffffffffffffffffffffff826128ed565b612b2486836128ed565b95508019841693508086168417925050509392505050565b6000819050919050565b6000612b61612b5c612b5784612438565b612b3c565b612438565b9050919050565b6000819050919050565b612b7b83612b46565b612b8f612b8782612b68565b848454612aea565b825550505050565b600090565b612ba4612b97565b612baf818484612b72565b505050565b5b81811015612bd357612bc8600082612b9c565b600181019050612bb5565b5050565b601f821115612c1857612be981612ac5565b612bf284612ada565b81016020851015612c01578190505b612c15612c0d85612ada565b830182612bb4565b50505b505050565b600082821c905092915050565b6000612c3b60001984600802612c1d565b1980831691505092915050565b6000612c548383612c2a565b9150826002028217905092915050565b612c6d826125af565b67ffffffffffffffff811115612c8657612c8561222b565b5b612c90825461284d565b612c9b828285612bd7565b600060209050601f831160018114612cce5760008415612cbc578287015190505b612cc68582612c48565b865550612d2e565b601f198416612cdc86612ac5565b60005b82811015612d0457848901518255600182019150602085019450602081019050612cdf565b86831015612d215784890151612d1d601f891682612c2a565b8355505b6001600288020188555050505b505050505050565b7f4e487b7100000000000000000000000000000000000000000000000000000000600052601160045260246000fd5b6000612d7082612438565b9150612d7b83612438565b9250828202612d8981612438565b91508282048414831517612da057612d9f612d36565b5b5092915050565b6000612db282612438565b9150612dbd83612438565b9250828201905080821115612dd557612dd4612d36565b5b92915050565b7f4e487b7100000000000000000000000000000000000000000000000000000000600052603260045260246000fd5b6000612e1582612438565b915060008203612e2857612e27612d36565b5b600182039050919050565b7f537472696e67733a20686578206c656e67746820696e73756666696369656e74600082015250565b6000612e696020836125ba565b9150612e7482612e33565b602082019050919050565b60006020820190508181036000830152612e9881612e5c565b9050919050565b60007fffffffff0000000000000000000000000000000000000000000000000000000082169050919050565b612ed481612e9f565b82525050565b600081519050919050565b600082825260208201905092915050565b6000612f0182612eda565b612f0b8185612ee5565b9350612f1b8185602086016125cb565b612f248161221a565b840191505092915050565b600061010082019050612f45600083018b6123e4565b612f52602083018a612442565b612f5f604083018961240e565b612f6c60608301886123e4565b612f796080830187612ecb565b612f8660a0830186612442565b612f9360c0830185612442565b81810360e0830152612fa58184612ef6565b90509998505050505050505050565b7f4f6e6c792063616c6c61626c65206279206f776e657200000000000000000000600082015250565b6000612fea6016836125ba565b9150612ff582612fb4565b602082019050919050565b6000602082019050818103600083015261301981612fdd565b9050919050565b7f43616e6e6f74207472616e7366657220746f2073656c66000000000000000000600082015250565b60006130566017836125ba565b915061306182613020565b602082019050919050565b6000602082019050818103600083015261308581613049565b9050919050565b60006130a76130a261309d846123b2565b612b3c565b6123b2565b9050919050565b60006130b98261308c565b9050919050565b60006130cb826130ae565b9050919050565b60008160601b9050919050565b60006130ea826130d2565b9050919050565b60006130fc826130df565b9050919050565b61311461310f826130c0565b6130f1565b82525050565b6000819050919050565b61313561313082612438565b61311a565b82525050565b60006131478285613103565b6014820191506131578284613124565b6020820191508190509392505050565b600060608201905061317c60008301866123e4565b6131896020830185612442565b818103604083015261319b8184612ef6565b9050949350505050565b7f756e61626c6520746f207472616e73666572416e6443616c6c20746f206f726160008201527f636c650000000000000000000000000000000000000000000000000000000000602082015250565b60006132016023836125ba565b915061320c826131a5565b604082019050919050565b60006020820190508181036000830152613230816131f4565b9050919050565b7f4e487b7100000000000000000000000000000000000000000000000000000000600052601260045260246000fd5b600061327182612438565b915061327c83612438565b92508261328c5761328b613237565b5b828206905092915050565b60006132a282612438565b91506132ad83612438565b92508282039050818111156132c5576132c4612d36565b5b92915050565b60008160011c9050919050565b6000808291508390505b6001851115613322578086048111156132fe576132fd612d36565b5b600185161561330d5780820291505b808102905061331b856132cb565b94506132e2565b94509492505050565b60008261333b57600190506133f7565b8161334957600090506133f7565b816001811461335f576002811461336957613398565b60019150506133f7565b60ff84111561337b5761337a612d36565b5b8360020a91508482111561339257613391612d36565b5b506133f7565b5060208310610133831016604e8410600b84101617156133cd5782820a9050838111156133c8576133c7612d36565b5b6133f7565b6133da84848460016132d8565b925090508184048111156133f1576133f0612d36565b5b81810290505b9392505050565b600061340982612438565b915061341483612438565b92506134417fffffffffffffffffffffffffffffffffffffffffffffffffffffffffffffffff848461332b565b90509291505056fea26469706673582212207cde20ac33467737d5c759d1cfd2873776e4b5e91b7c3406f825e93d9dbc96ce64736f6c63430008110033",
  "devdoc": {
    "kind": "dev",
    "methods": {},
    "version": 1
  },
  "userdoc": {
    "kind": "user",
    "methods": {
      "acceptOwnership()": {
        "notice": "Allows an ownership transfer to be completed by the recipient."
      },
      "owner()": {
        "notice": "Get the current owner"
      },
      "transferOwnership(address)": {
        "notice": "Allows an owner to begin transferring ownership to a new address, pending."
      }
    },
    "version": 1
  },
  "storageLayout": {
    "storage": [
      {
        "astId": 319,
        "contract": "contracts/TruflationTester.sol:TruflationTester",
        "label": "s_ens",
        "offset": 0,
        "slot": "0",
        "type": "t_contract(ENSInterface)1329"
      },
      {
        "astId": 321,
        "contract": "contracts/TruflationTester.sol:TruflationTester",
        "label": "s_ensNode",
        "offset": 0,
        "slot": "1",
        "type": "t_bytes32"
      },
      {
        "astId": 324,
        "contract": "contracts/TruflationTester.sol:TruflationTester",
        "label": "s_link",
        "offset": 0,
        "slot": "2",
        "type": "t_contract(LinkTokenInterface)1424"
      },
      {
        "astId": 327,
        "contract": "contracts/TruflationTester.sol:TruflationTester",
        "label": "s_oracle",
        "offset": 0,
        "slot": "3",
        "type": "t_contract(OperatorInterface)1504"
      },
      {
        "astId": 330,
        "contract": "contracts/TruflationTester.sol:TruflationTester",
        "label": "s_requestCount",
        "offset": 0,
        "slot": "4",
        "type": "t_uint256"
      },
      {
        "astId": 334,
        "contract": "contracts/TruflationTester.sol:TruflationTester",
        "label": "s_pendingRequests",
        "offset": 0,
        "slot": "5",
        "type": "t_mapping(t_bytes32,t_address)"
      },
      {
        "astId": 889,
        "contract": "contracts/TruflationTester.sol:TruflationTester",
        "label": "s_owner",
        "offset": 0,
        "slot": "6",
        "type": "t_address"
      },
      {
        "astId": 891,
        "contract": "contracts/TruflationTester.sol:TruflationTester",
        "label": "s_pendingOwner",
        "offset": 0,
        "slot": "7",
        "type": "t_address"
      },
      {
        "astId": 5095,
        "contract": "contracts/TruflationTester.sol:TruflationTester",
        "label": "oracleId",
        "offset": 0,
        "slot": "8",
        "type": "t_address"
      },
      {
        "astId": 5097,
        "contract": "contracts/TruflationTester.sol:TruflationTester",
        "label": "jobId",
        "offset": 0,
        "slot": "9",
        "type": "t_string_storage"
      },
      {
        "astId": 5099,
        "contract": "contracts/TruflationTester.sol:TruflationTester",
        "label": "fee",
        "offset": 0,
        "slot": "10",
        "type": "t_uint256"
      },
      {
        "astId": 5101,
        "contract": "contracts/TruflationTester.sol:TruflationTester",
        "label": "yoyInflation",
        "offset": 0,
        "slot": "11",
        "type": "t_string_storage"
      },
      {
        "astId": 5103,
        "contract": "contracts/TruflationTester.sol:TruflationTester",
        "label": "inflationWei",
        "offset": 0,
        "slot": "12",
        "type": "t_int256"
      },
      {
        "astId": 5105,
        "contract": "contracts/TruflationTester.sol:TruflationTester",
        "label": "lastTimeStamp",
        "offset": 0,
        "slot": "13",
        "type": "t_uint256"
      }
    ],
    "types": {
      "t_address": {
        "encoding": "inplace",
        "label": "address",
        "numberOfBytes": "20"
      },
      "t_bytes32": {
        "encoding": "inplace",
        "label": "bytes32",
        "numberOfBytes": "32"
      },
      "t_contract(ENSInterface)1329": {
        "encoding": "inplace",
        "label": "contract ENSInterface",
        "numberOfBytes": "20"
      },
      "t_contract(LinkTokenInterface)1424": {
        "encoding": "inplace",
        "label": "contract LinkTokenInterface",
        "numberOfBytes": "20"
      },
      "t_contract(OperatorInterface)1504": {
        "encoding": "inplace",
        "label": "contract OperatorInterface",
        "numberOfBytes": "20"
      },
      "t_int256": {
        "encoding": "inplace",
        "label": "int256",
        "numberOfBytes": "32"
      },
      "t_mapping(t_bytes32,t_address)": {
        "encoding": "mapping",
        "key": "t_bytes32",
        "label": "mapping(bytes32 => address)",
        "numberOfBytes": "32",
        "value": "t_address"
      },
      "t_string_storage": {
        "encoding": "bytes",
        "label": "string",
        "numberOfBytes": "32"
      },
      "t_uint256": {
        "encoding": "inplace",
        "label": "uint256",
        "numberOfBytes": "32"
      }
    }
  }
}