{
  "address": "0xCb63F180Fb5c399BB6eDC411Bd5E989F1f69286F",
  "abi": [
    {
      "inputs": [
        {
          "internalType": "address",
          "name": "oracleId_",
          "type": "address"
        },
        {
          "internalType": "string",
          "name": "jobId_",
          "type": "string"
        },
        {
          "internalType": "uint256",
          "name": "fee_",
          "type": "uint256"
        },
        {
          "internalType": "address",
          "name": "token_",
          "type": "address"
        }
      ],
      "stateMutability": "nonpayable",
      "type": "constructor"
    },
    {
      "anonymous": false,
      "inputs": [
        {
          "indexed": true,
          "internalType": "bytes32",
          "name": "id",
          "type": "bytes32"
        }
      ],
      "name": "ChainlinkCancelled",
      "type": "event"
    },
    {
      "anonymous": false,
      "inputs": [
        {
          "indexed": true,
          "internalType": "bytes32",
          "name": "id",
          "type": "bytes32"
        }
      ],
      "name": "ChainlinkFulfilled",
      "type": "event"
    },
    {
      "anonymous": false,
      "inputs": [
        {
          "indexed": true,
          "internalType": "bytes32",
          "name": "id",
          "type": "bytes32"
        }
      ],
      "name": "ChainlinkRequested",
      "type": "event"
    },
    {
      "anonymous": false,
      "inputs": [
        {
          "indexed": true,
          "internalType": "address",
          "name": "from",
          "type": "address"
        },
        {
          "indexed": true,
          "internalType": "address",
          "name": "to",
          "type": "address"
        }
      ],
      "name": "OwnershipTransferRequested",
      "type": "event"
    },
    {
      "anonymous": false,
      "inputs": [
        {
          "indexed": true,
          "internalType": "address",
          "name": "from",
          "type": "address"
        },
        {
          "indexed": true,
          "internalType": "address",
          "name": "to",
          "type": "address"
        }
      ],
      "name": "OwnershipTransferred",
      "type": "event"
    },
    {
      "inputs": [],
      "name": "acceptOwnership",
      "outputs": [],
      "stateMutability": "nonpayable",
      "type": "function"
    },
    {
      "inputs": [
        {
          "internalType": "string",
          "name": "_jobId",
          "type": "string"
        }
      ],
      "name": "changeJobId",
      "outputs": [],
      "stateMutability": "nonpayable",
      "type": "function"
    },
    {
      "inputs": [
        {
          "internalType": "address",
          "name": "_oracle",
          "type": "address"
        }
      ],
      "name": "changeOracle",
      "outputs": [],
      "stateMutability": "nonpayable",
      "type": "function"
    },
    {
      "inputs": [],
      "name": "fee",
      "outputs": [
        {
          "internalType": "uint256",
          "name": "",
          "type": "uint256"
        }
      ],
      "stateMutability": "view",
      "type": "function"
    },
    {
      "inputs": [
        {
          "internalType": "bytes32",
          "name": "_requestId",
          "type": "bytes32"
        },
        {
          "internalType": "bytes",
          "name": "_inflation",
          "type": "bytes"
        }
      ],
      "name": "fulfillYoyInflation",
      "outputs": [],
      "stateMutability": "nonpayable",
      "type": "function"
    },
    {
      "inputs": [],
      "name": "getChainlinkToken",
      "outputs": [
        {
          "internalType": "address",
          "name": "",
          "type": "address"
        }
      ],
      "stateMutability": "view",
      "type": "function"
    },
    {
      "inputs": [],
      "name": "jobId",
      "outputs": [
        {
          "internalType": "string",
          "name": "",
          "type": "string"
        }
      ],
      "stateMutability": "view",
      "type": "function"
    },
    {
      "inputs": [],
      "name": "oracleId",
      "outputs": [
        {
          "internalType": "address",
          "name": "",
          "type": "address"
        }
      ],
      "stateMutability": "view",
      "type": "function"
    },
    {
      "inputs": [],
      "name": "owner",
      "outputs": [
        {
          "internalType": "address",
          "name": "",
          "type": "address"
        }
      ],
      "stateMutability": "view",
      "type": "function"
    },
    {
      "inputs": [],
      "name": "requestYoyInflation",
      "outputs": [
        {
          "internalType": "bytes32",
          "name": "requestId",
          "type": "bytes32"
        }
      ],
      "stateMutability": "nonpayable",
      "type": "function"
    },
    {
      "inputs": [
        {
          "internalType": "address",
          "name": "to",
          "type": "address"
        }
      ],
      "name": "transferOwnership",
      "outputs": [],
      "stateMutability": "nonpayable",
      "type": "function"
    },
    {
      "inputs": [],
      "name": "withdrawLink",
      "outputs": [],
      "stateMutability": "nonpayable",
      "type": "function"
    },
    {
      "inputs": [],
      "name": "yoyInflation",
      "outputs": [
        {
          "internalType": "int256",
          "name": "",
          "type": "int256"
        }
      ],
      "stateMutability": "view",
      "type": "function"
    }
  ],
  "transactionHash": "0x24a67b8da707123a883991ff28ba7f935fc8c8df3625d1428a682ec54fa74977",
  "args": [
    "0xcf72083697aB8A45905870C387dC93f380f2557b",
    "8b459447262a4ccf8863962e073576d9",
    "10000000000000000",
    "0x326C977E6efc84E512bB9C30f76E30c160eD06FB"
  ],
  "numDeployments": 1,
  "solcInputHash": "668bc44cfa11ed0fbfd71b28ef611a58",
  "bytecode": "0x608060405260016004553480156200001657600080fd5b5060405162002fd538038062002fd583398181016040528101906200003c919062000559565b338060008073ffffffffffffffffffffffffffffffffffffffff168273ffffffffffffffffffffffffffffffffffffffff1603620000b1576040517f08c379a0000000000000000000000000000000000000000000000000000000008152600401620000a8906200064b565b60405180910390fd5b81600660006101000a81548173ffffffffffffffffffffffffffffffffffffffff021916908373ffffffffffffffffffffffffffffffffffffffff160217905550600073ffffffffffffffffffffffffffffffffffffffff168173ffffffffffffffffffffffffffffffffffffffff161462000139576200013881620001b160201b60201c565b5b5050506200014d81620002e260201b60201c565b83600960006101000a81548173ffffffffffffffffffffffffffffffffffffffff021916908373ffffffffffffffffffffffffffffffffffffffff16021790555082600a90816200019f9190620008ae565b5081600b819055505050505062000a07565b3373ffffffffffffffffffffffffffffffffffffffff168173ffffffffffffffffffffffffffffffffffffffff160362000222576040517f08c379a00000000000000000000000000000000000000000000000000000000081526004016200021990620009e5565b60405180910390fd5b80600760006101000a81548173ffffffffffffffffffffffffffffffffffffffff021916908373ffffffffffffffffffffffffffffffffffffffff1602179055508073ffffffffffffffffffffffffffffffffffffffff16600660009054906101000a900473ffffffffffffffffffffffffffffffffffffffff1673ffffffffffffffffffffffffffffffffffffffff167fed8889f560326eb138920d842192f0eb3dd22b4f139c87a2c57538e05bae127860405160405180910390a350565b80600260006101000a81548173ffffffffffffffffffffffffffffffffffffffff021916908373ffffffffffffffffffffffffffffffffffffffff16021790555050565b6000604051905090565b600080fd5b600080fd5b600073ffffffffffffffffffffffffffffffffffffffff82169050919050565b600062000367826200033a565b9050919050565b62000379816200035a565b81146200038557600080fd5b50565b60008151905062000399816200036e565b92915050565b600080fd5b600080fd5b6000601f19601f8301169050919050565b7f4e487b7100000000000000000000000000000000000000000000000000000000600052604160045260246000fd5b620003f482620003a9565b810181811067ffffffffffffffff82111715620004165762000415620003ba565b5b80604052505050565b60006200042b62000326565b9050620004398282620003e9565b919050565b600067ffffffffffffffff8211156200045c576200045b620003ba565b5b6200046782620003a9565b9050602081019050919050565b60005b838110156200049457808201518184015260208101905062000477565b60008484015250505050565b6000620004b7620004b1846200043e565b6200041f565b905082815260208101848484011115620004d657620004d5620003a4565b5b620004e384828562000474565b509392505050565b600082601f8301126200050357620005026200039f565b5b815162000515848260208601620004a0565b91505092915050565b6000819050919050565b62000533816200051e565b81146200053f57600080fd5b50565b600081519050620005538162000528565b92915050565b6000806000806080858703121562000576576200057562000330565b5b6000620005868782880162000388565b945050602085015167ffffffffffffffff811115620005aa57620005a962000335565b5b620005b887828801620004eb565b9350506040620005cb8782880162000542565b9250506060620005de8782880162000388565b91505092959194509250565b600082825260208201905092915050565b7f43616e6e6f7420736574206f776e657220746f207a65726f0000000000000000600082015250565b600062000633601883620005ea565b91506200064082620005fb565b602082019050919050565b60006020820190508181036000830152620006668162000624565b9050919050565b600081519050919050565b7f4e487b7100000000000000000000000000000000000000000000000000000000600052602260045260246000fd5b60006002820490506001821680620006c057607f821691505b602082108103620006d657620006d562000678565b5b50919050565b60008190508160005260206000209050919050565b60006020601f8301049050919050565b600082821b905092915050565b600060088302620007407fffffffffffffffffffffffffffffffffffffffffffffffffffffffffffffffff8262000701565b6200074c868362000701565b95508019841693508086168417925050509392505050565b6000819050919050565b60006200078f6200078962000783846200051e565b62000764565b6200051e565b9050919050565b6000819050919050565b620007ab836200076e565b620007c3620007ba8262000796565b8484546200070e565b825550505050565b600090565b620007da620007cb565b620007e7818484620007a0565b505050565b5b818110156200080f5762000803600082620007d0565b600181019050620007ed565b5050565b601f8211156200085e576200082881620006dc565b6200083384620006f1565b8101602085101562000843578190505b6200085b6200085285620006f1565b830182620007ec565b50505b505050565b600082821c905092915050565b6000620008836000198460080262000863565b1980831691505092915050565b60006200089e838362000870565b9150826002028217905092915050565b620008b9826200066d565b67ffffffffffffffff811115620008d557620008d4620003ba565b5b620008e18254620006a7565b620008ee82828562000813565b600060209050601f83116001811462000926576000841562000911578287015190505b6200091d858262000890565b8655506200098d565b601f1984166200093686620006dc565b60005b82811015620009605784890151825560018201915060208501945060208101905062000939565b868310156200098057848901516200097c601f89168262000870565b8355505b6001600288020188555050505b505050505050565b7f43616e6e6f74207472616e7366657220746f2073656c66000000000000000000600082015250565b6000620009cd601783620005ea565b9150620009da8262000995565b602082019050919050565b6000602082019050818103600083015262000a0081620009be565b9050919050565b6125be8062000a176000396000f3fe608060405234801561001057600080fd5b50600436106100cf5760003560e01c80638dc654a21161008c578063bb694f1611610066578063bb694f16146101b6578063c2939d97146101d2578063ddca3f43146101f0578063f2fde38b1461020e576100cf565b80638dc654a2146101725780639063e2161461017c578063af5d945b14610198576100cf565b8063165d35e1146100d45780632121778d146100f257806347c421b51461011057806372582c8d1461012c57806379ba50971461014a5780638da5cb5b14610154575b600080fd5b6100dc61022a565b6040516100e991906114ad565b60405180910390f35b6100fa610239565b60405161010791906114ad565b60405180910390f35b61012a60048036038101906101259190611508565b61025f565b005b6101346102ab565b604051610141919061154e565b60405180910390f35b6101526104fd565b005b61015c610694565b60405161016991906114ad565b60405180910390f35b61017a6106be565b005b610196600480360381019061019191906116af565b61080b565b005b6101a0610826565b6040516101ad9190611711565b60405180910390f35b6101d060048036038101906101cb91906117f9565b61082c565b005b6101da610945565b6040516101e791906118d4565b60405180910390f35b6101f86109d3565b604051610205919061190f565b60405180910390f35b61022860048036038101906102239190611508565b6109d9565b005b60006102346109ed565b905090565b600960009054906101000a900473ffffffffffffffffffffffffffffffffffffffff1681565b610267610a17565b80600960006101000a81548173ffffffffffffffffffffffffffffffffffffffff021916908373ffffffffffffffffffffffffffffffffffffffff16021790555050565b6000806102ca600a6102bc90611a06565b3063bb694f1660e01b610aa9565b905061034b6040518060400160405280600781526020017f73657276696365000000000000000000000000000000000000000000000000008152506040518060400160405280601281526020017f747275666c6174696f6e2f63757272656e74000000000000000000000000000081525083610ada9092919063ffffffff16565b6103ca6040518060400160405280600781526020017f6b657970617468000000000000000000000000000000000000000000000000008152506040518060400160405280601581526020017f796561724f76657259656172496e666c6174696f6e000000000000000000000081525083610ada9092919063ffffffff16565b6104496040518060400160405280600381526020017f61626900000000000000000000000000000000000000000000000000000000008152506040518060400160405280600481526020017f6a736f6e0000000000000000000000000000000000000000000000000000000081525083610ada9092919063ffffffff16565b6104c86040518060400160405280600a81526020017f6d756c7469706c696572000000000000000000000000000000000000000000008152506040518060400160405280601381526020017f313030303030303030303030303030303030300000000000000000000000000081525083610ada9092919063ffffffff16565b6104f7600960009054906101000a900473ffffffffffffffffffffffffffffffffffffffff1682600b54610b0d565b91505090565b600760009054906101000a900473ffffffffffffffffffffffffffffffffffffffff1673ffffffffffffffffffffffffffffffffffffffff163373ffffffffffffffffffffffffffffffffffffffff161461058d576040517f08c379a000000000000000000000000000000000000000000000000000000000815260040161058490611ac3565b60405180910390fd5b6000600660009054906101000a900473ffffffffffffffffffffffffffffffffffffffff16905033600660006101000a81548173ffffffffffffffffffffffffffffffffffffffff021916908373ffffffffffffffffffffffffffffffffffffffff1602179055506000600760006101000a81548173ffffffffffffffffffffffffffffffffffffffff021916908373ffffffffffffffffffffffffffffffffffffffff1602179055503373ffffffffffffffffffffffffffffffffffffffff168173ffffffffffffffffffffffffffffffffffffffff167f8be0079c531659141344cd1fd0a4f28419497f9722a3daafe3b4186f6b6457e060405160405180910390a350565b6000600660009054906101000a900473ffffffffffffffffffffffffffffffffffffffff16905090565b6106c6610a17565b60006106d06109ed565b90508073ffffffffffffffffffffffffffffffffffffffff1663a9059cbb338373ffffffffffffffffffffffffffffffffffffffff166370a08231306040518263ffffffff1660e01b815260040161072891906114ad565b602060405180830381865afa158015610745573d6000803e3d6000fd5b505050506040513d601f19601f820116820180604052508101906107699190611b0f565b6040518363ffffffff1660e01b8152600401610786929190611b3c565b6020604051808303816000875af11580156107a5573d6000803e3d6000fd5b505050506040513d601f19601f820116820180604052508101906107c99190611b9d565b610808576040517f08c379a00000000000000000000000000000000000000000000000000000000081526004016107ff90611c16565b60405180910390fd5b50565b610813610a17565b80600a90816108229190611dd5565b5050565b60085481565b816005600082815260200190815260200160002060009054906101000a900473ffffffffffffffffffffffffffffffffffffffff1673ffffffffffffffffffffffffffffffffffffffff163373ffffffffffffffffffffffffffffffffffffffff16146108ce576040517f08c379a00000000000000000000000000000000000000000000000000000000081526004016108c590611f19565b60405180910390fd5b6005600082815260200190815260200160002060006101000a81549073ffffffffffffffffffffffffffffffffffffffff0219169055807f7cc135e0cebb02c3480ae5d74d377283180a2601f8f644edf7987b009316c63a60405160405180910390a261093a82610bd9565b600881905550505050565b600a805461095290611959565b80601f016020809104026020016040519081016040528092919081815260200182805461097e90611959565b80156109cb5780601f106109a0576101008083540402835291602001916109cb565b820191906000526020600020905b8154815290600101906020018083116109ae57829003601f168201915b505050505081565b600b5481565b6109e1610a17565b6109ea81610be7565b50565b6000600260009054906101000a900473ffffffffffffffffffffffffffffffffffffffff16905090565b600660009054906101000a900473ffffffffffffffffffffffffffffffffffffffff1673ffffffffffffffffffffffffffffffffffffffff163373ffffffffffffffffffffffffffffffffffffffff1614610aa7576040517f08c379a0000000000000000000000000000000000000000000000000000000008152600401610a9e90611f85565b60405180910390fd5b565b610ab16113e5565b610ab96113e5565b610ad085858584610d15909392919063ffffffff16565b9150509392505050565b610af1828460800151610dc590919063ffffffff16565b610b08818460800151610dc590919063ffffffff16565b505050565b6000806004549050600181610b229190611fd4565b6004819055506000634042994660e01b60008087600001513089604001518760018c6080015160000151604051602401610b63989796959493929190612098565b604051602081830303815290604052907bffffffffffffffffffffffffffffffffffffffffffffffffffffffff19166020820180517bffffffffffffffffffffffffffffffffffffffffffffffffffffffff83818316178352505050509050610bce86838684610dea565b925050509392505050565b600060208201519050919050565b3373ffffffffffffffffffffffffffffffffffffffff168173ffffffffffffffffffffffffffffffffffffffff1603610c55576040517f08c379a0000000000000000000000000000000000000000000000000000000008152600401610c4c90612169565b60405180910390fd5b80600760006101000a81548173ffffffffffffffffffffffffffffffffffffffff021916908373ffffffffffffffffffffffffffffffffffffffff1602179055508073ffffffffffffffffffffffffffffffffffffffff16600660009054906101000a900473ffffffffffffffffffffffffffffffffffffffff1673ffffffffffffffffffffffffffffffffffffffff167fed8889f560326eb138920d842192f0eb3dd22b4f139c87a2c57538e05bae127860405160405180910390a350565b610d1d6113e5565b610d2d8560800151610100610f7f565b508385600001818152505082856020019073ffffffffffffffffffffffffffffffffffffffff16908173ffffffffffffffffffffffffffffffffffffffff16815250508185604001907bffffffffffffffffffffffffffffffffffffffffffffffffffffffff191690817bffffffffffffffffffffffffffffffffffffffffffffffffffffffff191681525050849050949350505050565b610dd28260038351610fe9565b610de5818361116e90919063ffffffff16565b505050565b60003084604051602001610dff929190612238565b604051602081830303815290604052805190602001209050846005600083815260200190815260200160002060006101000a81548173ffffffffffffffffffffffffffffffffffffffff021916908373ffffffffffffffffffffffffffffffffffffffff160217905550807fb5e6e01e79f91267dc17b4e6314d5d4d03593d2ceee0fbb452b750bd70ea5af960405160405180910390a2600260009054906101000a900473ffffffffffffffffffffffffffffffffffffffff1673ffffffffffffffffffffffffffffffffffffffff16634000aea08685856040518463ffffffff1660e01b8152600401610ef593929190612264565b6020604051808303816000875af1158015610f14573d6000803e3d6000fd5b505050506040513d601f19601f82011682018060405250810190610f389190611b9d565b610f77576040517f08c379a0000000000000000000000000000000000000000000000000000000008152600401610f6e90612314565b60405180910390fd5b949350505050565b610f87611452565b6000602083610f969190612363565b14610fc257602082610fa89190612363565b6020610fb49190612394565b82610fbf9190611fd4565b91505b81836020018181525050604051808452600081528281016020016040525082905092915050565b60178167ffffffffffffffff16116110205761101a8160058460ff16901b60ff16178461119090919063ffffffff16565b50611169565b60ff8167ffffffffffffffff16116110765761104f601860058460ff16901b178461119090919063ffffffff16565b506110708167ffffffffffffffff166001856111b09092919063ffffffff16565b50611168565b61ffff8167ffffffffffffffff16116110cd576110a6601960058460ff16901b178461119090919063ffffffff16565b506110c78167ffffffffffffffff166002856111b09092919063ffffffff16565b50611167565b63ffffffff8167ffffffffffffffff1611611126576110ff601a60058460ff16901b178461119090919063ffffffff16565b506111208167ffffffffffffffff166004856111b09092919063ffffffff16565b50611166565b611143601b60058460ff16901b178461119090919063ffffffff16565b506111648167ffffffffffffffff166008856111b09092919063ffffffff16565b505b5b5b5b505050565b611176611452565b611188838460000151518485516111d2565b905092915050565b611198611452565b6111a883846000015151846112c1565b905092915050565b6111b8611452565b6111c9848560000151518585611317565b90509392505050565b6111da611452565b82518211156111e857600080fd5b846020015182856111f99190611fd4565b111561122e5761122d85600261121e886020015188876112199190611fd4565b6113a5565b61122891906123c8565b6113c1565b5b60008086518051876020830101935080888701111561124d5787860182525b60208701925050505b60208410611294578051825260208261126f9190611fd4565b915060208161127e9190611fd4565b905060208461128d9190612394565b9350611256565b60006001856020036101000a03905080198251168184511681811785525050508692505050949350505050565b6112c9611452565b836020015183106112ef576112ee84600286602001516112e991906123c8565b6113c1565b5b8351805160208583010184815381860361130a576001820183525b5050508390509392505050565b61131f611452565b846020015184836113309190611fd4565b11156113585761135785600286856113489190611fd4565b61135291906123c8565b6113c1565b5b600060018361010061136a919061253d565b6113749190612394565b905085518386820101858319825116178152815185880111156113975784870182525b505085915050949350505050565b6000818311156113b7578290506113bb565b8190505b92915050565b6000826000015190506113d48383610f7f565b506113df838261116e565b50505050565b6040518060a0016040528060008019168152602001600073ffffffffffffffffffffffffffffffffffffffff16815260200160007bffffffffffffffffffffffffffffffffffffffffffffffffffffffff191681526020016000815260200161144c611452565b81525090565b604051806040016040528060608152602001600081525090565b600073ffffffffffffffffffffffffffffffffffffffff82169050919050565b60006114978261146c565b9050919050565b6114a78161148c565b82525050565b60006020820190506114c2600083018461149e565b92915050565b6000604051905090565b600080fd5b600080fd5b6114e58161148c565b81146114f057600080fd5b50565b600081359050611502816114dc565b92915050565b60006020828403121561151e5761151d6114d2565b5b600061152c848285016114f3565b91505092915050565b6000819050919050565b61154881611535565b82525050565b6000602082019050611563600083018461153f565b92915050565b600080fd5b600080fd5b6000601f19601f8301169050919050565b7f4e487b7100000000000000000000000000000000000000000000000000000000600052604160045260246000fd5b6115bc82611573565b810181811067ffffffffffffffff821117156115db576115da611584565b5b80604052505050565b60006115ee6114c8565b90506115fa82826115b3565b919050565b600067ffffffffffffffff82111561161a57611619611584565b5b61162382611573565b9050602081019050919050565b82818337600083830152505050565b600061165261164d846115ff565b6115e4565b90508281526020810184848401111561166e5761166d61156e565b5b611679848285611630565b509392505050565b600082601f83011261169657611695611569565b5b81356116a684826020860161163f565b91505092915050565b6000602082840312156116c5576116c46114d2565b5b600082013567ffffffffffffffff8111156116e3576116e26114d7565b5b6116ef84828501611681565b91505092915050565b6000819050919050565b61170b816116f8565b82525050565b60006020820190506117266000830184611702565b92915050565b61173581611535565b811461174057600080fd5b50565b6000813590506117528161172c565b92915050565b600067ffffffffffffffff82111561177357611772611584565b5b61177c82611573565b9050602081019050919050565b600061179c61179784611758565b6115e4565b9050828152602081018484840111156117b8576117b761156e565b5b6117c3848285611630565b509392505050565b600082601f8301126117e0576117df611569565b5b81356117f0848260208601611789565b91505092915050565b600080604083850312156118105761180f6114d2565b5b600061181e85828601611743565b925050602083013567ffffffffffffffff81111561183f5761183e6114d7565b5b61184b858286016117cb565b9150509250929050565b600081519050919050565b600082825260208201905092915050565b60005b8381101561188f578082015181840152602081019050611874565b60008484015250505050565b60006118a682611855565b6118b08185611860565b93506118c0818560208601611871565b6118c981611573565b840191505092915050565b600060208201905081810360008301526118ee818461189b565b905092915050565b6000819050919050565b611909816118f6565b82525050565b60006020820190506119246000830184611900565b92915050565b7f4e487b7100000000000000000000000000000000000000000000000000000000600052602260045260246000fd5b6000600282049050600182168061197157607f821691505b6020821081036119845761198361192a565b5b50919050565b60008154905061199981611959565b9050919050565b60008190508160005260206000209050919050565b60008160001c9050919050565b6000819050919050565b60006119df6119da836119b5565b6119c2565b9050919050565b60006119f282546119cc565b9050919050565b600082821b905092915050565b6000611a118261198a565b82601f821115611a2757611a24846119a0565b90505b611a30816119e6565b92506020821015611a7057611a6b7fffffffffffffffffffffffffffffffffffffffffffffffffffffffffffffffff836020036008026119f9565b831692505b5050919050565b7f4d7573742062652070726f706f736564206f776e657200000000000000000000600082015250565b6000611aad601683611860565b9150611ab882611a77565b602082019050919050565b60006020820190508181036000830152611adc81611aa0565b9050919050565b611aec816118f6565b8114611af757600080fd5b50565b600081519050611b0981611ae3565b92915050565b600060208284031215611b2557611b246114d2565b5b6000611b3384828501611afa565b91505092915050565b6000604082019050611b51600083018561149e565b611b5e6020830184611900565b9392505050565b60008115159050919050565b611b7a81611b65565b8114611b8557600080fd5b50565b600081519050611b9781611b71565b92915050565b600060208284031215611bb357611bb26114d2565b5b6000611bc184828501611b88565b91505092915050565b7f556e61626c6520746f207472616e736665720000000000000000000000000000600082015250565b6000611c00601283611860565b9150611c0b82611bca565b602082019050919050565b60006020820190508181036000830152611c2f81611bf3565b9050919050565b60008190508160005260206000209050919050565b60006020601f8301049050919050565b600060088302611c8b7fffffffffffffffffffffffffffffffffffffffffffffffffffffffffffffffff826119f9565b611c9586836119f9565b95508019841693508086168417925050509392505050565b6000819050919050565b6000611cd2611ccd611cc8846118f6565b611cad565b6118f6565b9050919050565b6000819050919050565b611cec83611cb7565b611d00611cf882611cd9565b848454611c5b565b825550505050565b600090565b611d15611d08565b611d20818484611ce3565b505050565b5b81811015611d4457611d39600082611d0d565b600181019050611d26565b5050565b601f821115611d8957611d5a81611c36565b611d6384611c4b565b81016020851015611d72578190505b611d86611d7e85611c4b565b830182611d25565b50505b505050565b600082821c905092915050565b6000611dac60001984600802611d8e565b1980831691505092915050565b6000611dc58383611d9b565b9150826002028217905092915050565b611dde82611855565b67ffffffffffffffff811115611df757611df6611584565b5b611e018254611959565b611e0c828285611d48565b600060209050601f831160018114611e3f5760008415611e2d578287015190505b611e378582611db9565b865550611e9f565b601f198416611e4d86611c36565b60005b82811015611e7557848901518255600182019150602085019450602081019050611e50565b86831015611e925784890151611e8e601f891682611d9b565b8355505b6001600288020188555050505b505050505050565b7f536f75726365206d75737420626520746865206f7261636c65206f662074686560008201527f2072657175657374000000000000000000000000000000000000000000000000602082015250565b6000611f03602883611860565b9150611f0e82611ea7565b604082019050919050565b60006020820190508181036000830152611f3281611ef6565b9050919050565b7f4f6e6c792063616c6c61626c65206279206f776e657200000000000000000000600082015250565b6000611f6f601683611860565b9150611f7a82611f39565b602082019050919050565b60006020820190508181036000830152611f9e81611f62565b9050919050565b7f4e487b7100000000000000000000000000000000000000000000000000000000600052601160045260246000fd5b6000611fdf826118f6565b9150611fea836118f6565b925082820190508082111561200257612001611fa5565b5b92915050565b60007fffffffff0000000000000000000000000000000000000000000000000000000082169050919050565b61203d81612008565b82525050565b600081519050919050565b600082825260208201905092915050565b600061206a82612043565b612074818561204e565b9350612084818560208601611871565b61208d81611573565b840191505092915050565b6000610100820190506120ae600083018b61149e565b6120bb602083018a611900565b6120c8604083018961153f565b6120d5606083018861149e565b6120e26080830187612034565b6120ef60a0830186611900565b6120fc60c0830185611900565b81810360e083015261210e818461205f565b90509998505050505050505050565b7f43616e6e6f74207472616e7366657220746f2073656c66000000000000000000600082015250565b6000612153601783611860565b915061215e8261211d565b602082019050919050565b6000602082019050818103600083015261218281612146565b9050919050565b60006121a461219f61219a8461146c565b611cad565b61146c565b9050919050565b60006121b682612189565b9050919050565b60006121c8826121ab565b9050919050565b60008160601b9050919050565b60006121e7826121cf565b9050919050565b60006121f9826121dc565b9050919050565b61221161220c826121bd565b6121ee565b82525050565b6000819050919050565b61223261222d826118f6565b612217565b82525050565b60006122448285612200565b6014820191506122548284612221565b6020820191508190509392505050565b6000606082019050612279600083018661149e565b6122866020830185611900565b8181036040830152612298818461205f565b9050949350505050565b7f756e61626c6520746f207472616e73666572416e6443616c6c20746f206f726160008201527f636c650000000000000000000000000000000000000000000000000000000000602082015250565b60006122fe602383611860565b9150612309826122a2565b604082019050919050565b6000602082019050818103600083015261232d816122f1565b9050919050565b7f4e487b7100000000000000000000000000000000000000000000000000000000600052601260045260246000fd5b600061236e826118f6565b9150612379836118f6565b92508261238957612388612334565b5b828206905092915050565b600061239f826118f6565b91506123aa836118f6565b92508282039050818111156123c2576123c1611fa5565b5b92915050565b60006123d3826118f6565b91506123de836118f6565b92508282026123ec816118f6565b9150828204841483151761240357612402611fa5565b5b5092915050565b60008160011c9050919050565b6000808291508390505b60018511156124615780860481111561243d5761243c611fa5565b5b600185161561244c5780820291505b808102905061245a8561240a565b9450612421565b94509492505050565b60008261247a5760019050612536565b816124885760009050612536565b816001811461249e57600281146124a8576124d7565b6001915050612536565b60ff8411156124ba576124b9611fa5565b5b8360020a9150848211156124d1576124d0611fa5565b5b50612536565b5060208310610133831016604e8410600b841016171561250c5782820a90508381111561250757612506611fa5565b5b612536565b6125198484846001612417565b925090508184048111156125305761252f611fa5565b5b81810290505b9392505050565b6000612548826118f6565b9150612553836118f6565b92506125807fffffffffffffffffffffffffffffffffffffffffffffffffffffffffffffffff848461246a565b90509291505056fea2646970667358221220a9bf63e284a507a0ba8be7b180e3037a2b8ee6f60c6d9f34d2a7cc8db0c5b00e64736f6c63430008110033",
  "devdoc": {
    "kind": "dev",
    "methods": {},
    "version": 1
  },
  "userdoc": {
    "kind": "user",
    "methods": {
      "acceptOwnership()": {
        "notice": "Allows an ownership transfer to be completed by the recipient."
      },
      "owner()": {
        "notice": "Get the current owner"
      },
      "transferOwnership(address)": {
        "notice": "Allows an owner to begin transferring ownership to a new address, pending."
      }
    },
    "version": 1
  },
  "storageLayout": {
    "storage": [
      {
        "astId": 319,
        "contract": "contracts/TruflationTester.sol:TruflationTester",
        "label": "s_ens",
        "offset": 0,
        "slot": "0",
        "type": "t_contract(ENSInterface)1156"
      },
      {
        "astId": 321,
        "contract": "contracts/TruflationTester.sol:TruflationTester",
        "label": "s_ensNode",
        "offset": 0,
        "slot": "1",
        "type": "t_bytes32"
      },
      {
        "astId": 324,
        "contract": "contracts/TruflationTester.sol:TruflationTester",
        "label": "s_link",
        "offset": 0,
        "slot": "2",
        "type": "t_contract(LinkTokenInterface)1251"
      },
      {
        "astId": 327,
        "contract": "contracts/TruflationTester.sol:TruflationTester",
        "label": "s_oracle",
        "offset": 0,
        "slot": "3",
        "type": "t_contract(OperatorInterface)1331"
      },
      {
        "astId": 330,
        "contract": "contracts/TruflationTester.sol:TruflationTester",
        "label": "s_requestCount",
        "offset": 0,
        "slot": "4",
        "type": "t_uint256"
      },
      {
        "astId": 334,
        "contract": "contracts/TruflationTester.sol:TruflationTester",
        "label": "s_pendingRequests",
        "offset": 0,
        "slot": "5",
        "type": "t_mapping(t_bytes32,t_address)"
      },
      {
        "astId": 889,
        "contract": "contracts/TruflationTester.sol:TruflationTester",
        "label": "s_owner",
        "offset": 0,
        "slot": "6",
        "type": "t_address"
      },
      {
        "astId": 891,
        "contract": "contracts/TruflationTester.sol:TruflationTester",
        "label": "s_pendingOwner",
        "offset": 0,
        "slot": "7",
        "type": "t_address"
      },
      {
        "astId": 2995,
        "contract": "contracts/TruflationTester.sol:TruflationTester",
        "label": "yoyInflation",
        "offset": 0,
        "slot": "8",
        "type": "t_int256"
      },
      {
        "astId": 2997,
        "contract": "contracts/TruflationTester.sol:TruflationTester",
        "label": "oracleId",
        "offset": 0,
        "slot": "9",
        "type": "t_address"
      },
      {
        "astId": 2999,
        "contract": "contracts/TruflationTester.sol:TruflationTester",
        "label": "jobId",
        "offset": 0,
        "slot": "10",
        "type": "t_string_storage"
      },
      {
        "astId": 3001,
        "contract": "contracts/TruflationTester.sol:TruflationTester",
        "label": "fee",
        "offset": 0,
        "slot": "11",
        "type": "t_uint256"
      }
    ],
    "types": {
      "t_address": {
        "encoding": "inplace",
        "label": "address",
        "numberOfBytes": "20"
      },
      "t_bytes32": {
        "encoding": "inplace",
        "label": "bytes32",
        "numberOfBytes": "32"
      },
      "t_contract(ENSInterface)1156": {
        "encoding": "inplace",
        "label": "contract ENSInterface",
        "numberOfBytes": "20"
      },
      "t_contract(LinkTokenInterface)1251": {
        "encoding": "inplace",
        "label": "contract LinkTokenInterface",
        "numberOfBytes": "20"
      },
      "t_contract(OperatorInterface)1331": {
        "encoding": "inplace",
        "label": "contract OperatorInterface",
        "numberOfBytes": "20"
      },
      "t_int256": {
        "encoding": "inplace",
        "label": "int256",
        "numberOfBytes": "32"
      },
      "t_mapping(t_bytes32,t_address)": {
        "encoding": "mapping",
        "key": "t_bytes32",
        "label": "mapping(bytes32 => address)",
        "numberOfBytes": "32",
        "value": "t_address"
      },
      "t_string_storage": {
        "encoding": "bytes",
        "label": "string",
        "numberOfBytes": "32"
      },
      "t_uint256": {
        "encoding": "inplace",
        "label": "uint256",
        "numberOfBytes": "32"
      }
    }
  }
}