{
  "address": "0x0F7C4A8D7e911E6A6d0b3aAAB6a833601ccE65cC",
  "abi": [
    {
      "inputs": [
        {
          "internalType": "address",
          "name": "link_",
          "type": "address"
        },
        {
          "internalType": "address",
          "name": "oracleId_",
          "type": "address"
        },
        {
          "internalType": "string",
          "name": "jobId_",
          "type": "string"
        },
        {
          "internalType": "uint256",
          "name": "fee_",
          "type": "uint256"
        }
      ],
      "stateMutability": "nonpayable",
      "type": "constructor"
    },
    {
      "anonymous": false,
      "inputs": [
        {
          "indexed": true,
          "internalType": "bytes32",
          "name": "id",
          "type": "bytes32"
        }
      ],
      "name": "ChainlinkCancelled",
      "type": "event"
    },
    {
      "anonymous": false,
      "inputs": [
        {
          "indexed": true,
          "internalType": "bytes32",
          "name": "id",
          "type": "bytes32"
        }
      ],
      "name": "ChainlinkFulfilled",
      "type": "event"
    },
    {
      "anonymous": false,
      "inputs": [
        {
          "indexed": true,
          "internalType": "bytes32",
          "name": "id",
          "type": "bytes32"
        }
      ],
      "name": "ChainlinkRequested",
      "type": "event"
    },
    {
      "anonymous": false,
      "inputs": [
        {
          "indexed": true,
          "internalType": "address",
          "name": "from",
          "type": "address"
        },
        {
          "indexed": true,
          "internalType": "address",
          "name": "to",
          "type": "address"
        }
      ],
      "name": "OwnershipTransferRequested",
      "type": "event"
    },
    {
      "anonymous": false,
      "inputs": [
        {
          "indexed": true,
          "internalType": "address",
          "name": "from",
          "type": "address"
        },
        {
          "indexed": true,
          "internalType": "address",
          "name": "to",
          "type": "address"
        }
      ],
      "name": "OwnershipTransferred",
      "type": "event"
    },
    {
      "inputs": [],
      "name": "acceptOwnership",
      "outputs": [],
      "stateMutability": "nonpayable",
      "type": "function"
    },
    {
      "inputs": [
        {
          "internalType": "string",
          "name": "_jobId",
          "type": "string"
        }
      ],
      "name": "changeJobId",
      "outputs": [],
      "stateMutability": "nonpayable",
      "type": "function"
    },
    {
      "inputs": [
        {
          "internalType": "address",
          "name": "_oracle",
          "type": "address"
        }
      ],
      "name": "changeOracle",
      "outputs": [],
      "stateMutability": "nonpayable",
      "type": "function"
    },
    {
      "inputs": [],
      "name": "fee",
      "outputs": [
        {
          "internalType": "uint256",
          "name": "",
          "type": "uint256"
        }
      ],
      "stateMutability": "view",
      "type": "function"
    },
    {
      "inputs": [
        {
          "internalType": "bytes32",
          "name": "_requestId",
          "type": "bytes32"
        },
        {
          "internalType": "bytes",
          "name": "_inflation",
          "type": "bytes"
        }
      ],
      "name": "fulfillInflation",
      "outputs": [],
      "stateMutability": "nonpayable",
      "type": "function"
    },
    {
      "inputs": [],
      "name": "getChainlinkToken",
      "outputs": [
        {
          "internalType": "address",
          "name": "",
          "type": "address"
        }
      ],
      "stateMutability": "view",
      "type": "function"
    },
    {
      "inputs": [],
      "name": "inflation",
      "outputs": [
        {
          "internalType": "int256",
          "name": "",
          "type": "int256"
        }
      ],
      "stateMutability": "view",
      "type": "function"
    },
    {
      "inputs": [],
      "name": "jobId",
      "outputs": [
        {
          "internalType": "string",
          "name": "",
          "type": "string"
        }
      ],
      "stateMutability": "view",
      "type": "function"
    },
    {
      "inputs": [],
      "name": "lastTimeStamp",
      "outputs": [
        {
          "internalType": "uint256",
          "name": "",
          "type": "uint256"
        }
      ],
      "stateMutability": "view",
      "type": "function"
    },
    {
      "inputs": [],
      "name": "oracleId",
      "outputs": [
        {
          "internalType": "address",
          "name": "",
          "type": "address"
        }
      ],
      "stateMutability": "view",
      "type": "function"
    },
    {
      "inputs": [],
      "name": "owner",
      "outputs": [
        {
          "internalType": "address",
          "name": "",
          "type": "address"
        }
      ],
      "stateMutability": "view",
      "type": "function"
    },
    {
      "inputs": [],
      "name": "requestInflation",
      "outputs": [
        {
          "internalType": "bytes32",
          "name": "requestId",
          "type": "bytes32"
        }
      ],
      "stateMutability": "nonpayable",
      "type": "function"
    },
    {
      "inputs": [],
      "name": "transferAndRequestInflation",
      "outputs": [
        {
          "internalType": "bytes32",
          "name": "requestId",
          "type": "bytes32"
        }
      ],
      "stateMutability": "nonpayable",
      "type": "function"
    },
    {
      "inputs": [
        {
          "internalType": "address",
          "name": "to",
          "type": "address"
        }
      ],
      "name": "transferOwnership",
      "outputs": [],
      "stateMutability": "nonpayable",
      "type": "function"
    },
    {
      "inputs": [],
      "name": "withdrawLink",
      "outputs": [],
      "stateMutability": "nonpayable",
      "type": "function"
    }
  ],
  "transactionHash": "0x6432721192240497bc936f477ad37aac6a89d6d76b3e74f6ebc1bbf8774f6a7e",
  "args": [
    "0x326C977E6efc84E512bB9C30f76E30c160eD06FB",
    "0xcf72083697aB8A45905870C387dC93f380f2557b",
    "8b459447262a4ccf8863962e073576d9",
    "10000000000000000"
  ],
  "numDeployments": 1,
  "solcInputHash": "df794a736e04a68337adfd5b0cc15da0",
  "bytecode": "0x608060405260016004553480156200001657600080fd5b506040516200376c3803806200376c83398181016040528101906200003c919062000559565b338060008073ffffffffffffffffffffffffffffffffffffffff168273ffffffffffffffffffffffffffffffffffffffff1603620000b1576040517f08c379a0000000000000000000000000000000000000000000000000000000008152600401620000a8906200064b565b60405180910390fd5b81600660006101000a81548173ffffffffffffffffffffffffffffffffffffffff021916908373ffffffffffffffffffffffffffffffffffffffff160217905550600073ffffffffffffffffffffffffffffffffffffffff168173ffffffffffffffffffffffffffffffffffffffff161462000139576200013881620001b160201b60201c565b5b5050506200014d84620002e260201b60201c565b82600860006101000a81548173ffffffffffffffffffffffffffffffffffffffff021916908373ffffffffffffffffffffffffffffffffffffffff16021790555081600990816200019f9190620008ae565b5080600a819055505050505062000a07565b3373ffffffffffffffffffffffffffffffffffffffff168173ffffffffffffffffffffffffffffffffffffffff160362000222576040517f08c379a00000000000000000000000000000000000000000000000000000000081526004016200021990620009e5565b60405180910390fd5b80600760006101000a81548173ffffffffffffffffffffffffffffffffffffffff021916908373ffffffffffffffffffffffffffffffffffffffff1602179055508073ffffffffffffffffffffffffffffffffffffffff16600660009054906101000a900473ffffffffffffffffffffffffffffffffffffffff1673ffffffffffffffffffffffffffffffffffffffff167fed8889f560326eb138920d842192f0eb3dd22b4f139c87a2c57538e05bae127860405160405180910390a350565b80600260006101000a81548173ffffffffffffffffffffffffffffffffffffffff021916908373ffffffffffffffffffffffffffffffffffffffff16021790555050565b6000604051905090565b600080fd5b600080fd5b600073ffffffffffffffffffffffffffffffffffffffff82169050919050565b600062000367826200033a565b9050919050565b62000379816200035a565b81146200038557600080fd5b50565b60008151905062000399816200036e565b92915050565b600080fd5b600080fd5b6000601f19601f8301169050919050565b7f4e487b7100000000000000000000000000000000000000000000000000000000600052604160045260246000fd5b620003f482620003a9565b810181811067ffffffffffffffff82111715620004165762000415620003ba565b5b80604052505050565b60006200042b62000326565b9050620004398282620003e9565b919050565b600067ffffffffffffffff8211156200045c576200045b620003ba565b5b6200046782620003a9565b9050602081019050919050565b60005b838110156200049457808201518184015260208101905062000477565b60008484015250505050565b6000620004b7620004b1846200043e565b6200041f565b905082815260208101848484011115620004d657620004d5620003a4565b5b620004e384828562000474565b509392505050565b600082601f8301126200050357620005026200039f565b5b815162000515848260208601620004a0565b91505092915050565b6000819050919050565b62000533816200051e565b81146200053f57600080fd5b50565b600081519050620005538162000528565b92915050565b6000806000806080858703121562000576576200057562000330565b5b6000620005868782880162000388565b9450506020620005998782880162000388565b935050604085015167ffffffffffffffff811115620005bd57620005bc62000335565b5b620005cb87828801620004eb565b9250506060620005de8782880162000542565b91505092959194509250565b600082825260208201905092915050565b7f43616e6e6f7420736574206f776e657220746f207a65726f0000000000000000600082015250565b600062000633601883620005ea565b91506200064082620005fb565b602082019050919050565b60006020820190508181036000830152620006668162000624565b9050919050565b600081519050919050565b7f4e487b7100000000000000000000000000000000000000000000000000000000600052602260045260246000fd5b60006002820490506001821680620006c057607f821691505b602082108103620006d657620006d562000678565b5b50919050565b60008190508160005260206000209050919050565b60006020601f8301049050919050565b600082821b905092915050565b600060088302620007407fffffffffffffffffffffffffffffffffffffffffffffffffffffffffffffffff8262000701565b6200074c868362000701565b95508019841693508086168417925050509392505050565b6000819050919050565b60006200078f6200078962000783846200051e565b62000764565b6200051e565b9050919050565b6000819050919050565b620007ab836200076e565b620007c3620007ba8262000796565b8484546200070e565b825550505050565b600090565b620007da620007cb565b620007e7818484620007a0565b505050565b5b818110156200080f5762000803600082620007d0565b600181019050620007ed565b5050565b601f8211156200085e576200082881620006dc565b6200083384620006f1565b8101602085101562000843578190505b6200085b6200085285620006f1565b830182620007ec565b50505b505050565b600082821c905092915050565b6000620008836000198460080262000863565b1980831691505092915050565b60006200089e838362000870565b9150826002028217905092915050565b620008b9826200066d565b67ffffffffffffffff811115620008d557620008d4620003ba565b5b620008e18254620006a7565b620008ee82828562000813565b600060209050601f83116001811462000926576000841562000911578287015190505b6200091d858262000890565b8655506200098d565b601f1984166200093686620006dc565b60005b82811015620009605784890151825560018201915060208501945060208101905062000939565b868310156200098057848901516200097c601f89168262000870565b8355505b6001600288020188555050505b505050505050565b7f43616e6e6f74207472616e7366657220746f2073656c66000000000000000000600082015250565b6000620009cd601783620005ea565b9150620009da8262000995565b602082019050919050565b6000602082019050818103600083015262000a0081620009be565b9050919050565b612d558062000a176000396000f3fe608060405234801561001057600080fd5b50600436106100f55760003560e01c80638da5cb5b11610097578063be0522e011610066578063be0522e014610216578063c2939d9714610234578063ddca3f4314610252578063f2fde38b14610270576100f5565b80638da5cb5b146101b45780638dc654a2146101d25780639063e216146101dc5780639e1c5f1e146101f8576100f5565b80633f3b3b27116100d35780633f3b3b271461015457806347c421b514610172578063574d4f481461018e57806379ba5097146101aa576100f5565b8063165d35e1146100fa5780632121778d146101185780632fe53d5b14610136575b600080fd5b61010261028c565b60405161010f9190611add565b60405180910390f35b61012061029b565b60405161012d9190611add565b60405180910390f35b61013e6102c1565b60405161014b9190611b11565b60405180910390f35b61015c610513565b6040516101699190611b45565b60405180910390f35b61018c60048036038101906101879190611ba0565b610519565b005b6101a860048036038101906101a39190611d3f565b610565565b005b6101b2610685565b005b6101bc61081c565b6040516101c99190611add565b60405180910390f35b6101da610846565b005b6101f660048036038101906101f19190611e3c565b610993565b005b6102006109ae565b60405161020d9190611b11565b60405180910390f35b61021e610d33565b60405161022b9190611e9e565b60405180910390f35b61023c610d39565b6040516102499190611f38565b60405180910390f35b61025a610dc7565b6040516102679190611b45565b60405180910390f35b61028a60048036038101906102859190611ba0565b610dcd565b005b6000610296610de1565b905090565b600860009054906101000a900473ffffffffffffffffffffffffffffffffffffffff1681565b6000806102e060096102d290612036565b3063574d4f4860e01b610e0b565b90506103616040518060400160405280600781526020017f73657276696365000000000000000000000000000000000000000000000000008152506040518060400160405280601281526020017f747275666c6174696f6e2f63757272656e74000000000000000000000000000081525083610e3c9092919063ffffffff16565b6103e06040518060400160405280600781526020017f6b657970617468000000000000000000000000000000000000000000000000008152506040518060400160405280601581526020017f796561724f76657259656172496e666c6174696f6e000000000000000000000081525083610e3c9092919063ffffffff16565b61045f6040518060400160405280600381526020017f61626900000000000000000000000000000000000000000000000000000000008152506040518060400160405280600681526020017f696e74323536000000000000000000000000000000000000000000000000000081525083610e3c9092919063ffffffff16565b6104de6040518060400160405280600a81526020017f6d756c7469706c696572000000000000000000000000000000000000000000008152506040518060400160405280601381526020017f313030303030303030303030303030303030300000000000000000000000000081525083610e3c9092919063ffffffff16565b61050d600860009054906101000a900473ffffffffffffffffffffffffffffffffffffffff1682600a54610e6f565b91505090565b600c5481565b610521610f3b565b80600860006101000a81548173ffffffffffffffffffffffffffffffffffffffff021916908373ffffffffffffffffffffffffffffffffffffffff16021790555050565b816005600082815260200190815260200160002060009054906101000a900473ffffffffffffffffffffffffffffffffffffffff1673ffffffffffffffffffffffffffffffffffffffff163373ffffffffffffffffffffffffffffffffffffffff1614610607576040517f08c379a00000000000000000000000000000000000000000000000000000000081526004016105fe90612119565b60405180910390fd5b6005600082815260200190815260200160002060006101000a81549073ffffffffffffffffffffffffffffffffffffffff0219169055807f7cc135e0cebb02c3480ae5d74d377283180a2601f8f644edf7987b009316c63a60405160405180910390a261067382610fcd565b600b8190555042600c81905550505050565b600760009054906101000a900473ffffffffffffffffffffffffffffffffffffffff1673ffffffffffffffffffffffffffffffffffffffff163373ffffffffffffffffffffffffffffffffffffffff1614610715576040517f08c379a000000000000000000000000000000000000000000000000000000000815260040161070c90612185565b60405180910390fd5b6000600660009054906101000a900473ffffffffffffffffffffffffffffffffffffffff16905033600660006101000a81548173ffffffffffffffffffffffffffffffffffffffff021916908373ffffffffffffffffffffffffffffffffffffffff1602179055506000600760006101000a81548173ffffffffffffffffffffffffffffffffffffffff021916908373ffffffffffffffffffffffffffffffffffffffff1602179055503373ffffffffffffffffffffffffffffffffffffffff168173ffffffffffffffffffffffffffffffffffffffff167f8be0079c531659141344cd1fd0a4f28419497f9722a3daafe3b4186f6b6457e060405160405180910390a350565b6000600660009054906101000a900473ffffffffffffffffffffffffffffffffffffffff16905090565b61084e610f3b565b6000610858610de1565b90508073ffffffffffffffffffffffffffffffffffffffff1663a9059cbb338373ffffffffffffffffffffffffffffffffffffffff166370a08231306040518263ffffffff1660e01b81526004016108b09190611add565b602060405180830381865afa1580156108cd573d6000803e3d6000fd5b505050506040513d601f19601f820116820180604052508101906108f191906121d1565b6040518363ffffffff1660e01b815260040161090e9291906121fe565b6020604051808303816000875af115801561092d573d6000803e3d6000fd5b505050506040513d601f19601f82011682018060405250810190610951919061225f565b610990576040517f08c379a0000000000000000000000000000000000000000000000000000000008152600401610987906122d8565b60405180910390fd5b50565b61099b610f3b565b80600990816109aa9190612497565b5050565b60006109b861028c565b73ffffffffffffffffffffffffffffffffffffffff166323b872dd3330600a546040518463ffffffff1660e01b81526004016109f693929190612569565b6020604051808303816000875af1158015610a15573d6000803e3d6000fd5b505050506040513d601f19601f82011682018060405250810190610a39919061225f565b610a78576040517f08c379a0000000000000000000000000000000000000000000000000000000008152600401610a6f906125ec565b60405180910390fd5b6000610a966009610a8890612036565b3063574d4f4860e01b610e0b565b9050610b176040518060400160405280600781526020017f73657276696365000000000000000000000000000000000000000000000000008152506040518060400160405280601281526020017f747275666c6174696f6e2f63757272656e74000000000000000000000000000081525083610e3c9092919063ffffffff16565b610b966040518060400160405280600781526020017f6b657970617468000000000000000000000000000000000000000000000000008152506040518060400160405280601581526020017f796561724f76657259656172496e666c6174696f6e000000000000000000000081525083610e3c9092919063ffffffff16565b610c156040518060400160405280600381526020017f61626900000000000000000000000000000000000000000000000000000000008152506040518060400160405280600681526020017f696e74323536000000000000000000000000000000000000000000000000000081525083610e3c9092919063ffffffff16565b610c946040518060400160405280600a81526020017f6d756c7469706c696572000000000000000000000000000000000000000000008152506040518060400160405280601381526020017f313030303030303030303030303030303030300000000000000000000000000081525083610e3c9092919063ffffffff16565b610cfe6040518060400160405280600881526020017f726566756e64546f000000000000000000000000000000000000000000000000815250610cee3373ffffffffffffffffffffffffffffffffffffffff166014610fdb565b83610e3c9092919063ffffffff16565b610d2d600860009054906101000a900473ffffffffffffffffffffffffffffffffffffffff1682600a54610e6f565b91505090565b600b5481565b60098054610d4690611f89565b80601f0160208091040260200160405190810160405280929190818152602001828054610d7290611f89565b8015610dbf5780601f10610d9457610100808354040283529160200191610dbf565b820191906000526020600020905b815481529060010190602001808311610da257829003601f168201915b505050505081565b600a5481565b610dd5610f3b565b610dde81611217565b50565b6000600260009054906101000a900473ffffffffffffffffffffffffffffffffffffffff16905090565b610e13611a15565b610e1b611a15565b610e3285858584611345909392919063ffffffff16565b9150509392505050565b610e538284608001516113f590919063ffffffff16565b610e6a8184608001516113f590919063ffffffff16565b505050565b6000806004549050600181610e84919061263b565b6004819055506000634042994660e01b60008087600001513089604001518760018c6080015160000151604051602401610ec59897969594939291906126ff565b604051602081830303815290604052907bffffffffffffffffffffffffffffffffffffffffffffffffffffffff19166020820180517bffffffffffffffffffffffffffffffffffffffffffffffffffffffff83818316178352505050509050610f308683868461141a565b925050509392505050565b600660009054906101000a900473ffffffffffffffffffffffffffffffffffffffff1673ffffffffffffffffffffffffffffffffffffffff163373ffffffffffffffffffffffffffffffffffffffff1614610fcb576040517f08c379a0000000000000000000000000000000000000000000000000000000008152600401610fc2906127d0565b60405180910390fd5b565b600060208201519050919050565b606060006002836002610fee91906127f0565b610ff8919061263b565b67ffffffffffffffff81111561101157611010611c14565b5b6040519080825280601f01601f1916602001820160405280156110435781602001600182028036833780820191505090505b5090507f30000000000000000000000000000000000000000000000000000000000000008160008151811061107b5761107a612832565b5b60200101907effffffffffffffffffffffffffffffffffffffffffffffffffffffffffffff1916908160001a9053507f7800000000000000000000000000000000000000000000000000000000000000816001815181106110df576110de612832565b5b60200101907effffffffffffffffffffffffffffffffffffffffffffffffffffffffffffff1916908160001a9053506000600184600261111f91906127f0565b611129919061263b565b90505b60018111156111c9577f3031323334353637383961626364656600000000000000000000000000000000600f86166010811061116b5761116a612832565b5b1a60f81b82828151811061118257611181612832565b5b60200101907effffffffffffffffffffffffffffffffffffffffffffffffffffffffffffff1916908160001a905350600485901c9450806111c290612861565b905061112c565b506000841461120d576040517f08c379a0000000000000000000000000000000000000000000000000000000008152600401611204906128d6565b60405180910390fd5b8091505092915050565b3373ffffffffffffffffffffffffffffffffffffffff168173ffffffffffffffffffffffffffffffffffffffff1603611285576040517f08c379a000000000000000000000000000000000000000000000000000000000815260040161127c90612942565b60405180910390fd5b80600760006101000a81548173ffffffffffffffffffffffffffffffffffffffff021916908373ffffffffffffffffffffffffffffffffffffffff1602179055508073ffffffffffffffffffffffffffffffffffffffff16600660009054906101000a900473ffffffffffffffffffffffffffffffffffffffff1673ffffffffffffffffffffffffffffffffffffffff167fed8889f560326eb138920d842192f0eb3dd22b4f139c87a2c57538e05bae127860405160405180910390a350565b61134d611a15565b61135d85608001516101006115af565b508385600001818152505082856020019073ffffffffffffffffffffffffffffffffffffffff16908173ffffffffffffffffffffffffffffffffffffffff16815250508185604001907bffffffffffffffffffffffffffffffffffffffffffffffffffffffff191690817bffffffffffffffffffffffffffffffffffffffffffffffffffffffff191681525050849050949350505050565b6114028260038351611619565b611415818361179e90919063ffffffff16565b505050565b6000308460405160200161142f929190612a11565b604051602081830303815290604052805190602001209050846005600083815260200190815260200160002060006101000a81548173ffffffffffffffffffffffffffffffffffffffff021916908373ffffffffffffffffffffffffffffffffffffffff160217905550807fb5e6e01e79f91267dc17b4e6314d5d4d03593d2ceee0fbb452b750bd70ea5af960405160405180910390a2600260009054906101000a900473ffffffffffffffffffffffffffffffffffffffff1673ffffffffffffffffffffffffffffffffffffffff16634000aea08685856040518463ffffffff1660e01b815260040161152593929190612a3d565b6020604051808303816000875af1158015611544573d6000803e3d6000fd5b505050506040513d601f19601f82011682018060405250810190611568919061225f565b6115a7576040517f08c379a000000000000000000000000000000000000000000000000000000000815260040161159e90612aed565b60405180910390fd5b949350505050565b6115b7611a82565b60006020836115c69190612b3c565b146115f2576020826115d89190612b3c565b60206115e49190612b6d565b826115ef919061263b565b91505b81836020018181525050604051808452600081528281016020016040525082905092915050565b60178167ffffffffffffffff16116116505761164a8160058460ff16901b60ff1617846117c090919063ffffffff16565b50611799565b60ff8167ffffffffffffffff16116116a65761167f601860058460ff16901b17846117c090919063ffffffff16565b506116a08167ffffffffffffffff166001856117e09092919063ffffffff16565b50611798565b61ffff8167ffffffffffffffff16116116fd576116d6601960058460ff16901b17846117c090919063ffffffff16565b506116f78167ffffffffffffffff166002856117e09092919063ffffffff16565b50611797565b63ffffffff8167ffffffffffffffff16116117565761172f601a60058460ff16901b17846117c090919063ffffffff16565b506117508167ffffffffffffffff166004856117e09092919063ffffffff16565b50611796565b611773601b60058460ff16901b17846117c090919063ffffffff16565b506117948167ffffffffffffffff166008856117e09092919063ffffffff16565b505b5b5b5b505050565b6117a6611a82565b6117b883846000015151848551611802565b905092915050565b6117c8611a82565b6117d883846000015151846118f1565b905092915050565b6117e8611a82565b6117f9848560000151518585611947565b90509392505050565b61180a611a82565b825182111561181857600080fd5b84602001518285611829919061263b565b111561185e5761185d85600261184e88602001518887611849919061263b565b6119d5565b61185891906127f0565b6119f1565b5b60008086518051876020830101935080888701111561187d5787860182525b60208701925050505b602084106118c4578051825260208261189f919061263b565b91506020816118ae919061263b565b90506020846118bd9190612b6d565b9350611886565b60006001856020036101000a03905080198251168184511681811785525050508692505050949350505050565b6118f9611a82565b8360200151831061191f5761191e846002866020015161191991906127f0565b6119f1565b5b8351805160208583010184815381860361193a576001820183525b5050508390509392505050565b61194f611a82565b84602001518483611960919061263b565b1115611988576119878560028685611978919061263b565b61198291906127f0565b6119f1565b5b600060018361010061199a9190612cd4565b6119a49190612b6d565b905085518386820101858319825116178152815185880111156119c75784870182525b505085915050949350505050565b6000818311156119e7578290506119eb565b8190505b92915050565b600082600001519050611a0483836115af565b50611a0f838261179e565b50505050565b6040518060a0016040528060008019168152602001600073ffffffffffffffffffffffffffffffffffffffff16815260200160007bffffffffffffffffffffffffffffffffffffffffffffffffffffffff1916815260200160008152602001611a7c611a82565b81525090565b604051806040016040528060608152602001600081525090565b600073ffffffffffffffffffffffffffffffffffffffff82169050919050565b6000611ac782611a9c565b9050919050565b611ad781611abc565b82525050565b6000602082019050611af26000830184611ace565b92915050565b6000819050919050565b611b0b81611af8565b82525050565b6000602082019050611b266000830184611b02565b92915050565b6000819050919050565b611b3f81611b2c565b82525050565b6000602082019050611b5a6000830184611b36565b92915050565b6000604051905090565b600080fd5b600080fd5b611b7d81611abc565b8114611b8857600080fd5b50565b600081359050611b9a81611b74565b92915050565b600060208284031215611bb657611bb5611b6a565b5b6000611bc484828501611b8b565b91505092915050565b611bd681611af8565b8114611be157600080fd5b50565b600081359050611bf381611bcd565b92915050565b600080fd5b600080fd5b6000601f19601f8301169050919050565b7f4e487b7100000000000000000000000000000000000000000000000000000000600052604160045260246000fd5b611c4c82611c03565b810181811067ffffffffffffffff82111715611c6b57611c6a611c14565b5b80604052505050565b6000611c7e611b60565b9050611c8a8282611c43565b919050565b600067ffffffffffffffff821115611caa57611ca9611c14565b5b611cb382611c03565b9050602081019050919050565b82818337600083830152505050565b6000611ce2611cdd84611c8f565b611c74565b905082815260208101848484011115611cfe57611cfd611bfe565b5b611d09848285611cc0565b509392505050565b600082601f830112611d2657611d25611bf9565b5b8135611d36848260208601611ccf565b91505092915050565b60008060408385031215611d5657611d55611b6a565b5b6000611d6485828601611be4565b925050602083013567ffffffffffffffff811115611d8557611d84611b6f565b5b611d9185828601611d11565b9150509250929050565b600067ffffffffffffffff821115611db657611db5611c14565b5b611dbf82611c03565b9050602081019050919050565b6000611ddf611dda84611d9b565b611c74565b905082815260208101848484011115611dfb57611dfa611bfe565b5b611e06848285611cc0565b509392505050565b600082601f830112611e2357611e22611bf9565b5b8135611e33848260208601611dcc565b91505092915050565b600060208284031215611e5257611e51611b6a565b5b600082013567ffffffffffffffff811115611e7057611e6f611b6f565b5b611e7c84828501611e0e565b91505092915050565b6000819050919050565b611e9881611e85565b82525050565b6000602082019050611eb36000830184611e8f565b92915050565b600081519050919050565b600082825260208201905092915050565b60005b83811015611ef3578082015181840152602081019050611ed8565b60008484015250505050565b6000611f0a82611eb9565b611f148185611ec4565b9350611f24818560208601611ed5565b611f2d81611c03565b840191505092915050565b60006020820190508181036000830152611f528184611eff565b905092915050565b7f4e487b7100000000000000000000000000000000000000000000000000000000600052602260045260246000fd5b60006002820490506001821680611fa157607f821691505b602082108103611fb457611fb3611f5a565b5b50919050565b600081549050611fc981611f89565b9050919050565b60008190508160005260206000209050919050565b60008160001c9050919050565b6000819050919050565b600061200f61200a83611fe5565b611ff2565b9050919050565b60006120228254611ffc565b9050919050565b600082821b905092915050565b600061204182611fba565b82601f8211156120575761205484611fd0565b90505b61206081612016565b925060208210156120a05761209b7fffffffffffffffffffffffffffffffffffffffffffffffffffffffffffffffff83602003600802612029565b831692505b5050919050565b7f536f75726365206d75737420626520746865206f7261636c65206f662074686560008201527f2072657175657374000000000000000000000000000000000000000000000000602082015250565b6000612103602883611ec4565b915061210e826120a7565b604082019050919050565b60006020820190508181036000830152612132816120f6565b9050919050565b7f4d7573742062652070726f706f736564206f776e657200000000000000000000600082015250565b600061216f601683611ec4565b915061217a82612139565b602082019050919050565b6000602082019050818103600083015261219e81612162565b9050919050565b6121ae81611b2c565b81146121b957600080fd5b50565b6000815190506121cb816121a5565b92915050565b6000602082840312156121e7576121e6611b6a565b5b60006121f5848285016121bc565b91505092915050565b60006040820190506122136000830185611ace565b6122206020830184611b36565b9392505050565b60008115159050919050565b61223c81612227565b811461224757600080fd5b50565b60008151905061225981612233565b92915050565b60006020828403121561227557612274611b6a565b5b60006122838482850161224a565b91505092915050565b7f556e61626c6520746f207472616e736665720000000000000000000000000000600082015250565b60006122c2601283611ec4565b91506122cd8261228c565b602082019050919050565b600060208201905081810360008301526122f1816122b5565b9050919050565b60008190508160005260206000209050919050565b60006020601f8301049050919050565b60006008830261234d7fffffffffffffffffffffffffffffffffffffffffffffffffffffffffffffffff82612029565b6123578683612029565b95508019841693508086168417925050509392505050565b6000819050919050565b600061239461238f61238a84611b2c565b61236f565b611b2c565b9050919050565b6000819050919050565b6123ae83612379565b6123c26123ba8261239b565b84845461231d565b825550505050565b600090565b6123d76123ca565b6123e28184846123a5565b505050565b5b81811015612406576123fb6000826123cf565b6001810190506123e8565b5050565b601f82111561244b5761241c816122f8565b6124258461230d565b81016020851015612434578190505b6124486124408561230d565b8301826123e7565b50505b505050565b600082821c905092915050565b600061246e60001984600802612450565b1980831691505092915050565b6000612487838361245d565b9150826002028217905092915050565b6124a082611eb9565b67ffffffffffffffff8111156124b9576124b8611c14565b5b6124c38254611f89565b6124ce82828561240a565b600060209050601f83116001811461250157600084156124ef578287015190505b6124f9858261247b565b865550612561565b601f19841661250f866122f8565b60005b8281101561253757848901518255600182019150602085019450602081019050612512565b868310156125545784890151612550601f89168261245d565b8355505b6001600288020188555050505b505050505050565b600060608201905061257e6000830186611ace565b61258b6020830185611ace565b6125986040830184611b36565b949350505050565b7f7472616e73666572206661696c65640000000000000000000000000000000000600082015250565b60006125d6600f83611ec4565b91506125e1826125a0565b602082019050919050565b60006020820190508181036000830152612605816125c9565b9050919050565b7f4e487b7100000000000000000000000000000000000000000000000000000000600052601160045260246000fd5b600061264682611b2c565b915061265183611b2c565b92508282019050808211156126695761266861260c565b5b92915050565b60007fffffffff0000000000000000000000000000000000000000000000000000000082169050919050565b6126a48161266f565b82525050565b600081519050919050565b600082825260208201905092915050565b60006126d1826126aa565b6126db81856126b5565b93506126eb818560208601611ed5565b6126f481611c03565b840191505092915050565b600061010082019050612715600083018b611ace565b612722602083018a611b36565b61272f6040830189611b02565b61273c6060830188611ace565b612749608083018761269b565b61275660a0830186611b36565b61276360c0830185611b36565b81810360e083015261277581846126c6565b90509998505050505050505050565b7f4f6e6c792063616c6c61626c65206279206f776e657200000000000000000000600082015250565b60006127ba601683611ec4565b91506127c582612784565b602082019050919050565b600060208201905081810360008301526127e9816127ad565b9050919050565b60006127fb82611b2c565b915061280683611b2c565b925082820261281481611b2c565b9150828204841483151761282b5761282a61260c565b5b5092915050565b7f4e487b7100000000000000000000000000000000000000000000000000000000600052603260045260246000fd5b600061286c82611b2c565b91506000820361287f5761287e61260c565b5b600182039050919050565b7f537472696e67733a20686578206c656e67746820696e73756666696369656e74600082015250565b60006128c0602083611ec4565b91506128cb8261288a565b602082019050919050565b600060208201905081810360008301526128ef816128b3565b9050919050565b7f43616e6e6f74207472616e7366657220746f2073656c66000000000000000000600082015250565b600061292c601783611ec4565b9150612937826128f6565b602082019050919050565b6000602082019050818103600083015261295b8161291f565b9050919050565b600061297d61297861297384611a9c565b61236f565b611a9c565b9050919050565b600061298f82612962565b9050919050565b60006129a182612984565b9050919050565b60008160601b9050919050565b60006129c0826129a8565b9050919050565b60006129d2826129b5565b9050919050565b6129ea6129e582612996565b6129c7565b82525050565b6000819050919050565b612a0b612a0682611b2c565b6129f0565b82525050565b6000612a1d82856129d9565b601482019150612a2d82846129fa565b6020820191508190509392505050565b6000606082019050612a526000830186611ace565b612a5f6020830185611b36565b8181036040830152612a7181846126c6565b9050949350505050565b7f756e61626c6520746f207472616e73666572416e6443616c6c20746f206f726160008201527f636c650000000000000000000000000000000000000000000000000000000000602082015250565b6000612ad7602383611ec4565b9150612ae282612a7b565b604082019050919050565b60006020820190508181036000830152612b0681612aca565b9050919050565b7f4e487b7100000000000000000000000000000000000000000000000000000000600052601260045260246000fd5b6000612b4782611b2c565b9150612b5283611b2c565b925082612b6257612b61612b0d565b5b828206905092915050565b6000612b7882611b2c565b9150612b8383611b2c565b9250828203905081811115612b9b57612b9a61260c565b5b92915050565b60008160011c9050919050565b6000808291508390505b6001851115612bf857808604811115612bd457612bd361260c565b5b6001851615612be35780820291505b8081029050612bf185612ba1565b9450612bb8565b94509492505050565b600082612c115760019050612ccd565b81612c1f5760009050612ccd565b8160018114612c355760028114612c3f57612c6e565b6001915050612ccd565b60ff841115612c5157612c5061260c565b5b8360020a915084821115612c6857612c6761260c565b5b50612ccd565b5060208310610133831016604e8410600b8410161715612ca35782820a905083811115612c9e57612c9d61260c565b5b612ccd565b612cb08484846001612bae565b92509050818404811115612cc757612cc661260c565b5b81810290505b9392505050565b6000612cdf82611b2c565b9150612cea83611b2c565b9250612d177fffffffffffffffffffffffffffffffffffffffffffffffffffffffffffffffff8484612c01565b90509291505056fea2646970667358221220b0e9d21fc59d1b4afe493d4d04f1f6ae8b8e5da34f63fd80e8d285c69ab13c1764736f6c63430008110033",
  "devdoc": {
    "kind": "dev",
    "methods": {},
    "version": 1
  },
  "userdoc": {
    "kind": "user",
    "methods": {
      "acceptOwnership()": {
        "notice": "Allows an ownership transfer to be completed by the recipient."
      },
      "owner()": {
        "notice": "Get the current owner"
      },
      "transferOwnership(address)": {
        "notice": "Allows an owner to begin transferring ownership to a new address, pending."
      }
    },
    "version": 1
  },
  "storageLayout": {
    "storage": [
      {
        "astId": 319,
        "contract": "contracts/TruflationClient.sol:TruflationClient",
        "label": "s_ens",
        "offset": 0,
        "slot": "0",
        "type": "t_contract(ENSInterface)1329"
      },
      {
        "astId": 321,
        "contract": "contracts/TruflationClient.sol:TruflationClient",
        "label": "s_ensNode",
        "offset": 0,
        "slot": "1",
        "type": "t_bytes32"
      },
      {
        "astId": 324,
        "contract": "contracts/TruflationClient.sol:TruflationClient",
        "label": "s_link",
        "offset": 0,
        "slot": "2",
        "type": "t_contract(LinkTokenInterface)1424"
      },
      {
        "astId": 327,
        "contract": "contracts/TruflationClient.sol:TruflationClient",
        "label": "s_oracle",
        "offset": 0,
        "slot": "3",
        "type": "t_contract(OperatorInterface)1504"
      },
      {
        "astId": 330,
        "contract": "contracts/TruflationClient.sol:TruflationClient",
        "label": "s_requestCount",
        "offset": 0,
        "slot": "4",
        "type": "t_uint256"
      },
      {
        "astId": 334,
        "contract": "contracts/TruflationClient.sol:TruflationClient",
        "label": "s_pendingRequests",
        "offset": 0,
        "slot": "5",
        "type": "t_mapping(t_bytes32,t_address)"
      },
      {
        "astId": 889,
        "contract": "contracts/TruflationClient.sol:TruflationClient",
        "label": "s_owner",
        "offset": 0,
        "slot": "6",
        "type": "t_address"
      },
      {
        "astId": 891,
        "contract": "contracts/TruflationClient.sol:TruflationClient",
        "label": "s_pendingOwner",
        "offset": 0,
        "slot": "7",
        "type": "t_address"
      },
      {
        "astId": 5095,
        "contract": "contracts/TruflationClient.sol:TruflationClient",
        "label": "oracleId",
        "offset": 0,
        "slot": "8",
        "type": "t_address"
      },
      {
        "astId": 5097,
        "contract": "contracts/TruflationClient.sol:TruflationClient",
        "label": "jobId",
        "offset": 0,
        "slot": "9",
        "type": "t_string_storage"
      },
      {
        "astId": 5099,
        "contract": "contracts/TruflationClient.sol:TruflationClient",
        "label": "fee",
        "offset": 0,
        "slot": "10",
        "type": "t_uint256"
      },
      {
        "astId": 5101,
        "contract": "contracts/TruflationClient.sol:TruflationClient",
        "label": "inflation",
        "offset": 0,
        "slot": "11",
        "type": "t_int256"
      },
      {
        "astId": 5103,
        "contract": "contracts/TruflationClient.sol:TruflationClient",
        "label": "lastTimeStamp",
        "offset": 0,
        "slot": "12",
        "type": "t_uint256"
      }
    ],
    "types": {
      "t_address": {
        "encoding": "inplace",
        "label": "address",
        "numberOfBytes": "20"
      },
      "t_bytes32": {
        "encoding": "inplace",
        "label": "bytes32",
        "numberOfBytes": "32"
      },
      "t_contract(ENSInterface)1329": {
        "encoding": "inplace",
        "label": "contract ENSInterface",
        "numberOfBytes": "20"
      },
      "t_contract(LinkTokenInterface)1424": {
        "encoding": "inplace",
        "label": "contract LinkTokenInterface",
        "numberOfBytes": "20"
      },
      "t_contract(OperatorInterface)1504": {
        "encoding": "inplace",
        "label": "contract OperatorInterface",
        "numberOfBytes": "20"
      },
      "t_int256": {
        "encoding": "inplace",
        "label": "int256",
        "numberOfBytes": "32"
      },
      "t_mapping(t_bytes32,t_address)": {
        "encoding": "mapping",
        "key": "t_bytes32",
        "label": "mapping(bytes32 => address)",
        "numberOfBytes": "32",
        "value": "t_address"
      },
      "t_string_storage": {
        "encoding": "bytes",
        "label": "string",
        "numberOfBytes": "32"
      },
      "t_uint256": {
        "encoding": "inplace",
        "label": "uint256",
        "numberOfBytes": "32"
      }
    }
  }
}